{
  "abi": [
    {
      "type": "constructor",
      "inputs": [],
      "stateMutability": "nonpayable"
    },
    {
      "type": "function",
      "name": "deposit",
      "inputs": [
        {
          "name": "node_pubkey",
          "type": "bytes",
          "internalType": "bytes"
        },
        {
          "name": "consensus_pubkey",
          "type": "bytes",
          "internalType": "bytes"
        },
        {
          "name": "withdrawal_credentials",
          "type": "bytes",
          "internalType": "bytes"
        },
        {
          "name": "node_signature",
          "type": "bytes",
          "internalType": "bytes"
        },
        {
          "name": "consensus_signature",
          "type": "bytes",
          "internalType": "bytes"
        },
        {
          "name": "deposit_data_root",
          "type": "bytes32",
          "internalType": "bytes32"
        }
      ],
      "outputs": [],
      "stateMutability": "payable"
    },
    {
      "type": "function",
      "name": "get_deposit_count",
      "inputs": [],
      "outputs": [
        {
          "name": "",
          "type": "bytes",
          "internalType": "bytes"
        }
      ],
      "stateMutability": "view"
    },
    {
      "type": "function",
      "name": "get_deposit_root",
      "inputs": [],
      "outputs": [
        {
          "name": "",
          "type": "bytes32",
          "internalType": "bytes32"
        }
      ],
      "stateMutability": "view"
    },
    {
      "type": "function",
      "name": "supportsInterface",
      "inputs": [
        {
          "name": "interfaceId",
          "type": "bytes4",
          "internalType": "bytes4"
        }
      ],
      "outputs": [
        {
          "name": "",
          "type": "bool",
          "internalType": "bool"
        }
      ],
      "stateMutability": "pure"
    },
    {
      "type": "event",
      "name": "DepositEvent",
      "inputs": [
        {
          "name": "node_pubkey",
          "type": "bytes",
          "indexed": false,
          "internalType": "bytes"
        },
        {
          "name": "consensus_pubkey",
          "type": "bytes",
          "indexed": false,
          "internalType": "bytes"
        },
        {
          "name": "withdrawal_credentials",
          "type": "bytes",
          "indexed": false,
          "internalType": "bytes"
        },
        {
          "name": "amount",
          "type": "bytes",
          "indexed": false,
          "internalType": "bytes"
        },
        {
          "name": "node_signature",
          "type": "bytes",
          "indexed": false,
          "internalType": "bytes"
        },
        {
          "name": "consensus_signature",
          "type": "bytes",
          "indexed": false,
          "internalType": "bytes"
        },
        {
          "name": "index",
          "type": "bytes",
          "indexed": false,
          "internalType": "bytes"
        }
      ],
      "anonymous": false
    }
  ],
  "bytecode": {
    "object": "0x608060405234610027576100116102c9565b61001961002c565b6122226103c3823961222290f35b610032565b60405190565b5f80fd5b90565b90565b90565b61005361004e61005892610036565b61003c565b610039565b90565b60016100679101610039565b90565b90565b61008161007c6100869261006a565b61003c565b610039565b90565b610093602061006d565b90565b90565b6100ad6100a86100b292610096565b61003c565b610039565b90565b634e487b7160e01b5f52601160045260245ffd5b6100d86100de91939293610039565b92610039565b82039182116100e957565b6100b5565b634e487b7160e01b5f52603260045260245ffd5b50602090565b90565b61011481610102565b82101561012e57610126600191610108565b910201905f90565b6100ee565b1c90565b90565b61014a90600861014f9302610133565b610137565b90565b9061015d915461013a565b90565b90565b90565b61017261017791610160565b610163565b9052565b60208161018d61019593839695610166565b018092610166565b0190565b601f801991011690565b634e487b7160e01b5f52604160045260245ffd5b906101c190610199565b810190811060018060401b038211176101d957604052565b6101a3565b5f1b90565b5190565b905090565b90825f9392825e0152565b61021c6102139260209261020a816101e3565b948580936101e7565b938491016101ec565b0190565b610229916101f7565b90565b61023461002c565b3d5f823e3d90fd5b61024b61025191939293610039565b92610039565b820180921161025c57565b6100b5565b1b90565b9190600861028091029161027a5f1984610261565b92610261565b9181191691161790565b61029390610160565b90565b5f1c90565b6102a490610296565b90565b91906102bd6102b86102c59361028a565b61029b565b908354610265565b9055565b6102d25f61003f565b5b806103006102fa6102f56102e5610089565b6102ef6001610099565b906100c9565b610039565b91610039565b10156103bf5760205f61036f61032161031b6021869061010b565b90610152565b61035e6103396103336021889061010b565b90610152565b9161035061034561002c565b93849288840161017b565b8682018103825203826101b7565b61036661002c565b91829182610220565b039060025afa156103ba576103b5906103b061038b5f516101de565b6103aa60216103a48561039e6001610099565b9061023c565b9061010b565b906102a7565b61005b565b6102d3565b61022c565b5056fe60806040526004361015610013575b6103b4565b61001d5f3561005c565b806301ffc9a714610057578063621fd1301461005257806379f6caf51461004d5763c5f2892f0361000e5761037f565b610327565b610197565b6100e8565b60e01c90565b60405190565b5f80fd5b5f80fd5b5f80fd5b63ffffffff60e01b1690565b61008981610074565b0361009057565b5f80fd5b905035906100a182610080565b565b906020828203126100bc576100b9915f01610094565b90565b61006c565b151590565b6100cf906100c1565b9052565b91906100e6905f602085019401906100c6565b565b34610118576101146101036100fe3660046100a3565b6103bc565b61010b610062565b918291826100d3565b0390f35b610068565b5f91031261012757565b61006c565b5190565b60209181520190565b90825f9392825e0152565b601f801991011690565b61016d61017660209361017b936101648161012c565b93848093610130565b95869101610139565b610144565b0190565b6101949160208201915f81840391015261014e565b90565b346101c7576101a736600461011d565b6101c36101b261046b565b6101ba610062565b9182918261017f565b0390f35b610068565b5f80fd5b5f80fd5b5f80fd5b909182601f830112156102125781359167ffffffffffffffff831161020d57602001926001830284011161020857565b6101d4565b6101d0565b6101cc565b90565b61022381610217565b0361022a57565b5f80fd5b9050359061023b8261021a565b565b9160c08383031261031d575f83013567ffffffffffffffff811161031857826102679185016101d8565b929093602081013567ffffffffffffffff8111610313578261028a9183016101d8565b929093604083013567ffffffffffffffff811161030e57826102ad9185016101d8565b929093606081013567ffffffffffffffff811161030957826102d09183016101d8565b929093608083013567ffffffffffffffff8111610304576102f6836103019286016101d8565b93909460a00161022e565b90565b610070565b610070565b610070565b610070565b610070565b61006c565b5f0190565b61034761033536600461023d565b99989098979197969296959395611440565b61034f610062565b8061035981610322565b0390f35b61036690610217565b9052565b919061037d905f6020850194019061035d565b565b346103af5761038f36600461011d565b6103ab61039a611c35565b6103a2610062565b9182918261036a565b0390f35b610068565b5f80fd5b5f90565b6103c46103b8565b50806103df6103d96301ffc9a760e01b610074565b91610074565b149081156103ec575b5090565b9050610407610401636f0dc97560e11b610074565b91610074565b145f6103e8565b606090565b5f1c90565b90565b61042761042c91610413565b610418565b90565b610439905461041b565b90565b90565b67ffffffffffffffff1690565b90565b61046361045e6104689261043c565b61044c565b61043f565b90565b61047361040e565b5061048e610489610484602061042f565b61044f565b611fb9565b90565b5090565b90565b6104ac6104a76104b192610495565b61044c565b61043c565b90565b60209181520190565b60207f626b6579206c656e677468000000000000000000000000000000000000000000917f4465706f736974436f6e74726163743a20696e76616c6964206e6f64655f70755f8201520152565b610517602b6040926104b4565b610520816104bd565b0190565b6105399060208101905f81830391015261050a565b90565b1561054357565b61054b610062565b62461bcd60e51b81528061056160048201610524565b0390fd5b90565b61057c61057761058192610565565b61044c565b61043c565b90565b60207f75735f7075626b6579206c656e67746800000000000000000000000000000000917f4465706f736974436f6e74726163743a20696e76616c696420636f6e73656e735f8201520152565b6105de60306040926104b4565b6105e781610584565b0190565b6106009060208101905f8183039101526105d1565b90565b1561060a57565b610612610062565b62461bcd60e51b815280610628600482016105eb565b0390fd5b60207f77616c5f63726564656e7469616c73206c656e67746800000000000000000000917f4465706f736974436f6e74726163743a20696e76616c696420776974686472615f8201520152565b61068660366040926104b4565b61068f8161062c565b0190565b6106a89060208101905f818303910152610679565b90565b156106b257565b6106ba610062565b62461bcd60e51b8152806106d060048201610693565b0390fd5b90565b6106eb6106e66106f0926106d4565b61044c565b61043c565b90565b60207f676e6174757265206c656e677468000000000000000000000000000000000000917f4465706f736974436f6e74726163743a20696e76616c6964206e6f64655f73695f8201520152565b61074d602e6040926104b4565b610756816106f3565b0190565b61076f9060208101905f818303910152610740565b90565b1561077957565b610781610062565b62461bcd60e51b8152806107976004820161075a565b0390fd5b90565b6107b26107ad6107b79261079b565b61044c565b61043c565b90565b60207f75735f7369676e6174757265206c656e67746800000000000000000000000000917f4465706f736974436f6e74726163743a20696e76616c696420636f6e73656e735f8201520152565b61081460336040926104b4565b61081d816107ba565b0190565b6108369060208101905f818303910152610807565b90565b1561084057565b610848610062565b62461bcd60e51b81528061085e60048201610821565b0390fd5b634e487b7160e01b5f52603260045260245ffd5b9190811015610886576001020190565b610862565b90565b6108a261089d6108a79261088b565b61044c565b61043c565b90565b60ff60f81b1690565b90565b60f81b90565b6108d06108cb6108d5926108b3565b6108b6565b6108aa565b90565b60207f77616c5f63726564656e7469616c732070726566697800000000000000000000917f4465706f736974436f6e74726163743a20696e76616c696420776974686472615f8201520152565b61093260366040926104b4565b61093b816108d8565b0190565b6109549060208101905f818303910152610925565b90565b1561095e57565b610966610062565b62461bcd60e51b81528061097c6004820161093f565b0390fd5b61099461098f610999926108b3565b61044c565b61043c565b90565b90565b6109b36109ae6109b89261099c565b61044c565b61043c565b90565b5f80fd5b5f80fd5b909392938483116109e35784116109de576001820201920390565b6109bf565b6109bb565b6affffffffffffffffffffff60a81b1690565b1b90565b90610a0d610a149183610491565b91356109e8565b90600b8110610a22575b5090565b610a41906affffffffffffffffffffff60a81b90600b036008026109fb565b165f610a1e565b60a81b90565b610a62610a5d610a679261088b565b610a48565b6109e8565b90565b60207f77616c5f63726564656e7469616c732070616464696e67000000000000000000917f4465706f736974436f6e74726163743a20696e76616c696420776974686472615f8201520152565b610ac460376040926104b4565b610acd81610a6a565b0190565b610ae69060208101905f818303910152610ab7565b90565b15610af057565b610af8610062565b62461bcd60e51b815280610b0e60048201610ad1565b0390fd5b90565b610b29610b24610b2e92610b12565b61044c565b61043c565b90565b60207f6f6f206c6f770000000000000000000000000000000000000000000000000000917f4465706f736974436f6e74726163743a206465706f7369742076616c756520745f8201520152565b610b8b60266040926104b4565b610b9481610b31565b0190565b610bad9060208101905f818303910152610b7e565b90565b15610bb757565b610bbf610062565b62461bcd60e51b815280610bd560048201610b98565b0390fd5b90565b610bf0610beb610bf592610bd9565b61044c565b61043c565b90565b634e487b7160e01b5f52601260045260245ffd5b610c18610c1e9161043c565b9161043c565b908115610c29570690565b610bf8565b60207f6f74206d756c7469706c65206f66206777656900000000000000000000000000917f4465706f736974436f6e74726163743a206465706f7369742076616c7565206e5f8201520152565b610c8860336040926104b4565b610c9181610c2e565b0190565b610caa9060208101905f818303910152610c7b565b90565b15610cb457565b610cbc610062565b62461bcd60e51b815280610cd260048201610c95565b0390fd5b634e487b7160e01b5f52601160045260245ffd5b610cf6610cfc9161043c565b9161043c565b908115610d07570490565b610bf8565b610d20610d1b610d259261043f565b61044c565b61043c565b90565b60207f6f6f206869676800000000000000000000000000000000000000000000000000917f4465706f736974436f6e74726163743a206465706f7369742076616c756520745f8201520152565b610d8260276040926104b4565b610d8b81610d28565b0190565b610da49060208101905f818303910152610d75565b90565b15610dae57565b610db6610062565b62461bcd60e51b815280610dcc60048201610d8f565b0390fd5b90825f939282370152565b9190610df581610dee81610dfa95610130565b8095610dd0565b610144565b0190565b9a969194610e6d96610e428d610e899f9d9b9897610e5f97610e34610e7b9f9a97610e519860e08601918683035f880152610ddb565b926020818503910152610ddb565b918d6040818503910152610ddb565b908a820360608c015261014e565b9188830360808a0152610ddb565b9185830360a0870152610ddb565b9160c081840391015261014e565b90565b6fffffffffffffffffffffffffffffffff191690565b60801b90565b610ebc610eb7610ec19261088b565b610ea2565b610e8c565b90565b905090565b909182610ed981610ee093610ec4565b8093610dd0565b0190565b90565b610ef3610ef891610e8c565b610ee4565b9052565b610f0d9060109493610f1493610ec9565b8092610ee7565b0190565b634e487b7160e01b5f52604160045260245ffd5b90610f3690610144565b810190811067ffffffffffffffff821117610f5057604052565b610f18565b5f1b90565b610f7f610f7692602092610f6d8161012c565b94858093610ec4565b93849101610139565b0190565b610f8c91610f5a565b90565b610f97610062565b3d5f823e3d90fd5b90565b610fae610fb391610217565b610f9f565b9052565b610fc89060209493610fcf93610ec9565b8092610fa2565b0190565b9091610fde92610ec9565b90565b9091610fec92610ec9565b90565b611003610ffe6110089261088b565b610f55565b610217565b90565b61101c906020949361102393610ec9565b8092610fa2565b0190565b60208161103961104193839695610fa2565b018092610fa2565b0190565b8061105660209261105d9694610fa2565b0191610ec9565b90565b67ffffffffffffffff191690565b60401b90565b61108861108361108d9261088b565b61106e565b611060565b90565b90565b61109f6110a491611060565b611090565b9052565b602093926110c56110be6018936110cd95610f5a565b8092611093565b018092610fa2565b0190565b60407f6564206465706f7369745f646174615f726f6f74000000000000000000000000917f4465706f736974436f6e74726163743a207265636f6e737472756374656420445f8201527f65706f7369744461746120646f6573206e6f74206d6174636820737570706c6960208201520152565b61115160546060926104b4565b61115a816110d1565b0190565b6111739060208101905f818303910152611144565b90565b1561117d57565b611185610062565b62461bcd60e51b81528061119b6004820161115e565b0390fd5b6111a96020610498565b90565b90565b6111c36111be6111c8926111ac565b61044c565b61043c565b90565b6111d49061043c565b60ff81116111e25760020a90565b610cd6565b6111f66111fc9193929361043c565b9261043c565b820391821161120757565b610cd6565b61122f61121f61121a61119f565b6111cb565b6112296001610980565b906111e7565b90565b60207f6c00000000000000000000000000000000000000000000000000000000000000917f4465706f736974436f6e74726163743a206d65726b6c6520747265652066756c5f8201520152565b61128c60216040926104b4565b61129581611232565b0190565b6112ae9060208101905f81830391015261127f565b90565b156112b857565b6112c0610062565b62461bcd60e51b8152806112d660048201611299565b0390fd5b6112e96112ef9193929361043c565b9261043c565b82018092116112fa57565b610cd6565b9061130b5f1991610f55565b9181191691161790565b61132961132461132e9261043c565b61044c565b61043c565b90565b90565b9061134961134461135092611315565b611331565b82546112ff565b9055565b6001611360910161043c565b90565b50602090565b90565b61137581611363565b82101561138f57611387600191611369565b910201905f90565b610862565b919060086113af9102916113a95f19846109fb565b926109fb565b9181191691161790565b6113c290610217565b90565b6113ce90610413565b90565b91906113e76113e26113ef936113b9565b6113c5565b908354611394565b9055565b1c90565b90565b61140a90600861140f93026113f3565b6113f7565b90565b9061141d91546113fa565b90565b634e487b7160e01b5f52600160045260245ffd5b1561143b57565b611420565b9091989495979396929a999a818361145791610491565b602061146290610498565b9061146c9061043c565b146114769061053c565b898161148191610491565b603061148c90610568565b906114969061043c565b146114a090610603565b87876114ab91610491565b60206114b690610498565b906114c09061043c565b146114ca906106ab565b88846114d591610491565b60406114e0906106d7565b906114ea9061043c565b146114f490610772565b84866114ff91610491565b606061150a9061079e565b906115149061043c565b1461151e90610839565b87875f61152a9061088e565b9061153492610876565b3561153e906108aa565b6001611549906108bc565b90611553906108aa565b1461155d90610957565b87876001600c9061156d90610980565b906115779061099f565b91611581936109c3565b61158a916109ff565b5f61159490610a4e565b61159d906109e8565b906115a7906109e8565b146115b190610ae9565b34670de0b6b3a76400006115c490610b15565b906115ce9061043c565b10156115d990610bb0565b34633b9aca006115e890610bdc565b6115f191610c0c565b5f6115fb9061088e565b906116059061043c565b1461160f90610cad565b34633b9aca0061161e90610bdc565b61162791610cea565b8067ffffffffffffffff61163a90610d0c565b906116449061043c565b111561164f90610da7565b6116589061044f565b61166190611fb9565b99888a8c858b88928c8c8c89978b9995949091929394611681602061042f565b61168a9061044f565b61169390611fb9565b967f0cff1634a9a72df9d813ea7e3a3874a76086e081904ad3cf81e12e43f4d4c87a9b6116be610062565b9b8c9b6116cb9b8d610dfe565b0390a1905f6116d990610ea8565b916116e2610062565b92839260208401926116f393610efc565b6020820181038252036117069082610f2c565b61170e610062565b611719819282610f83565b03905a915f916002602094fa15611c03576117775f916117666020946117586117428651610f55565b93919361174d610062565b948593898501610fb7565b868201810382520382610f2c565b61176e610062565b91829182610f83565b039060025afa15611bfe575f6020916117908251610f55565b976117a561179c610062565b92839283610fd3565b039060025afa15611bf9576117ba5f51610f55565b9160205f6118136118026117dc86866040906117d687926106d7565b926109c3565b91906117f46117e9610062565b938492888401610fe1565b868201810382520382610f2c565b61180a610062565b91829182610f83565b039060025afa15611bf4575f6118896118786118496020946118358551610f55565b969061184160406106d7565b9080926109c3565b919061186a61185786610fef565b61185f610062565b94859389850161100b565b868201810382520382610f2c565b611880610062565b91829182610f83565b039060025afa15611bef575f6118de6020926118cd6118a88451610f55565b916118bf6118b4610062565b938492888401611027565b868201810382520382610f2c565b6118d5610062565b91829182610f83565b039060025afa15611bea575f6119336020926119226118fd8451610f55565b91611914611909610062565b938492888401611027565b868201810382520382610f2c565b61192a610062565b91829182610f83565b039060025afa15611be55761198b5f9161197a60209461196c6119568651610f55565b979193611961610062565b948593898501611045565b868201810382520382610f2c565b611982610062565b91829182610f83565b039060025afa15611be0575f6119ea6020926119d96119aa8451610f55565b956119cb6119b786611074565b936119c0610062565b9485938985016110a8565b868201810382520382610f2c565b6119e1610062565b91829182610f83565b039060025afa15611bdb575f611a3f602092611a2e611a098451610f55565b91611a20611a15610062565b938492888401611027565b868201810382520382610f2c565b611a36610062565b91829182610f83565b039060025afa15611bd657611a71611a575f51610f55565b92611a6b611a658592610217565b91610217565b14611176565b611a9d611a7e602061042f565b611a97611a91611a8c61120c565b61043c565b9161043c565b106112b1565b611ac3611abc611aad6001610980565b611ab7602061042f565b6112da565b6020611334565b611acd602061042f565b611ad65f61088e565b925b83611af2611aec611ae761119f565b61043c565b9161043c565b1015611bc75781611b036001610980565b16611b17611b116001610980565b9161043c565b14611bad575f611b6f602092611b5e611b3a611b34858a9061136c565b90611412565b611b50611b45610062565b938492888401611027565b868201810382520382610f2c565b611b66610062565b91829182610f83565b039060025afa15611ba857611ba1611b9b611b8a5f51610f55565b92611b9560026111af565b90610cea565b93611354565b9290611ad8565b610f8f565b611bc592939150611bbf90915f61136c565b906113d1565b565b50509050611bd45f611434565b565b610f8f565b610f8f565b610f8f565b610f8f565b610f8f565b610f8f565b610f8f565b610f8f565b610f8f565b610f8f565b5f90565b60189392602082611c23611c2a94611c3196610fa2565b0190610f5a565b8092611093565b0190565b611c3d611c08565b50611c46611c08565b90611c51602061042f565b611c5a5f61088e565b925b83611c76611c70611c6b61119f565b61043c565b9161043c565b1015611dad575f60209183611c8b6001610980565b16611c9f611c996001610980565b9161043c565b148214611d3557611cf690611ce5611cc1611cbb858a9061136c565b90611412565b611cd7611ccc610062565b938492888401611027565b868201810382520382610f2c565b611ced610062565b91829182610f83565b039060025afa15611d3057611d29611d23611d115f51610f55565b925b611d1d60026111af565b90610cea565b93611354565b9290611c5c565b610f8f565b611d8790611d76611d51611d4b60218a9061136c565b90611412565b91611d68611d5d610062565b938492888401611027565b868201810382520382610f2c565b611d7e610062565b91829182610f83565b039060025afa15611da857611d29611d23611da25f51610f55565b92611d13565b610f8f565b60209293505f9150611e1490611e03611dd5611dd0611dcb8761042f565b61044f565b611fb9565b91611df5611de286611074565b611dea610062565b948593898501611c0c565b868201810382520382610f2c565b611e0b610062565b91829182610f83565b039060025afa15611e2c57611e295f51610f55565b90565b610f8f565b90565b611e48611e43611e4d92611e31565b61044c565b61043c565b90565b90611e63611e5c610062565b9283610f2c565b565b67ffffffffffffffff8111611e8357611e7f602091610144565b0190565b610f18565b90611e9a611e9583611e65565b611e50565b918252565b369037565b90611ec9611eb183611e88565b92602080611ebf8693611e65565b9201910390611e9f565b565b67ffffffffffffffff60c01b1690565b60c01b90565b611ef5611ef0611efa9261043f565b611edb565b611ecb565b90565b90565b611f14611f0f611f1992611efd565b61044c565b61043c565b90565b90611f268261012c565b811015611f3857600160209102010190565b610862565b90565b611f54611f4f611f5992611f3d565b61044c565b61043c565b90565b90565b611f73611f6e611f7892611f5c565b61044c565b61043c565b90565b90565b611f92611f8d611f9792611f7b565b61044c565b61043c565b90565b90565b611fb1611fac611fb692611f9a565b61044c565b61043c565b90565b90611fc261040e565b50611fde611fd8611fd36008611e34565b611ea4565b92611ee1565b80611fe96007611f00565b9060088210156121c057611ffd911a6108b6565b6120148461200e5f935f1a9361088e565b90611f1c565b53806120206006611f40565b9060088210156121bb57612034911a6108b6565b61204c846120466001935f1a93610980565b90611f1c565b53806120586005611f5f565b9060088210156121b65761206c911a6108b6565b6120848461207e6002935f1a936111af565b90611f1c565b53806120906004611f7e565b9060088210156121b1576120a4911a6108b6565b6120bc846120b66003935f1a93611f9d565b90611f1c565b53806120c86003611f9d565b9060088210156121ac576120dc911a6108b6565b6120f4846120ee6004935f1a93611f7e565b90611f1c565b538061210060026111af565b9060088210156121a757612114911a6108b6565b61212c846121266005935f1a93611f5f565b90611f1c565b53806121386001610980565b9060088210156121a25761214c911a6108b6565b6121648461215e6006935f1a93611f40565b90611f1c565b5361216e5f61088e565b90600882101561219d57612182911a6108b6565b61219a836121946007935f1a93611f00565b90611f1c565b53565b610862565b610862565b610862565b610862565b610862565b610862565b610862565b61086256fea2646970667358221220b2319d6e4e3eb8d91d6364c27dc904f936b80e1688d7d14d4ac2ca174faf490364736f6c637829302e382e33312d646576656c6f702e323032352e31312e31322b636f6d6d69742e3637366264656363005a",
    "linkReferences": {}
  },
  "methodIdentifiers": {
    "deposit(bytes,bytes,bytes,bytes,bytes,bytes32)": "79f6caf5",
    "get_deposit_count()": "621fd130",
    "get_deposit_root()": "c5f2892f",
    "supportsInterface(bytes4)": "01ffc9a7"
  },
  "id": 31
}