{
  "abi": [
    {
      "type": "constructor",
      "inputs": [],
      "stateMutability": "nonpayable"
    },
    {
      "type": "function",
      "name": "deposit",
      "inputs": [
        {
          "name": "node_pubkey",
          "type": "bytes",
          "internalType": "bytes"
        },
        {
          "name": "consensus_pubkey",
          "type": "bytes",
          "internalType": "bytes"
        },
        {
          "name": "withdrawal_credentials",
          "type": "bytes",
          "internalType": "bytes"
        },
        {
          "name": "node_signature",
          "type": "bytes",
          "internalType": "bytes"
        },
        {
          "name": "consensus_signature",
          "type": "bytes",
          "internalType": "bytes"
        },
        {
          "name": "deposit_data_root",
          "type": "bytes32",
          "internalType": "bytes32"
        }
      ],
      "outputs": [],
      "stateMutability": "payable"
    },
    {
      "type": "function",
      "name": "get_deposit_count",
      "inputs": [],
      "outputs": [
        {
          "name": "",
          "type": "bytes",
          "internalType": "bytes"
        }
      ],
      "stateMutability": "view"
    },
    {
      "type": "function",
      "name": "get_deposit_root",
      "inputs": [],
      "outputs": [
        {
          "name": "",
          "type": "bytes32",
          "internalType": "bytes32"
        }
      ],
      "stateMutability": "view"
    },
    {
      "type": "function",
      "name": "supportsInterface",
      "inputs": [
        {
          "name": "interfaceId",
          "type": "bytes4",
          "internalType": "bytes4"
        }
      ],
      "outputs": [
        {
          "name": "",
          "type": "bool",
          "internalType": "bool"
        }
      ],
      "stateMutability": "pure"
    },
    {
      "type": "event",
      "name": "DepositEvent",
      "inputs": [
        {
          "name": "node_pubkey",
          "type": "bytes",
          "indexed": false,
          "internalType": "bytes"
        },
        {
          "name": "consensus_pubkey",
          "type": "bytes",
          "indexed": false,
          "internalType": "bytes"
        },
        {
          "name": "withdrawal_credentials",
          "type": "bytes",
          "indexed": false,
          "internalType": "bytes"
        },
        {
          "name": "amount",
          "type": "bytes",
          "indexed": false,
          "internalType": "bytes"
        },
        {
          "name": "node_signature",
          "type": "bytes",
          "indexed": false,
          "internalType": "bytes"
        },
        {
          "name": "consensus_signature",
          "type": "bytes",
          "indexed": false,
          "internalType": "bytes"
        },
        {
          "name": "index",
          "type": "bytes",
          "indexed": false,
          "internalType": "bytes"
        }
      ],
      "anonymous": false
    }
  ],
  "bytecode": {
    "object": "0x608060405234610027576100116102c9565b61001961002c565b611f686103c38239611f6890f35b610032565b60405190565b5f80fd5b90565b90565b90565b61005361004e61005892610036565b61003c565b610039565b90565b60016100679101610039565b90565b90565b61008161007c6100869261006a565b61003c565b610039565b90565b610093602061006d565b90565b90565b6100ad6100a86100b292610096565b61003c565b610039565b90565b634e487b7160e01b5f52601160045260245ffd5b6100d86100de91939293610039565b92610039565b82039182116100e957565b6100b5565b634e487b7160e01b5f52603260045260245ffd5b50602090565b90565b61011481610102565b82101561012e57610126600191610108565b910201905f90565b6100ee565b1c90565b90565b61014a90600861014f9302610133565b610137565b90565b9061015d915461013a565b90565b90565b90565b61017261017791610160565b610163565b9052565b60208161018d61019593839695610166565b018092610166565b0190565b601f801991011690565b634e487b7160e01b5f52604160045260245ffd5b906101c190610199565b810190811060018060401b038211176101d957604052565b6101a3565b5f1b90565b5190565b905090565b90825f9392825e0152565b61021c6102139260209261020a816101e3565b948580936101e7565b938491016101ec565b0190565b610229916101f7565b90565b61023461002c565b3d5f823e3d90fd5b61024b61025191939293610039565b92610039565b820180921161025c57565b6100b5565b1b90565b9190600861028091029161027a5f1984610261565b92610261565b9181191691161790565b61029390610160565b90565b5f1c90565b6102a490610296565b90565b91906102bd6102b86102c59361028a565b61029b565b908354610265565b9055565b6102d25f61003f565b5b806103006102fa6102f56102e5610089565b6102ef6001610099565b906100c9565b610039565b91610039565b10156103bf5760205f61036f61032161031b6021869061010b565b90610152565b61035e6103396103336021889061010b565b90610152565b9161035061034561002c565b93849288840161017b565b8682018103825203826101b7565b61036661002c565b91829182610220565b039060025afa156103ba576103b5906103b061038b5f516101de565b6103aa60216103a48561039e6001610099565b9061023c565b9061010b565b906102a7565b61005b565b6102d3565b61022c565b5056fe60806040526004361015610013575b6103b4565b61001d5f3561005c565b806301ffc9a714610057578063621fd1301461005257806379f6caf51461004d5763c5f2892f0361000e5761037f565b610327565b610197565b6100e8565b60e01c90565b60405190565b5f80fd5b5f80fd5b5f80fd5b63ffffffff60e01b1690565b61008981610074565b0361009057565b5f80fd5b905035906100a182610080565b565b906020828203126100bc576100b9915f01610094565b90565b61006c565b151590565b6100cf906100c1565b9052565b91906100e6905f602085019401906100c6565b565b34610118576101146101036100fe3660046100a3565b6103bc565b61010b610062565b918291826100d3565b0390f35b610068565b5f91031261012757565b61006c565b5190565b60209181520190565b90825f9392825e0152565b601f801991011690565b61016d61017660209361017b936101648161012c565b93848093610130565b95869101610139565b610144565b0190565b6101949160208201915f81840391015261014e565b90565b346101c7576101a736600461011d565b6101c36101b261046b565b6101ba610062565b9182918261017f565b0390f35b610068565b5f80fd5b5f80fd5b5f80fd5b909182601f830112156102125781359167ffffffffffffffff831161020d57602001926001830284011161020857565b6101d4565b6101d0565b6101cc565b90565b61022381610217565b0361022a57565b5f80fd5b9050359061023b8261021a565b565b9160c08383031261031d575f83013567ffffffffffffffff811161031857826102679185016101d8565b929093602081013567ffffffffffffffff8111610313578261028a9183016101d8565b929093604083013567ffffffffffffffff811161030e57826102ad9185016101d8565b929093606081013567ffffffffffffffff811161030957826102d09183016101d8565b929093608083013567ffffffffffffffff8111610304576102f6836103019286016101d8565b93909460a00161022e565b90565b610070565b610070565b610070565b610070565b610070565b61006c565b5f0190565b61034761033536600461023d565b99989098979197969296959395611213565b61034f610062565b8061035981610322565b0390f35b61036690610217565b9052565b919061037d905f6020850194019061035d565b565b346103af5761038f36600461011d565b6103ab61039a611975565b6103a2610062565b9182918261036a565b0390f35b610068565b5f80fd5b5f90565b6103c46103b8565b50806103df6103d96301ffc9a760e01b610074565b91610074565b149081156103ec575b5090565b9050610407610401636f0dc97560e11b610074565b91610074565b145f6103e8565b606090565b5f1c90565b90565b61042761042c91610413565b610418565b90565b610439905461041b565b90565b90565b67ffffffffffffffff1690565b90565b61046361045e6104689261043c565b61044c565b61043f565b90565b61047361040e565b5061048e610489610484602061042f565b61044f565b611cff565b90565b5090565b90565b6104ac6104a76104b192610495565b61044c565b61043c565b90565b60209181520190565b60207f626b6579206c656e677468000000000000000000000000000000000000000000917f4465706f736974436f6e74726163743a20696e76616c6964206e6f64655f70755f8201520152565b610517602b6040926104b4565b610520816104bd565b0190565b6105399060208101905f81830391015261050a565b90565b1561054357565b61054b610062565b62461bcd60e51b81528061056160048201610524565b0390fd5b90565b61057c61057761058192610565565b61044c565b61043c565b90565b60207f75735f7075626b6579206c656e67746800000000000000000000000000000000917f4465706f736974436f6e74726163743a20696e76616c696420636f6e73656e735f8201520152565b6105de60306040926104b4565b6105e781610584565b0190565b6106009060208101905f8183039101526105d1565b90565b1561060a57565b610612610062565b62461bcd60e51b815280610628600482016105eb565b0390fd5b60207f77616c5f63726564656e7469616c73206c656e67746800000000000000000000917f4465706f736974436f6e74726163743a20696e76616c696420776974686472615f8201520152565b61068660366040926104b4565b61068f8161062c565b0190565b6106a89060208101905f818303910152610679565b90565b156106b257565b6106ba610062565b62461bcd60e51b8152806106d060048201610693565b0390fd5b90565b6106eb6106e66106f0926106d4565b61044c565b61043c565b90565b60207f676e6174757265206c656e677468000000000000000000000000000000000000917f4465706f736974436f6e74726163743a20696e76616c6964206e6f64655f73695f8201520152565b61074d602e6040926104b4565b610756816106f3565b0190565b61076f9060208101905f818303910152610740565b90565b1561077957565b610781610062565b62461bcd60e51b8152806107976004820161075a565b0390fd5b90565b6107b26107ad6107b79261079b565b61044c565b61043c565b90565b60207f75735f7369676e6174757265206c656e67746800000000000000000000000000917f4465706f736974436f6e74726163743a20696e76616c696420636f6e73656e735f8201520152565b61081460336040926104b4565b61081d816107ba565b0190565b6108369060208101905f818303910152610807565b90565b1561084057565b610848610062565b62461bcd60e51b81528061085e60048201610821565b0390fd5b90565b61087961087461087e92610862565b61044c565b61043c565b90565b60207f6f6f206c6f770000000000000000000000000000000000000000000000000000917f4465706f736974436f6e74726163743a206465706f7369742076616c756520745f8201520152565b6108db60266040926104b4565b6108e481610881565b0190565b6108fd9060208101905f8183039101526108ce565b90565b1561090757565b61090f610062565b62461bcd60e51b815280610925600482016108e8565b0390fd5b90565b61094061093b61094592610929565b61044c565b61043c565b90565b634e487b7160e01b5f52601260045260245ffd5b61096861096e9161043c565b9161043c565b908115610979570690565b610948565b90565b61099561099061099a9261097e565b61044c565b61043c565b90565b60207f6f74206d756c7469706c65206f66206777656900000000000000000000000000917f4465706f736974436f6e74726163743a206465706f7369742076616c7565206e5f8201520152565b6109f760336040926104b4565b610a008161099d565b0190565b610a199060208101905f8183039101526109ea565b90565b15610a2357565b610a2b610062565b62461bcd60e51b815280610a4160048201610a04565b0390fd5b634e487b7160e01b5f52601160045260245ffd5b610a65610a6b9161043c565b9161043c565b908115610a76570490565b610948565b610a8f610a8a610a949261043f565b61044c565b61043c565b90565b60207f6f6f206869676800000000000000000000000000000000000000000000000000917f4465706f736974436f6e74726163743a206465706f7369742076616c756520745f8201520152565b610af160276040926104b4565b610afa81610a97565b0190565b610b139060208101905f818303910152610ae4565b90565b15610b1d57565b610b25610062565b62461bcd60e51b815280610b3b60048201610afe565b0390fd5b90825f939282370152565b9190610b6481610b5d81610b6995610130565b8095610b3f565b610144565b0190565b9a969194610bdc96610bb18d610bf89f9d9b9897610bce97610ba3610bea9f9a97610bc09860e08601918683035f880152610b4a565b926020818503910152610b4a565b918d6040818503910152610b4a565b908a820360608c015261014e565b9188830360808a0152610b4a565b9185830360a0870152610b4a565b9160c081840391015261014e565b90565b6fffffffffffffffffffffffffffffffff191690565b60801b90565b610c2b610c26610c309261097e565b610c11565b610bfb565b90565b905090565b909182610c4881610c4f93610c33565b8093610b3f565b0190565b90565b610c62610c6791610bfb565b610c53565b9052565b610c7c9060109493610c8393610c38565b8092610c56565b0190565b634e487b7160e01b5f52604160045260245ffd5b90610ca590610144565b810190811067ffffffffffffffff821117610cbf57604052565b610c87565b5f1b90565b610cee610ce592602092610cdc8161012c565b94858093610c33565b93849101610139565b0190565b610cfb91610cc9565b90565b610d06610062565b3d5f823e3d90fd5b90565b610d1d610d2291610217565b610d0e565b9052565b610d379060209493610d3e93610c38565b8092610d11565b0190565b9091610d4d92610c38565b90565b5f80fd5b5f80fd5b90939293848311610d78578411610d73576001820201920390565b610d54565b610d50565b9091610d8892610c38565b90565b610d9f610d9a610da49261097e565b610cc4565b610217565b90565b610db89060209493610dbf93610c38565b8092610d11565b0190565b602081610dd5610ddd93839695610d11565b018092610d11565b0190565b80610df2602092610df99694610d11565b0191610c38565b90565b67ffffffffffffffff191690565b60401b90565b610e24610e1f610e299261097e565b610e0a565b610dfc565b90565b90565b610e3b610e4091610dfc565b610e2c565b9052565b60209392610e61610e5a601893610e6995610cc9565b8092610e2f565b018092610d11565b0190565b60407f6564206465706f7369745f646174615f726f6f74000000000000000000000000917f4465706f736974436f6e74726163743a207265636f6e737472756374656420445f8201527f65706f7369744461746120646f6573206e6f74206d6174636820737570706c6960208201520152565b610eed60546060926104b4565b610ef681610e6d565b0190565b610f0f9060208101905f818303910152610ee0565b90565b15610f1957565b610f21610062565b62461bcd60e51b815280610f3760048201610efa565b0390fd5b610f456020610498565b90565b90565b610f5f610f5a610f6492610f48565b61044c565b61043c565b90565b610f709061043c565b60ff8111610f7e5760020a90565b610a45565b90565b610f9a610f95610f9f92610f83565b61044c565b61043c565b90565b610fb1610fb79193929361043c565b9261043c565b8203918211610fc257565b610a45565b610fea610fda610fd5610f3b565b610f67565b610fe46001610f86565b90610fa2565b90565b60207f6c00000000000000000000000000000000000000000000000000000000000000917f4465706f736974436f6e74726163743a206d65726b6c6520747265652066756c5f8201520152565b61104760216040926104b4565b61105081610fed565b0190565b6110699060208101905f81830391015261103a565b90565b1561107357565b61107b610062565b62461bcd60e51b81528061109160048201611054565b0390fd5b6110a46110aa9193929361043c565b9261043c565b82018092116110b557565b610a45565b906110c65f1991610cc4565b9181191691161790565b6110e46110df6110e99261043c565b61044c565b61043c565b90565b90565b906111046110ff61110b926110d0565b6110ec565b82546110ba565b9055565b600161111b910161043c565b90565b634e487b7160e01b5f52603260045260245ffd5b50602090565b90565b61114481611132565b82101561115e57611156600191611138565b910201905f90565b61111e565b1b90565b9190600861118291029161117c5f1984611163565b92611163565b9181191691161790565b61119590610217565b90565b6111a190610413565b90565b91906111ba6111b56111c29361118c565b611198565b908354611167565b9055565b1c90565b90565b6111dd9060086111e293026111c6565b6111ca565b90565b906111f091546111cd565b90565b634e487b7160e01b5f52600160045260245ffd5b1561120e57565b6111f3565b9091989495979396929a999a818361122a91610491565b602061123590610498565b9061123f9061043c565b146112499061053c565b898161125491610491565b603061125f90610568565b906112699061043c565b1461127390610603565b878761127e91610491565b602061128990610498565b906112939061043c565b1461129d906106ab565b88846112a891610491565b60406112b3906106d7565b906112bd9061043c565b146112c790610772565b84866112d291610491565b60606112dd9061079e565b906112e79061043c565b146112f190610839565b34670de0b6b3a764000061130490610865565b9061130e9061043c565b101561131990610900565b34633b9aca006113289061092c565b6113319161095c565b5f61133b90610981565b906113459061043c565b1461134f90610a1c565b34633b9aca0061135e9061092c565b61136791610a59565b8067ffffffffffffffff61137a90610a7b565b906113849061043c565b111561138f90610b16565b6113989061044f565b6113a190611cff565b99888a8c858b88928c8c8c89978b99959490919293946113c1602061042f565b6113ca9061044f565b6113d390611cff565b967f0cff1634a9a72df9d813ea7e3a3874a76086e081904ad3cf81e12e43f4d4c87a9b6113fe610062565b9b8c9b61140b9b8d610b6d565b0390a1905f61141990610c17565b91611422610062565b928392602084019261143393610c6b565b6020820181038252036114469082610c9b565b61144e610062565b611459819282610cf2565b03905a915f916002602094fa15611943576114b75f916114a66020946114986114828651610cc4565b93919361148d610062565b948593898501610d26565b868201810382520382610c9b565b6114ae610062565b91829182610cf2565b039060025afa1561193e575f6020916114d08251610cc4565b976114e56114dc610062565b92839283610d42565b039060025afa15611939576114fa5f51610cc4565b9160205f61155361154261151c868660409061151687926106d7565b92610d58565b9190611534611529610062565b938492888401610d7d565b868201810382520382610c9b565b61154a610062565b91829182610cf2565b039060025afa15611934575f6115c96115b86115896020946115758551610cc4565b969061158160406106d7565b908092610d58565b91906115aa61159786610d8b565b61159f610062565b948593898501610da7565b868201810382520382610c9b565b6115c0610062565b91829182610cf2565b039060025afa1561192f575f61161e60209261160d6115e88451610cc4565b916115ff6115f4610062565b938492888401610dc3565b868201810382520382610c9b565b611615610062565b91829182610cf2565b039060025afa1561192a575f61167360209261166261163d8451610cc4565b91611654611649610062565b938492888401610dc3565b868201810382520382610c9b565b61166a610062565b91829182610cf2565b039060025afa15611925576116cb5f916116ba6020946116ac6116968651610cc4565b9791936116a1610062565b948593898501610de1565b868201810382520382610c9b565b6116c2610062565b91829182610cf2565b039060025afa15611920575f61172a6020926117196116ea8451610cc4565b9561170b6116f786610e10565b93611700610062565b948593898501610e44565b868201810382520382610c9b565b611721610062565b91829182610cf2565b039060025afa1561191b575f61177f60209261176e6117498451610cc4565b91611760611755610062565b938492888401610dc3565b868201810382520382610c9b565b611776610062565b91829182610cf2565b039060025afa15611916576117b16117975f51610cc4565b926117ab6117a58592610217565b91610217565b14610f12565b6117dd6117be602061042f565b6117d76117d16117cc610fc7565b61043c565b9161043c565b1061106c565b6118036117fc6117ed6001610f86565b6117f7602061042f565b611095565b60206110ef565b61180d602061042f565b6118165f610981565b925b8361183261182c611827610f3b565b61043c565b9161043c565b101561190757816118436001610f86565b166118576118516001610f86565b9161043c565b146118ed575f6118af60209261189e61187a611874858a9061113b565b906111e5565b611890611885610062565b938492888401610dc3565b868201810382520382610c9b565b6118a6610062565b91829182610cf2565b039060025afa156118e8576118e16118db6118ca5f51610cc4565b926118d56002610f4b565b90610a59565b9361110f565b9290611818565b610cfe565b611905929391506118ff90915f61113b565b906111a4565b565b505090506119145f611207565b565b610cfe565b610cfe565b610cfe565b610cfe565b610cfe565b610cfe565b610cfe565b610cfe565b610cfe565b610cfe565b5f90565b6018939260208261196361196a9461197196610d11565b0190610cc9565b8092610e2f565b0190565b61197d611948565b50611986611948565b90611991602061042f565b61199a5f610981565b925b836119b66119b06119ab610f3b565b61043c565b9161043c565b1015611aed575f602091836119cb6001610f86565b166119df6119d96001610f86565b9161043c565b148214611a7557611a3690611a25611a016119fb858a9061113b565b906111e5565b611a17611a0c610062565b938492888401610dc3565b868201810382520382610c9b565b611a2d610062565b91829182610cf2565b039060025afa15611a7057611a69611a63611a515f51610cc4565b925b611a5d6002610f4b565b90610a59565b9361110f565b929061199c565b610cfe565b611ac790611ab6611a91611a8b60218a9061113b565b906111e5565b91611aa8611a9d610062565b938492888401610dc3565b868201810382520382610c9b565b611abe610062565b91829182610cf2565b039060025afa15611ae857611a69611a63611ae25f51610cc4565b92611a53565b610cfe565b60209293505f9150611b5490611b43611b15611b10611b0b8761042f565b61044f565b611cff565b91611b35611b2286610e10565b611b2a610062565b94859389850161194c565b868201810382520382610c9b565b611b4b610062565b91829182610cf2565b039060025afa15611b6c57611b695f51610cc4565b90565b610cfe565b90565b611b88611b83611b8d92611b71565b61044c565b61043c565b90565b90611ba3611b9c610062565b9283610c9b565b565b67ffffffffffffffff8111611bc357611bbf602091610144565b0190565b610c87565b90611bda611bd583611ba5565b611b90565b918252565b369037565b90611c09611bf183611bc8565b92602080611bff8693611ba5565b9201910390611bdf565b565b67ffffffffffffffff60c01b1690565b60c01b90565b611c35611c30611c3a9261043f565b611c1b565b611c0b565b90565b90565b611c54611c4f611c5992611c3d565b61044c565b61043c565b90565b60f81b90565b90611c6c8261012c565b811015611c7e57600160209102010190565b61111e565b90565b611c9a611c95611c9f92611c83565b61044c565b61043c565b90565b90565b611cb9611cb4611cbe92611ca2565b61044c565b61043c565b90565b90565b611cd8611cd3611cdd92611cc1565b61044c565b61043c565b90565b90565b611cf7611cf2611cfc92611ce0565b61044c565b61043c565b90565b90611d0861040e565b50611d24611d1e611d196008611b74565b611be4565b92611c21565b80611d2f6007611c40565b906008821015611f0657611d43911a611c5c565b611d5a84611d545f935f1a93610981565b90611c62565b5380611d666006611c86565b906008821015611f0157611d7a911a611c5c565b611d9284611d8c6001935f1a93610f86565b90611c62565b5380611d9e6005611ca5565b906008821015611efc57611db2911a611c5c565b611dca84611dc46002935f1a93610f4b565b90611c62565b5380611dd66004611cc4565b906008821015611ef757611dea911a611c5c565b611e0284611dfc6003935f1a93611ce3565b90611c62565b5380611e0e6003611ce3565b906008821015611ef257611e22911a611c5c565b611e3a84611e346004935f1a93611cc4565b90611c62565b5380611e466002610f4b565b906008821015611eed57611e5a911a611c5c565b611e7284611e6c6005935f1a93611ca5565b90611c62565b5380611e7e6001610f86565b906008821015611ee857611e92911a611c5c565b611eaa84611ea46006935f1a93611c86565b90611c62565b53611eb45f610981565b906008821015611ee357611ec8911a611c5c565b611ee083611eda6007935f1a93611c40565b90611c62565b53565b61111e565b61111e565b61111e565b61111e565b61111e565b61111e565b61111e565b61111e56fea2646970667358221220ca0262d847212bbfde67efd9d4e7ec1523824c57912104a5b8ec55097dfedd1864736f6c637829302e382e33312d646576656c6f702e323032352e31312e31322b636f6d6d69742e3637366264656363005a",
    "linkReferences": {}
  },
  "methodIdentifiers": {
    "deposit(bytes,bytes,bytes,bytes,bytes,bytes32)": "79f6caf5",
    "get_deposit_count()": "621fd130",
    "get_deposit_root()": "c5f2892f",
    "supportsInterface(bytes4)": "01ffc9a7"
  },
  "id": 26
}