{
  "abi": [
    {
      "type": "function",
      "name": "checkHasKey",
      "inputs": [
        {
          "name": "_addr",
          "type": "address",
          "internalType": "address"
        }
      ],
      "outputs": [
        {
          "name": "",
          "type": "bool",
          "internalType": "bool"
        }
      ],
      "stateMutability": "view"
    },
    {
      "type": "function",
      "name": "decrypt",
      "inputs": [
        {
          "name": "_encryptedData",
          "type": "bytes",
          "internalType": "bytes"
        }
      ],
      "outputs": [
        {
          "name": "",
          "type": "bytes",
          "internalType": "bytes"
        }
      ],
      "stateMutability": "view"
    },
    {
      "type": "function",
      "name": "encrypt",
      "inputs": [
        {
          "name": "to",
          "type": "address",
          "internalType": "address"
        },
        {
          "name": "_plaintext",
          "type": "bytes",
          "internalType": "bytes"
        }
      ],
      "outputs": [
        {
          "name": "",
          "type": "bytes",
          "internalType": "bytes"
        }
      ],
      "stateMutability": "nonpayable"
    },
    {
      "type": "function",
      "name": "getKey",
      "inputs": [],
      "outputs": [
        {
          "name": "",
          "type": "uint256",
          "internalType": "uint256"
        }
      ],
      "stateMutability": "view"
    },
    {
      "type": "function",
      "name": "keyHash",
      "inputs": [
        {
          "name": "to",
          "type": "address",
          "internalType": "address"
        }
      ],
      "outputs": [
        {
          "name": "",
          "type": "bytes32",
          "internalType": "bytes32"
        }
      ],
      "stateMutability": "view"
    },
    {
      "type": "function",
      "name": "nonce",
      "inputs": [],
      "outputs": [
        {
          "name": "",
          "type": "uint96",
          "internalType": "uint96"
        }
      ],
      "stateMutability": "view"
    },
    {
      "type": "function",
      "name": "packEncryptedData",
      "inputs": [
        {
          "name": "_ciphertext",
          "type": "bytes",
          "internalType": "bytes"
        },
        {
          "name": "_nonce",
          "type": "uint96",
          "internalType": "uint96"
        }
      ],
      "outputs": [
        {
          "name": "",
          "type": "bytes",
          "internalType": "bytes"
        }
      ],
      "stateMutability": "pure"
    },
    {
      "type": "function",
      "name": "parseEncryptedData",
      "inputs": [
        {
          "name": "_encryptedData",
          "type": "bytes",
          "internalType": "bytes"
        }
      ],
      "outputs": [
        {
          "name": "ct",
          "type": "bytes",
          "internalType": "bytes"
        },
        {
          "name": "nce",
          "type": "uint96",
          "internalType": "uint96"
        }
      ],
      "stateMutability": "pure"
    },
    {
      "type": "function",
      "name": "setKey",
      "inputs": [
        {
          "name": "_key",
          "type": "suint256",
          "internalType": "suint256"
        }
      ],
      "outputs": [],
      "stateMutability": "nonpayable"
    },
    {
      "type": "event",
      "name": "KeySet",
      "inputs": [
        {
          "name": "addr",
          "type": "address",
          "indexed": true,
          "internalType": "address"
        }
      ],
      "anonymous": false
    },
    {
      "type": "error",
      "name": "AESPrecompileCallFailed",
      "inputs": []
    }
  ],
  "bytecode": {
    "object": "0x608060405234601c57600e6020565b610fdb61002b8239610fdb90f35b6026565b60405190565b5f80fdfe60806040526004361015610013575b610694565b61001d5f356100ac565b8063210ca7be146100a7578063415028a9146100a257806370df09331461009d57806382678dd6146100985780638b2f9fd114610093578063affed0e01461008e578063b7f5f9b714610089578063e8d6c79a146100845763eefbaf180361000e5761065f565b610604565b6105a8565b61052e565b61048d565b6103d9565b610372565b6102f3565b610245565b60e01c90565b60405190565b5f80fd5b5f80fd5b5f80fd5b5f80fd5b5f80fd5b601f801991011690565b634e487b7160e01b5f52604160045260245ffd5b906100f4906100cc565b810190811067ffffffffffffffff82111761010e57604052565b6100d6565b9061012661011f6100b2565b92836100ea565b565b67ffffffffffffffff8111610146576101426020916100cc565b0190565b6100d6565b90825f939282370152565b9092919261016b61016682610128565b610113565b93818552602085019082840111610187576101859261014b565b565b6100c8565b9080601f830112156101aa578160206101a793359101610156565b90565b6100c4565b906020828203126101df575f82013567ffffffffffffffff81116101da576101d7920161018c565b90565b6100c0565b6100bc565b5190565b60209181520190565b90825f9392825e0152565b61021b61022460209361022993610212816101e4565b938480936101e8565b958691016101f1565b6100cc565b0190565b6102429160208201915f8184039101526101fc565b90565b346102755761027161026061025b3660046101af565b610713565b6102686100b2565b9182918261022d565b0390f35b6100b8565b6bffffffffffffffffffffffff1690565b6102948161027a565b0361029b57565b5f80fd5b905035906102ac8261028b565b565b91906040838203126102ee575f8301359067ffffffffffffffff82116102e9576102dd816102e693860161018c565b9360200161029f565b90565b6100c0565b6100bc565b346103245761032061030f6103093660046102ae565b906107b7565b6103176100b2565b9182918261022d565b0390f35b6100b8565b90565b61033581610329565b0361033c57565b5f80fd5b9050359061034d8261032c565b565b9060208282031261036857610365915f01610340565b90565b6100bc565b5f0190565b346103a05761038a61038536600461034f565b610847565b6103926100b2565b8061039c8161036d565b0390f35b6100b8565b5f9103126103af57565b6100bc565b90565b6103c0906103b4565b9052565b91906103d7905f602085019401906103b7565b565b34610409576103e93660046103a5565b6104056103f46108be565b6103fc6100b2565b918291826103c4565b0390f35b6100b8565b60018060a01b031690565b6104229061040e565b90565b61042e81610419565b0361043557565b5f80fd5b9050359061044682610425565b565b906020828203126104615761045e915f01610439565b90565b6100bc565b151590565b61047490610466565b9052565b919061048b905f6020850194019061046b565b565b346104bd576104b96104a86104a3366004610448565b610908565b6104b06100b2565b91829182610478565b0390f35b6100b8565b1c90565b6bffffffffffffffffffffffff1690565b6104e79060086104ec93026104c2565b6104c6565b90565b906104fa91546104d7565b90565b61050960015f906104ef565b90565b6105159061027a565b9052565b919061052c905f6020850194019061050c565b565b3461055e5761053e3660046103a5565b61055a6105496104fd565b6105516100b2565b91829182610519565b0390f35b6100b8565b9190916040818403126105a35761057c835f8301610439565b92602082013567ffffffffffffffff811161059e5761059b920161018c565b90565b6100c0565b6100bc565b346105d9576105d56105c46105be366004610563565b906109fe565b6105cc6100b2565b9182918261022d565b0390f35b6100b8565b929160206105fa6106029360408701908782035f8901526101fc565b94019061050c565b565b346106355761061c6106173660046101af565b610c1b565b906106316106286100b2565b928392836105de565b0390f35b6100b8565b90565b6106469061063a565b9052565b919061065d905f6020850194019061063d565b565b3461068f5761068b61067a610675366004610448565b610d60565b6106826100b2565b9182918261064a565b0390f35b6100b8565b5f80fd5b606090565b90565b6106b46106af6106b99261040e565b61069d565b61040e565b90565b6106c5906106a0565b90565b6106d1906106bc565b90565b906106de906106c8565b5f5260205260405f2090565b5f1c90565b90565b6106fe610703916106ea565b6106ef565b90565b61071090b06106f2565b90565b61072861074491610722610698565b50610c1b565b9061073c6107375f33906106d4565b610706565b919091610e44565b90565b905090565b6107716107689260209261075f816101e4565b94858093610747565b938491016101f1565b0190565b60a01b90565b61078490610775565b90565b6107936107989161027a565b61077b565b9052565b6107ac6107b391600c949361074c565b8092610787565b0190565b6107ea906107c3610698565b506107db6107cf6100b2565b9384926020840161079c565b602082018103825203826100ea565b90565b5f1b90565b906107fe5f19916107ed565b9181191691161790565b61081c61081761082192610329565b61069d565b610329565b90565b90565b9061083c61083761084392610808565b610824565b82b06107f2565b90b1565b61085b906108565f33906106d4565b610827565b336108867fe09b54ab39b458cc6e350a9444815a294301d94eaa79ba68d8a2f9f9c7c0b4cc916106c8565b9061088f6100b2565b806108998161036d565b0390a2565b5f90565b6108b66108b16108bb92610329565b61069d565b6103b4565b90565b6108c661089e565b506108e26108dd6108d85f33906106d4565b610706565b6108a2565b90565b5f90565b90565b6109006108fb610905926108e9565b61069d565b610329565b90565b61091e610923916109176108e5565b505f6106d4565b610706565b61093d6109376109325f6108ec565b610329565b91610329565b141590565b61094e610953916106ea565b6104c6565b90565b6109609054610942565b90565b634e487b7160e01b5f52601160045260245ffd5b6109809061027a565b6bffffffffffffffffffffffff81146109995760010190565b610963565b906109b56bffffffffffffffffffffffff916107ed565b9181191691161790565b6109d36109ce6109d89261027a565b61069d565b61027a565b90565b90565b906109f36109ee6109fa926109bf565b6109db565b825461099e565b9055565b610a4291610a20610a1b610a3293610a14610698565b505f6106d4565b610706565b90610a2b6001610956565b9091610efd565b610a3c6001610956565b906107b7565b610a5e610a57610a526001610956565b610977565b60016109de565b90565b5f90565b90565b610a7c610a77610a8192610a65565b61069d565b6103b4565b90565b610a93610a99919392936103b4565b926103b4565b8203918211610aa457565b610963565b90610abb610ab683610128565b610113565b918252565b369037565b90610aea610ad283610aa9565b92602080610ae08693610128565b9201910390610ac0565b565b610b00610afb610b05926108e9565b61069d565b6103b4565b90565b6001610b1491016103b4565b90565b634e487b7160e01b5f52603260045260245ffd5b90610b35826101e4565b811015610b4757600160209102010190565b610b17565b60ff60f81b1690565b610b5f9051610b4c565b90565b610b71610b77919392936103b4565b926103b4565b8201809211610b8257565b610963565b60200190565b6bffffffffffffffffffffffff60a01b1690565b610bab9051610b8d565b90565b1b90565b610bcc610bc7610bc1836101e4565b92610b87565b610ba1565b90600c8110610bda575b5090565b610bfa906bffffffffffffffffffffffff60a01b90600c03600802610bae565b165f610bd6565b60a01c90565b610c13610c1891610c01565b6109bf565b90565b90610c24610698565b50610c2d610a61565b50610c4a610c3a836101e4565b610c44600c610a68565b90610a84565b610c5381610ac5565b90610c5d5f610aec565b5b80610c71610c6b846103b4565b916103b4565b1015610ca857610ca390610c8e610c89878390610b2b565b610b55565b610c9d859183905f1a92610b2b565b53610b08565b610c5e565b5092610cbc610cb7600c610a68565b610ac5565b91610cc65f610aec565b5b80610cdb610cd5600c610a68565b916103b4565b1015610d1c57610d1790610d02610cfd85610cf78a8590610b62565b90610b2b565b610b55565b610d11869183905f1a92610b2b565b53610b08565b610cc7565b50935050610d2c610d3191610bb2565b610c07565b90565b5f90565b90565b610d47610d4c91610329565b610d38565b9052565b610d5c81602093610d3b565b0190565b610da4610d81610d7c610d9593610d75610d34565b505f6106d4565b610706565b610d896100b2565b92839160208301610d50565b602082018103825203826100ea565b610db6610db0826101e4565b91610b87565b2090565b91610dd9602084610dd1610de09796600c96610d3b565b018092610787565b019061074c565b90565b90565b610dfa610df5610dff92610de3565b61069d565b61040e565b90565b610e0b90610de6565b90565b610e186067610e02565b90565b3d5f14610e3657610e2b3d610aa9565b903d5f602084013e5b565b610e3e610698565b90610e34565b91610e7e5f9392610e6f8594610e58610698565b509193610e636100b2565b94859360208501610dba565b602082018103825203826100ea565b610e86610e0e565b90602081019051915afa610ea2610e9b610e1b565b9115610466565b610ea95790565b5f63a99eec4b60e01b815280610ec16004820161036d565b0390fd5b90565b610edc610ed7610ee192610ec5565b61069d565b61040e565b90565b610eed90610ec8565b90565b610efa6066610ee4565b90565b91610f375f9392610f288594610f11610698565b509193610f1c6100b2565b94859360208501610dba565b602082018103825203826100ea565b610f3f610ef0565b90602081019051915afa610f5b610f54610e1b565b9115610466565b610f625790565b5f63a99eec4b60e01b815280610f7a6004820161036d565b0390fdfea2646970667358221220a5f899e8bee3638d69a08cc3893765b5dbfc1144d41fea887d3ea1b62a8281c564736f6c637829302e382e33312d646576656c6f702e323032352e31312e31322b636f6d6d69742e3637366264656363005a",
    "linkReferences": {}
  },
  "methodIdentifiers": {
    "checkHasKey(address)": "8b2f9fd1",
    "decrypt(bytes)": "210ca7be",
    "encrypt(address,bytes)": "b7f5f9b7",
    "getKey()": "82678dd6",
    "keyHash(address)": "eefbaf18",
    "nonce()": "affed0e0",
    "packEncryptedData(bytes,uint96)": "415028a9",
    "parseEncryptedData(bytes)": "e8d6c79a",
    "setKey(suint256)": "70df0933"
  },
  "id": 1
}