{
  "abi": [
    {
      "type": "function",
      "name": "INITIAL_OWNER",
      "inputs": [],
      "outputs": [
        {
          "name": "",
          "type": "address",
          "internalType": "address"
        }
      ],
      "stateMutability": "view"
    },
    {
      "type": "function",
      "name": "addKey",
      "inputs": [
        {
          "name": "_key",
          "type": "suint256",
          "internalType": "suint256"
        }
      ],
      "outputs": [],
      "stateMutability": "nonpayable"
    },
    {
      "type": "function",
      "name": "decrypt",
      "inputs": [
        {
          "name": "key",
          "type": "suint256",
          "internalType": "suint256"
        },
        {
          "name": "_encryptedData",
          "type": "bytes",
          "internalType": "bytes"
        }
      ],
      "outputs": [
        {
          "name": "",
          "type": "bytes",
          "internalType": "bytes"
        }
      ],
      "stateMutability": "view"
    },
    {
      "type": "function",
      "name": "encrypt",
      "inputs": [
        {
          "name": "_plaintext",
          "type": "bytes",
          "internalType": "bytes"
        }
      ],
      "outputs": [
        {
          "name": "",
          "type": "bytes32[]",
          "internalType": "bytes32[]"
        },
        {
          "name": "",
          "type": "bytes[]",
          "internalType": "bytes[]"
        }
      ],
      "stateMutability": "nonpayable"
    },
    {
      "type": "function",
      "name": "encryptIdx",
      "inputs": [
        {
          "name": "_keyIdx",
          "type": "uint256",
          "internalType": "uint256"
        },
        {
          "name": "_plaintext",
          "type": "bytes",
          "internalType": "bytes"
        }
      ],
      "outputs": [
        {
          "name": "",
          "type": "bytes",
          "internalType": "bytes"
        }
      ],
      "stateMutability": "nonpayable"
    },
    {
      "type": "function",
      "name": "keyHashes",
      "inputs": [
        {
          "name": "",
          "type": "uint256",
          "internalType": "uint256"
        }
      ],
      "outputs": [
        {
          "name": "",
          "type": "bytes32",
          "internalType": "bytes32"
        }
      ],
      "stateMutability": "view"
    },
    {
      "type": "function",
      "name": "nonce",
      "inputs": [],
      "outputs": [
        {
          "name": "",
          "type": "uint96",
          "internalType": "uint96"
        }
      ],
      "stateMutability": "view"
    },
    {
      "type": "function",
      "name": "numKeys",
      "inputs": [],
      "outputs": [
        {
          "name": "",
          "type": "uint256",
          "internalType": "uint256"
        }
      ],
      "stateMutability": "view"
    },
    {
      "type": "function",
      "name": "owner",
      "inputs": [],
      "outputs": [
        {
          "name": "",
          "type": "address",
          "internalType": "address"
        }
      ],
      "stateMutability": "view"
    },
    {
      "type": "function",
      "name": "removeKey",
      "inputs": [
        {
          "name": "_key",
          "type": "suint256",
          "internalType": "suint256"
        }
      ],
      "outputs": [],
      "stateMutability": "nonpayable"
    },
    {
      "type": "function",
      "name": "transferOwnership",
      "inputs": [
        {
          "name": "newOwner",
          "type": "address",
          "internalType": "address"
        }
      ],
      "outputs": [],
      "stateMutability": "nonpayable"
    },
    {
      "type": "event",
      "name": "OwnershipTransferred",
      "inputs": [
        {
          "name": "user",
          "type": "address",
          "indexed": true,
          "internalType": "address"
        },
        {
          "name": "newOwner",
          "type": "address",
          "indexed": true,
          "internalType": "address"
        }
      ],
      "anonymous": false
    },
    {
      "type": "error",
      "name": "AESPrecompileCallFailed",
      "inputs": []
    }
  ],
  "bytecode": {
    "object": "0x608060405234601c57600e6020565b611b7c61002b8239611b7c90f35b6026565b60405190565b5f80fdfe60806040526004361015610013575b610986565b61001d5f356100cc565b806305eb1ea0146100c757806331b00e46146100c257806384dedf54146100bd5780638da5cb5b146100b8578063a36250d8146100b3578063affed0e0146100ae578063b03e6db7146100a9578063c9d24ecc146100a4578063cab959851461009f578063ee8787d91461009a5763f2fde38b0361000e57610953565b6108dc565b610861565b610795565b610740565b61070b565b61065d565b610605565b610549565b61040b565b61012d565b60e01c90565b60405190565b5f80fd5b5f80fd5b5f80fd5b90565b6100f0816100e4565b036100f757565b5f80fd5b90503590610108826100e7565b565b9060208282031261012357610120915f016100fb565b90565b6100dc565b5f0190565b3461015b5761014561014036600461010a565b610db1565b61014d6100d2565b8061015781610128565b0390f35b6100d8565b5f80fd5b5f80fd5b601f801991011690565b634e487b7160e01b5f52604160045260245ffd5b9061019090610168565b810190811067ffffffffffffffff8211176101aa57604052565b610172565b906101c26101bb6100d2565b9283610186565b565b67ffffffffffffffff81116101e2576101de602091610168565b0190565b610172565b90825f939282370152565b90929192610207610202826101c4565b6101af565b9381855260208501908284011161022357610221926101e7565b565b610164565b9080601f8301121561024657816020610243933591016101f2565b90565b610160565b9060208282031261027b575f82013567ffffffffffffffff8111610276576102739201610228565b90565b6100e0565b6100dc565b5190565b60209181520190565b60200190565b90565b61029f90610293565b9052565b906102b081602093610296565b0190565b60200190565b906102d76102d16102ca84610280565b8093610284565b9261028d565b905f5b8181106102e75750505090565b9091926103006102fa60019286516102a3565b946102b4565b91019190916102da565b5190565b60209181520190565b60200190565b5190565b60209181520190565b90825f9392825e0152565b61035461035d6020936103629361034b8161031d565b93848093610321565b9586910161032a565b610168565b0190565b9061037091610335565b90565b60200190565b9061038d6103868361030a565b809261030e565b908161039e60208302840194610317565b925f915b8383106103b157505050505090565b909192939460206103d36103cd83856001950387528951610366565b97610373565b93019301919392906103a2565b90916103fa6104089360408401908482035f8601526102ba565b916020818403910152610379565b90565b3461043c5761042361041e36600461024b565b610f5a565b9061043861042f6100d2565b928392836103e0565b0390f35b6100d8565b90565b61044d81610441565b0361045457565b5f80fd5b9050359061046582610444565b565b906020828203126104805761047d915f01610458565b90565b6100dc565b634e487b7160e01b5f52603260045260245ffd5b5490565b5f5260205f2090565b6104af81610499565b8210156104c9576104c160019161049d565b910201905f90565b610485565b1c90565b90565b6104e59060086104ea93026104ce565b6104d2565b90565b906104f891546104d5565b90565b600261050681610499565b821015610523576105209161051a916104a6565b906104ed565b90565b5f80fd5b61053090610293565b9052565b9190610547905f60208501940190610527565b565b346105795761057561056461055f366004610467565b6104fb565b61056c6100d2565b91829182610534565b0390f35b6100d8565b5f91031261058857565b6100dc565b60018060a01b031690565b6105a89060086105ad93026104ce565b61058d565b90565b906105bb9154610598565b90565b6105c95f5f906105b0565b90565b60018060a01b031690565b6105e0906105cc565b90565b6105ec906105d7565b9052565b9190610603905f602085019401906105e3565b565b346106355761061536600461057e565b6106316106206105be565b6106286100d2565b918291826105f0565b0390f35b6100d8565b736346d64a3f31774283b72926b75ffda9662266ce90565b61065a61063a565b90565b3461068d5761066d36600461057e565b610689610678610652565b6106806100d2565b918291826105f0565b0390f35b6100d8565b6bffffffffffffffffffffffff1690565b6106b39060086106b893026104ce565b610692565b90565b906106c691546106a3565b90565b6106d560035f906106bb565b90565b6bffffffffffffffffffffffff1690565b6106f2906106d8565b9052565b9190610709905f602085019401906106e9565b565b3461073b5761071b36600461057e565b6107376107266106c9565b61072e6100d2565b918291826106f6565b0390f35b6100d8565b3461076e5761075861075336600461010a565b6112fe565b6107606100d2565b8061076a81610128565b0390f35b6100d8565b61077c90610441565b9052565b9190610793905f60208501940190610773565b565b346107c5576107a536600461057e565b6107c16107b061130d565b6107b86100d2565b91829182610780565b0390f35b6100d8565b91909160408184031261080a576107e3835f8301610458565b92602082013567ffffffffffffffff8111610805576108029201610228565b90565b6100e0565b6100dc565b60209181520190565b6108376108406020936108459361082e8161031d565b9384809361080f565b9586910161032a565b610168565b0190565b61085e9160208201915f818403910152610818565b90565b346108925761088e61087d6108773660046107ca565b906114e4565b6108856100d2565b91829182610849565b0390f35b6100d8565b9190916040818403126108d7576108b0835f83016100fb565b92602082013567ffffffffffffffff81116108d2576108cf9201610228565b90565b6100e0565b6100dc565b3461090d576109096108f86108f2366004610897565b90611689565b6109006100d2565b91829182610849565b0390f35b6100d8565b61091b816105d7565b0361092257565b5f80fd5b9050359061093382610912565b565b9060208282031261094e5761094b915f01610926565b90565b6100dc565b346109815761096b610966366004610935565b6117ed565b6109736100d2565b8061097d81610128565b0390f35b6100d8565b5f80fd5b60209181520190565b5f7f4455504c49434154455f4b455900000000000000000000000000000000000000910152565b6109c7600d60209261098a565b6109d081610993565b0190565b6109e99060208101905f8183039101526109ba565b90565b156109f357565b6109fb6100d2565b62461bcd60e51b815280610a11600482016109d4565b0390fd5b610a4390610a3e610a25826117f8565b610a38610a325f19610441565b91610441565b146109ec565b610b92565b565b5f1c90565b610a56610a5b91610a45565b61058d565b90565b610a689054610a4a565b90565b90565b90565b610a85610a80610a8a92610a6b565b610a6e565b6105cc565b90565b610a9690610a71565b90565b5f1b90565b90610aaf60018060a01b0391610a99565b9181191691161790565b610acd610ac8610ad2926105cc565b610a6e565b6105cc565b90565b610ade90610ab9565b90565b610aea90610ad5565b90565b90565b90610b05610b00610b0c92610ae1565b610aed565b8254610a9e565b9055565b5f7f554e415554484f52495a45440000000000000000000000000000000000000000910152565b610b44600c60209261098a565b610b4d81610b10565b0190565b610b669060208101905f818303910152610b37565b90565b15610b7057565b610b786100d2565b62461bcd60e51b815280610b8e60048201610b51565b0390fd5b610be890610b9f5f610a5e565b610bb9610bb3610bae5f610a8d565b6105d7565b916105d7565b14610bea575b610be333610bdd610bd7610bd25f610a5e565b6105d7565b916105d7565b14610b69565b610d7e565b565b610bfb610bf561063a565b5f610af0565b610bbf565b90565b5f5260205f2090565b5490565b610c1981610c0c565b821015610c3357610c2b600191610c03565b910201905f90565b610485565b1b90565b91906008610c57910291610c515f1984610c38565b92610c38565b9181191691161790565b610c75610c70610c7a926100e4565b610a6e565b6100e4565b90565b90565b9190610c96610c91610c9e93610c61565b610c7d565b9083b0610c3c565b90b1565b9081549168010000000000000000831015610cd25782610cca916001610cd095018155610c10565b90610c80565b565b610172565b90565b5f5260205f2090565b5490565b610cf081610ce3565b821015610d0a57610d02600191610cda565b910201905f90565b610485565b610d1890610293565b90565b610d2490610a45565b90565b9190610d3d610d38610d4593610d0f565b610d1b565b908354610c3c565b9055565b9081549168010000000000000000831015610d795782610d71916001610d7795018155610ce7565b90610d27565b565b610172565b610daf90610d96610d8f6001610c00565b8290610ca2565b610da9610da36002610cd7565b916118a1565b90610d49565b565b610dba90610a15565b565b606090565b606090565b5490565b67ffffffffffffffff8111610de25760208091020190565b610172565b90610df9610df483610dca565b6101af565b918252565b606090565b5f5b828110610e1157505050565b602090610e1c610dfe565b8184015201610e05565b90610e4b610e3383610de7565b92602080610e418693610dca565b9201910390610e03565b565b610e61610e5c610e6692610a6b565b610a6e565b610441565b90565b6001610e759101610441565b90565b90610e828261030a565b811015610e93576020809102010190565b610485565b60209181520190565b610ead610eb291610a45565b6104d2565b90565b610ebf9054610ea1565b90565b60010190565b90610ee5610edf610ed884610499565b8093610e98565b9261049d565b905f5b818110610ef55750505090565b909192610f15610f0f600192610f0a87610eb5565b6102a3565b94610ec2565b9101919091610ee8565b90610f2991610ec8565b90565b90610f4c610f4592610f3c6100d2565b93848092610f1f565b0383610186565b565b610f5790610f2c565b90565b90610f63610dbc565b50610f6c610dc1565b50610f7f610f7a6001610dc6565b610e26565b91610f895f610e4d565b5b80610fa6610fa0610f9b6001610dc6565b610441565b91610441565b1015610fdd5780610fd1610fbe610fd89385906114e4565b868391610fcb8383610e78565b52610e78565b5150610e69565b610f8a565b5050610fe96002610f4e565b9190565b61104390610ffa5f610a5e565b61101461100e6110095f610a8d565b6105d7565b916105d7565b14611045575b61103e3361103861103261102d5f610a5e565b6105d7565b916105d7565b14610b69565b611208565b565b61105661105061063a565b5f610af0565b61101a565b5f7f4b45595f4e4f545f464f554e4400000000000000000000000000000000000000910152565b61108f600d60209261098a565b6110988161105b565b0190565b6110b19060208101905f818303910152611082565b90565b90565b6110cb6110c66110d0926110b4565b610a6e565b610441565b90565b634e487b7160e01b5f52601160045260245ffd5b6110f66110fc91939293610441565b92610441565b820391821161110757565b6110d3565b5f5260205f2090565b61111e81610dc6565b8210156111385761113060019161110c565b910201905f90565b610485565b90565b61115090600861115593026104ce565b61113d565b90565b9061116391b0611140565b90565b634e487b7160e01b5f52603160045260245ffd5b5f90565b6111909161118a61117a565b91610c80565b565b61119b81610c0c565b80156111bc5760019003906111b96111b38383610c10565b9061117e565b55565b611166565b5f90565b6111d7916111d16111c1565b91610d27565b565b6111e281610ce3565b80156112035760019003906112006111fa8383610ce7565b906111c5565b55565b611166565b611211906117f8565b8061122561121f5f19610441565b91610441565b146112dc576112c89061127461126261125c60016112566112466001610dc6565b61125060016110b7565b906110e7565b90611115565b90611158565b61126e60018490611115565b90610c80565b6112866112816001610c00565b611192565b6112c26112ba6112b460026112ae61129e6002610499565b6112a860016110b7565b906110e7565b906104a6565b906104ed565b9160026104a6565b90610d27565b6112da6112d56002610cd7565b6111d9565b565b6112e46100d2565b62461bcd60e51b8152806112fa6004820161109c565b0390fd5b61130790610fed565b565b5f90565b611315611309565b506113206001610dc6565b90565b606090565b61133461133991610a45565b610692565b90565b6113469054611328565b90565b90565b60e01b90565b90929192611367611362826101c4565b6101af565b93818552602085019082840111611383576113819261032a565b565b610164565b9080601f830112156113a6578160206113a393519101611352565b90565b610160565b906020828203126113db575f82015167ffffffffffffffff81116113d6576113d39201611388565b90565b6100e0565b6100dc565b60209181520190565b611408611411602093611416936113ff8161031d565b938480936113e0565b9586910161032a565b610168565b0190565b611423906106d8565b9052565b9291602061144361144b9360408701908782035f8901526113e9565b94019061141a565b565b6114556100d2565b3d5f823e3d90fd5b611466906106d8565b6bffffffffffffffffffffffff811461147f5760010190565b6110d3565b9061149b6bffffffffffffffffffffffff91610a99565b9181191691161790565b6114b96114b46114be926106d8565b610a6e565b6106d8565b90565b90565b906114d96114d46114e0926114a5565b6114c1565b8254611484565b9055565b906114ed611323565b508161150a6115046114ff6001610dc6565b610441565b91610441565b10156115e757611527611521611539936001611115565b90611158565b90611532600361133c565b90916119e5565b5f61155773__$18044092e53cba7c976adc5b73e0e739d9$__611349565b63415028a9929061158361156b600361133c565b9461158e6115776100d2565b9687958694859461134c565b845260048401611427565b03915af49081156115e2575f916115c0575b506115bd6115b66115b1600361133c565b61145d565b60036114c4565b90565b6115dc91503d805f833e6115d48183610186565b8101906113ab565b5f6115a0565b61144d565b6115ef6100d2565b62461bcd60e51b8152806116056004820161109c565b0390fd5b611612816106d8565b0361161957565b5f80fd5b9050519061162a82611609565b565b919060408382031261166c575f8301519067ffffffffffffffff82116116675761165b81611664938601611388565b9360200161161d565b90565b6100e0565b6100dc565b6116869160208201915f8184039101526113e9565b90565b5f6116db92611696611323565b506116b473__$18044092e53cba7c976adc5b73e0e739d9$__611349565b6116d063e8d6c79a6116c46100d2565b9687948593849361134c565b835260048301611671565b03915af4918215611723576116fb925f809290916116fe575b5091611a9e565b90565b905061171c91503d805f833e6117148183610186565b81019061162c565b905f6116f4565b61144d565b61177e906117355f610a5e565b61174f6117496117445f610a8d565b6105d7565b916105d7565b14611780575b6117793361177361176d6117685f610a5e565b6105d7565b916105d7565b14610b69565b611796565b565b61179161178b61063a565b5f610af0565b611755565b6117a0815f610af0565b33906117d56117cf7f8be0079c531659141344cd1fd0a4f28419497f9722a3daafe3b4186f6b6457e093610ae1565b91610ae1565b916117de6100d2565b806117e881610128565b0390a3565b6117f690611728565b565b611800611309565b5061180a5f610e4d565b5b8061182761182161181c6001610dc6565b610441565b91610441565b101561186c5761184261183c60018390611115565b90611158565b61185461184e846100e4565b916100e4565b146118675761186290610e69565b61180b565b905090565b50505f1990565b90565b611882611887916100e4565b611873565b9052565b61189781602093611876565b0190565b60200190565b6118d46118c5916118b06111c1565b506118b96100d2565b9283916020830161188b565b60208201810382520382610186565b6118e66118e08261031d565b9161189b565b2090565b60a01b90565b6118f9906118ea565b90565b61190861190d916106d8565b6118f0565b9052565b905090565b61193b611932926020926119298161031d565b94858093611911565b9384910161032a565b0190565b9161195e6020846119566119659796600c96611876565b0180926118fc565b0190611916565b90565b90565b61197f61197a61198492611968565b610a6e565b6105cc565b90565b6119909061196b565b90565b61199d6066611987565b90565b906119b26119ad836101c4565b6101af565b918252565b3d5f146119d2576119c73d6119a0565b903d5f602084013e5b565b6119da611323565b906119d0565b151590565b91611a1f5f9392611a1085946119f9611323565b509193611a046100d2565b9485936020850161193f565b60208201810382520382610186565b611a27611993565b90602081019051915afa611a43611a3c6119b7565b91156119e0565b611a4a5790565b5f63a99eec4b60e01b815280611a6260048201610128565b0390fd5b90565b611a7d611a78611a8292611a66565b610a6e565b6105cc565b90565b611a8e90611a69565b90565b611a9b6067611a85565b90565b91611ad85f9392611ac98594611ab2611323565b509193611abd6100d2565b9485936020850161193f565b60208201810382520382610186565b611ae0611a91565b90602081019051915afa611afc611af56119b7565b91156119e0565b611b035790565b5f63a99eec4b60e01b815280611b1b60048201610128565b0390fdfea2646970667358221220b550c1070f63e3199622fbbabd1630da8c5a7965cfd20a687018833131e83d0564736f6c637829302e382e33312d646576656c6f702e323032352e31312e31322b636f6d6d69742e3637366264656363005a",
    "linkReferences": {
      "lib/AesLib.sol": {
        "AesLib": [
          {
            "start": 5482,
            "length": 20
          },
          {
            "start": 5831,
            "length": 20
          }
        ]
      }
    }
  },
  "methodIdentifiers": {
    "INITIAL_OWNER()": "a36250d8",
    "addKey(suint256)": "05eb1ea0",
    "decrypt(suint256,bytes)": "ee8787d9",
    "encrypt(bytes)": "31b00e46",
    "encryptIdx(uint256,bytes)": "cab95985",
    "keyHashes(uint256)": "84dedf54",
    "nonce()": "affed0e0",
    "numKeys()": "c9d24ecc",
    "owner()": "8da5cb5b",
    "removeKey(suint256)": "b03e6db7",
    "transferOwnership(address)": "f2fde38b"
  },
  "id": 4
}