{
  "abi": [
    {
      "type": "function",
      "name": "canExecute",
      "inputs": [
        {
          "name": "proposalId",
          "type": "bytes32",
          "internalType": "bytes32"
        }
      ],
      "outputs": [
        {
          "name": "",
          "type": "bool",
          "internalType": "bool"
        }
      ],
      "stateMutability": "view"
    },
    {
      "type": "function",
      "name": "computeProposalIdV1",
      "inputs": [
        {
          "name": "mrtd",
          "type": "bytes",
          "internalType": "bytes"
        },
        {
          "name": "mrseam",
          "type": "bytes",
          "internalType": "bytes"
        },
        {
          "name": "pcr4",
          "type": "bytes",
          "internalType": "bytes"
        },
        {
          "name": "status",
          "type": "bool",
          "internalType": "bool"
        },
        {
          "name": "nonce",
          "type": "uint256",
          "internalType": "uint256"
        }
      ],
      "outputs": [
        {
          "name": "",
          "type": "bytes32",
          "internalType": "bytes32"
        }
      ],
      "stateMutability": "pure"
    },
    {
      "type": "function",
      "name": "createProposalV1",
      "inputs": [
        {
          "name": "mrtd",
          "type": "bytes",
          "internalType": "bytes"
        },
        {
          "name": "mrseam",
          "type": "bytes",
          "internalType": "bytes"
        },
        {
          "name": "pcr4",
          "type": "bytes",
          "internalType": "bytes"
        },
        {
          "name": "status",
          "type": "bool",
          "internalType": "bool"
        }
      ],
      "outputs": [
        {
          "name": "proposalId",
          "type": "bytes32",
          "internalType": "bytes32"
        }
      ],
      "stateMutability": "nonpayable"
    },
    {
      "type": "function",
      "name": "executeProposalV1",
      "inputs": [
        {
          "name": "mrtd",
          "type": "bytes",
          "internalType": "bytes"
        },
        {
          "name": "mrseam",
          "type": "bytes",
          "internalType": "bytes"
        },
        {
          "name": "pcr4",
          "type": "bytes",
          "internalType": "bytes"
        },
        {
          "name": "status",
          "type": "bool",
          "internalType": "bool"
        },
        {
          "name": "nonce",
          "type": "uint256",
          "internalType": "uint256"
        }
      ],
      "outputs": [],
      "stateMutability": "nonpayable"
    },
    {
      "type": "function",
      "name": "executed",
      "inputs": [
        {
          "name": "",
          "type": "bytes32",
          "internalType": "bytes32"
        }
      ],
      "outputs": [
        {
          "name": "",
          "type": "bool",
          "internalType": "bool"
        }
      ],
      "stateMutability": "view"
    },
    {
      "type": "function",
      "name": "getVoteCount",
      "inputs": [
        {
          "name": "proposalId",
          "type": "bytes32",
          "internalType": "bytes32"
        }
      ],
      "outputs": [
        {
          "name": "approvalCount",
          "type": "uint256",
          "internalType": "uint256"
        },
        {
          "name": "totalVotes",
          "type": "uint256",
          "internalType": "uint256"
        }
      ],
      "stateMutability": "view"
    },
    {
      "type": "function",
      "name": "proposalNonce",
      "inputs": [],
      "outputs": [
        {
          "name": "",
          "type": "uint256",
          "internalType": "uint256"
        }
      ],
      "stateMutability": "view"
    },
    {
      "type": "function",
      "name": "signer1",
      "inputs": [],
      "outputs": [
        {
          "name": "",
          "type": "address",
          "internalType": "address"
        }
      ],
      "stateMutability": "view"
    },
    {
      "type": "function",
      "name": "signer2",
      "inputs": [],
      "outputs": [
        {
          "name": "",
          "type": "address",
          "internalType": "address"
        }
      ],
      "stateMutability": "view"
    },
    {
      "type": "function",
      "name": "signer3",
      "inputs": [],
      "outputs": [
        {
          "name": "",
          "type": "address",
          "internalType": "address"
        }
      ],
      "stateMutability": "view"
    },
    {
      "type": "function",
      "name": "upgradeOperator",
      "inputs": [],
      "outputs": [
        {
          "name": "",
          "type": "address",
          "internalType": "contract UpgradeOperator"
        }
      ],
      "stateMutability": "view"
    },
    {
      "type": "function",
      "name": "vote",
      "inputs": [
        {
          "name": "proposalId",
          "type": "bytes32",
          "internalType": "bytes32"
        },
        {
          "name": "approved",
          "type": "bool",
          "internalType": "bool"
        }
      ],
      "outputs": [],
      "stateMutability": "nonpayable"
    },
    {
      "type": "function",
      "name": "votes",
      "inputs": [
        {
          "name": "",
          "type": "bytes32",
          "internalType": "bytes32"
        },
        {
          "name": "",
          "type": "address",
          "internalType": "address"
        }
      ],
      "outputs": [
        {
          "name": "",
          "type": "bool",
          "internalType": "bool"
        }
      ],
      "stateMutability": "view"
    },
    {
      "type": "event",
      "name": "ProposalCreatedV1",
      "inputs": [
        {
          "name": "proposalId",
          "type": "bytes32",
          "indexed": true,
          "internalType": "bytes32"
        },
        {
          "name": "nonce",
          "type": "uint256",
          "indexed": false,
          "internalType": "uint256"
        },
        {
          "name": "mrtd",
          "type": "bytes",
          "indexed": false,
          "internalType": "bytes"
        },
        {
          "name": "mrseam",
          "type": "bytes",
          "indexed": false,
          "internalType": "bytes"
        },
        {
          "name": "pcr4",
          "type": "bytes",
          "indexed": false,
          "internalType": "bytes"
        },
        {
          "name": "status",
          "type": "bool",
          "indexed": false,
          "internalType": "bool"
        }
      ],
      "anonymous": false
    },
    {
      "type": "event",
      "name": "ProposalExecuted",
      "inputs": [
        {
          "name": "proposalId",
          "type": "bytes32",
          "indexed": true,
          "internalType": "bytes32"
        }
      ],
      "anonymous": false
    },
    {
      "type": "event",
      "name": "UpgradeOperatorSet",
      "inputs": [
        {
          "name": "upgradeOperator",
          "type": "address",
          "indexed": true,
          "internalType": "address"
        }
      ],
      "anonymous": false
    },
    {
      "type": "event",
      "name": "VoteCast",
      "inputs": [
        {
          "name": "proposalId",
          "type": "bytes32",
          "indexed": true,
          "internalType": "bytes32"
        },
        {
          "name": "voter",
          "type": "address",
          "indexed": true,
          "internalType": "address"
        },
        {
          "name": "approved",
          "type": "bool",
          "indexed": false,
          "internalType": "bool"
        }
      ],
      "anonymous": false
    }
  ],
  "bytecode": {
    "object": "0x6080604052348015600e575f5ffd5b50611c468061001c5f395ff3fe608060405234801561000f575f5ffd5b50600436106100cd575f3560e01c8063894f449c1161008a578063a169599311610064578063a169599314610225578063a9fcfb3314610256578063cc3c74a114610286578063e28ba034146102a4576100cd565b8063894f449c146101a95780639386775a146101d95780639f2ce67814610209576100cd565b806325c99ae4146100d157806334107282146100ef57806338c0ac5f1461010d5780633eeb92f61461012b5780634456251b1461014957806346a6757714610179575b5f5ffd5b6100d96102c0565b6040516100e69190610ff2565b60405180910390f35b6100f76102d8565b604051610104919061102b565b60405180910390f35b6101156102f0565b604051610122919061102b565b60405180910390f35b610133610308565b604051610140919061102b565b60405180910390f35b610163600480360381019061015e9190611088565b610320565b60405161017091906110cd565b60405180910390f35b610193600480360381019061018e919061127f565b6104e1565b6040516101a09190611359565b60405180910390f35b6101c360048036038101906101be9190611372565b610603565b6040516101d09190611359565b60405180910390f35b6101f360048036038101906101ee9190611454565b61079d565b60405161020091906110cd565b60405180910390f35b610223600480360381019061021e9190611492565b6107c7565b005b61023f600480360381019061023a9190611088565b610a8a565b60405161024d9291906114df565b60405180910390f35b610270600480360381019061026b9190611088565b610c3e565b60405161027d91906110cd565b60405180910390f35b61028e610c5b565b60405161029b9190611506565b60405180910390f35b6102be60048036038101906102b9919061127f565b610c60565b005b73100000000000000000000000000000000000000181565b73f39fd6e51aad88f6f4ce6ab8827279cfffb9226681565b7370997970c51812dc3a010c7d01b50e0d17dc79c881565b733c44cdddb6a900fa2b585dd299e03d12fa4293bc81565b5f60025f8381526020019081526020015f205f9054906101000a900460ff161561034c575f90506104dc565b5f5f905060015f8481526020019081526020015f205f73f39fd6e51aad88f6f4ce6ab8827279cfffb9226673ffffffffffffffffffffffffffffffffffffffff1673ffffffffffffffffffffffffffffffffffffffff1681526020019081526020015f205f9054906101000a900460ff16156103d15780806103cd9061154c565b9150505b60015f8481526020019081526020015f205f7370997970c51812dc3a010c7d01b50e0d17dc79c873ffffffffffffffffffffffffffffffffffffffff1673ffffffffffffffffffffffffffffffffffffffff1681526020019081526020015f205f9054906101000a900460ff161561045257808061044e9061154c565b9150505b60015f8481526020019081526020015f205f733c44cdddb6a900fa2b585dd299e03d12fa4293bc73ffffffffffffffffffffffffffffffffffffffff1673ffffffffffffffffffffffffffffffffffffffff1681526020019081526020015f205f9054906101000a900460ff16156104d35780806104cf9061154c565b9150505b60028110159150505b919050565b5f5f60405180606001604052808881526020018781526020018681525090505f73100000000000000000000000000000000000000173ffffffffffffffffffffffffffffffffffffffff166391fef116836040518263ffffffff1660e01b815260040161054e919061164e565b602060405180830381865afa92505050801561058857506040513d601f19601f820116820180604052508101906105859190611682565b60015b6105c7576040517f08c379a00000000000000000000000000000000000000000000000000000000081526004016105be9061172d565b60405180910390fd5b809150508085856040516020016105e0939291906117d0565b604051602081830303815290604052805190602001209250505095945050505050565b5f6030855114610648576040517f08c379a000000000000000000000000000000000000000000000000000000000815260040161063f90611856565b60405180910390fd5b603084511461068c576040517f08c379a0000000000000000000000000000000000000000000000000000000008152600401610683906118be565b60405180910390fd5b60208351146106d0576040517f08c379a00000000000000000000000000000000000000000000000000000000081526004016106c790611926565b60405180910390fd5b5f5f8154809291906106e19061154c565b91905055506106f4858585855f546104e1565b905060025f8281526020019081526020015f205f9054906101000a900460ff1615610754576040517f08c379a000000000000000000000000000000000000000000000000000000000815260040161074b9061198e565b60405180910390fd5b807fc608a3fb719bb3f084c89497286b28154f3baeaf8b21efd34fafa4bab23daf0c5f548787878760405161078d9594939291906119f4565b60405180910390a2949350505050565b6001602052815f5260405f20602052805f5260405f205f915091509054906101000a900460ff1681565b73f39fd6e51aad88f6f4ce6ab8827279cfffb9226673ffffffffffffffffffffffffffffffffffffffff163373ffffffffffffffffffffffffffffffffffffffff16148061085457507370997970c51812dc3a010c7d01b50e0d17dc79c873ffffffffffffffffffffffffffffffffffffffff163373ffffffffffffffffffffffffffffffffffffffff16145b8061089e5750733c44cdddb6a900fa2b585dd299e03d12fa4293bc73ffffffffffffffffffffffffffffffffffffffff163373ffffffffffffffffffffffffffffffffffffffff16145b6108dd576040517f08c379a00000000000000000000000000000000000000000000000000000000081526004016108d490611aa4565b60405180910390fd5b60025f8381526020019081526020015f205f9054906101000a900460ff161561093b576040517f08c379a00000000000000000000000000000000000000000000000000000000081526004016109329061198e565b60405180910390fd5b60015f8381526020019081526020015f205f3373ffffffffffffffffffffffffffffffffffffffff1673ffffffffffffffffffffffffffffffffffffffff1681526020019081526020015f205f9054906101000a900460ff16156109d4576040517f08c379a00000000000000000000000000000000000000000000000000000000081526004016109cb90611b0c565b60405180910390fd5b8060015f8481526020019081526020015f205f3373ffffffffffffffffffffffffffffffffffffffff1673ffffffffffffffffffffffffffffffffffffffff1681526020019081526020015f205f6101000a81548160ff0219169083151502179055503373ffffffffffffffffffffffffffffffffffffffff16827f8b40665146691327ee30f5bf56e9b2d6f445d2830d3b09b56385cd30f630ecfb83604051610a7e91906110cd565b60405180910390a35050565b5f5f60015f8481526020019081526020015f205f73f39fd6e51aad88f6f4ce6ab8827279cfffb9226673ffffffffffffffffffffffffffffffffffffffff1673ffffffffffffffffffffffffffffffffffffffff1681526020019081526020015f205f9054906101000a900460ff1615610b1b578180610b099061154c565b9250508080610b179061154c565b9150505b60015f8481526020019081526020015f205f7370997970c51812dc3a010c7d01b50e0d17dc79c873ffffffffffffffffffffffffffffffffffffffff1673ffffffffffffffffffffffffffffffffffffffff1681526020019081526020015f205f9054906101000a900460ff1615610baa578180610b989061154c565b9250508080610ba69061154c565b9150505b60015f8481526020019081526020015f205f733c44cdddb6a900fa2b585dd299e03d12fa4293bc73ffffffffffffffffffffffffffffffffffffffff1673ffffffffffffffffffffffffffffffffffffffff1681526020019081526020015f205f9054906101000a900460ff1615610c39578180610c279061154c565b9250508080610c359061154c565b9150505b915091565b6002602052805f5260405f205f915054906101000a900460ff1681565b5f5481565b5f610c6e86868686866104e1565b905060025f8281526020019081526020015f205f9054906101000a900460ff1615610cce576040517f08c379a0000000000000000000000000000000000000000000000000000000008152600401610cc59061198e565b60405180910390fd5b5f5f905060015f8381526020019081526020015f205f73f39fd6e51aad88f6f4ce6ab8827279cfffb9226673ffffffffffffffffffffffffffffffffffffffff1673ffffffffffffffffffffffffffffffffffffffff1681526020019081526020015f205f9054906101000a900460ff1615610d53578080610d4f9061154c565b9150505b60015f8381526020019081526020015f205f7370997970c51812dc3a010c7d01b50e0d17dc79c873ffffffffffffffffffffffffffffffffffffffff1673ffffffffffffffffffffffffffffffffffffffff1681526020019081526020015f205f9054906101000a900460ff1615610dd4578080610dd09061154c565b9150505b60015f8381526020019081526020015f205f733c44cdddb6a900fa2b585dd299e03d12fa4293bc73ffffffffffffffffffffffffffffffffffffffff1673ffffffffffffffffffffffffffffffffffffffff1681526020019081526020015f205f9054906101000a900460ff1615610e55578080610e519061154c565b9150505b6002811015610e99576040517f08c379a0000000000000000000000000000000000000000000000000000000008152600401610e9090611b74565b60405180910390fd5b600160025f8481526020019081526020015f205f6101000a81548160ff02191690831515021790555073100000000000000000000000000000000000000173ffffffffffffffffffffffffffffffffffffffff166344c0b2bf888888886040518563ffffffff1660e01b8152600401610f159493929190611b92565b5f604051808303815f87803b158015610f2c575f5ffd5b505af1158015610f3e573d5f5f3e3d5ffd5b50505050817f7b1bcf1ccf901a11589afff5504d59fd0a53780eed2a952adade0348985139e060405160405180910390a250505050505050565b5f73ffffffffffffffffffffffffffffffffffffffff82169050919050565b5f819050919050565b5f610fba610fb5610fb084610f78565b610f97565b610f78565b9050919050565b5f610fcb82610fa0565b9050919050565b5f610fdc82610fc1565b9050919050565b610fec81610fd2565b82525050565b5f6020820190506110055f830184610fe3565b92915050565b5f61101582610f78565b9050919050565b6110258161100b565b82525050565b5f60208201905061103e5f83018461101c565b92915050565b5f604051905090565b5f5ffd5b5f5ffd5b5f819050919050565b61106781611055565b8114611071575f5ffd5b50565b5f813590506110828161105e565b92915050565b5f6020828403121561109d5761109c61104d565b5b5f6110aa84828501611074565b91505092915050565b5f8115159050919050565b6110c7816110b3565b82525050565b5f6020820190506110e05f8301846110be565b92915050565b5f5ffd5b5f5ffd5b5f601f19601f8301169050919050565b7f4e487b71000000000000000000000000000000000000000000000000000000005f52604160045260245ffd5b611134826110ee565b810181811067ffffffffffffffff82111715611153576111526110fe565b5b80604052505050565b5f611165611044565b9050611171828261112b565b919050565b5f67ffffffffffffffff8211156111905761118f6110fe565b5b611199826110ee565b9050602081019050919050565b828183375f83830152505050565b5f6111c66111c184611176565b61115c565b9050828152602081018484840111156111e2576111e16110ea565b5b6111ed8482856111a6565b509392505050565b5f82601f830112611209576112086110e6565b5b81356112198482602086016111b4565b91505092915050565b61122b816110b3565b8114611235575f5ffd5b50565b5f8135905061124681611222565b92915050565b5f819050919050565b61125e8161124c565b8114611268575f5ffd5b50565b5f8135905061127981611255565b92915050565b5f5f5f5f5f60a086880312156112985761129761104d565b5b5f86013567ffffffffffffffff8111156112b5576112b4611051565b5b6112c1888289016111f5565b955050602086013567ffffffffffffffff8111156112e2576112e1611051565b5b6112ee888289016111f5565b945050604086013567ffffffffffffffff81111561130f5761130e611051565b5b61131b888289016111f5565b935050606061132c88828901611238565b925050608061133d8882890161126b565b9150509295509295909350565b61135381611055565b82525050565b5f60208201905061136c5f83018461134a565b92915050565b5f5f5f5f6080858703121561138a5761138961104d565b5b5f85013567ffffffffffffffff8111156113a7576113a6611051565b5b6113b3878288016111f5565b945050602085013567ffffffffffffffff8111156113d4576113d3611051565b5b6113e0878288016111f5565b935050604085013567ffffffffffffffff81111561140157611400611051565b5b61140d878288016111f5565b925050606061141e87828801611238565b91505092959194509250565b6114338161100b565b811461143d575f5ffd5b50565b5f8135905061144e8161142a565b92915050565b5f5f6040838503121561146a5761146961104d565b5b5f61147785828601611074565b925050602061148885828601611440565b9150509250929050565b5f5f604083850312156114a8576114a761104d565b5b5f6114b585828601611074565b92505060206114c685828601611238565b9150509250929050565b6114d98161124c565b82525050565b5f6040820190506114f25f8301856114d0565b6114ff60208301846114d0565b9392505050565b5f6020820190506115195f8301846114d0565b92915050565b7f4e487b71000000000000000000000000000000000000000000000000000000005f52601160045260245ffd5b5f6115568261124c565b91507fffffffffffffffffffffffffffffffffffffffffffffffffffffffffffffffff82036115885761158761151f565b5b600182019050919050565b5f81519050919050565b5f82825260208201905092915050565b8281835e5f83830152505050565b5f6115c582611593565b6115cf818561159d565b93506115df8185602086016115ad565b6115e8816110ee565b840191505092915050565b5f606083015f8301518482035f86015261160d82826115bb565b9150506020830151848203602086015261162782826115bb565b9150506040830151848203604086015261164182826115bb565b9150508091505092915050565b5f6020820190508181035f83015261166681846115f3565b905092915050565b5f8151905061167c8161105e565b92915050565b5f602082840312156116975761169661104d565b5b5f6116a48482850161166e565b91505092915050565b5f82825260208201905092915050565b7f757067726164654f70657261746f722e636f6d7075746549645631206661696c5f8201527f6564000000000000000000000000000000000000000000000000000000000000602082015250565b5f6117176022836116ad565b9150611722826116bd565b604082019050919050565b5f6020820190508181035f8301526117448161170b565b9050919050565b5f819050919050565b61176561176082611055565b61174b565b82525050565b5f8160f81b9050919050565b5f6117818261176b565b9050919050565b5f61179282611777565b9050919050565b6117aa6117a5826110b3565b611788565b82525050565b5f819050919050565b6117ca6117c58261124c565b6117b0565b82525050565b5f6117db8286611754565b6020820191506117eb8285611799565b6001820191506117fb82846117b9565b602082019150819050949350505050565b7f496e76616c6964206d727464206c656e677468000000000000000000000000005f82015250565b5f6118406013836116ad565b915061184b8261180c565b602082019050919050565b5f6020820190508181035f83015261186d81611834565b9050919050565b7f496e76616c6964206d727365616d206c656e67746800000000000000000000005f82015250565b5f6118a86015836116ad565b91506118b382611874565b602082019050919050565b5f6020820190508181035f8301526118d58161189c565b9050919050565b7f496e76616c69642070637234206c656e677468000000000000000000000000005f82015250565b5f6119106013836116ad565b915061191b826118dc565b602082019050919050565b5f6020820190508181035f83015261193d81611904565b9050919050565b7f50726f706f73616c20616c7265616479206578656375746564000000000000005f82015250565b5f6119786019836116ad565b915061198382611944565b602082019050919050565b5f6020820190508181035f8301526119a58161196c565b9050919050565b5f82825260208201905092915050565b5f6119c682611593565b6119d081856119ac565b93506119e08185602086016115ad565b6119e9816110ee565b840191505092915050565b5f60a082019050611a075f8301886114d0565b8181036020830152611a1981876119bc565b90508181036040830152611a2d81866119bc565b90508181036060830152611a4181856119bc565b9050611a5060808301846110be565b9695505050505050565b7f4e6f7420617574686f72697a656420746f20766f7465000000000000000000005f82015250565b5f611a8e6016836116ad565b9150611a9982611a5a565b602082019050919050565b5f6020820190508181035f830152611abb81611a82565b9050919050565b7f416c726561647920766f746564000000000000000000000000000000000000005f82015250565b5f611af6600d836116ad565b9150611b0182611ac2565b602082019050919050565b5f6020820190508181035f830152611b2381611aea565b9050919050565b7f496e73756666696369656e7420766f74657300000000000000000000000000005f82015250565b5f611b5e6012836116ad565b9150611b6982611b2a565b602082019050919050565b5f6020820190508181035f830152611b8b81611b52565b9050919050565b5f6080820190508181035f830152611baa81876119bc565b90508181036020830152611bbe81866119bc565b90508181036040830152611bd281856119bc565b9050611be160608301846110be565b9594505050505056fea2646970667358221220837a55813643d91c407a5e60ffef62ce498b3d5c6eaeadc4f7f92b2ce4dddabf64736f6c637828302e382e33312d646576656c6f702e323032352e31302e392b636f6d6d69742e34643133626331330059",
    "linkReferences": {}
  },
  "methodIdentifiers": {
    "canExecute(bytes32)": "4456251b",
    "computeProposalIdV1(bytes,bytes,bytes,bool,uint256)": "46a67577",
    "createProposalV1(bytes,bytes,bytes,bool)": "894f449c",
    "executeProposalV1(bytes,bytes,bytes,bool,uint256)": "e28ba034",
    "executed(bytes32)": "a9fcfb33",
    "getVoteCount(bytes32)": "a1695993",
    "proposalNonce()": "cc3c74a1",
    "signer1()": "34107282",
    "signer2()": "38c0ac5f",
    "signer3()": "3eeb92f6",
    "upgradeOperator()": "25c99ae4",
    "vote(bytes32,bool)": "9f2ce678",
    "votes(bytes32,address)": "9386775a"
  },
  "id": 24
}