{
  "abi": [
    {
      "type": "function",
      "name": "canExecute",
      "inputs": [
        {
          "name": "proposalId",
          "type": "bytes32",
          "internalType": "bytes32"
        }
      ],
      "outputs": [
        {
          "name": "",
          "type": "bool",
          "internalType": "bool"
        }
      ],
      "stateMutability": "view"
    },
    {
      "type": "function",
      "name": "computeProposalIdV1",
      "inputs": [
        {
          "name": "mrtd",
          "type": "bytes",
          "internalType": "bytes"
        },
        {
          "name": "mrseam",
          "type": "bytes",
          "internalType": "bytes"
        },
        {
          "name": "pcr4",
          "type": "bytes",
          "internalType": "bytes"
        },
        {
          "name": "status",
          "type": "bool",
          "internalType": "bool"
        },
        {
          "name": "nonce",
          "type": "uint256",
          "internalType": "uint256"
        }
      ],
      "outputs": [
        {
          "name": "",
          "type": "bytes32",
          "internalType": "bytes32"
        }
      ],
      "stateMutability": "pure"
    },
    {
      "type": "function",
      "name": "createProposalV1",
      "inputs": [
        {
          "name": "mrtd",
          "type": "bytes",
          "internalType": "bytes"
        },
        {
          "name": "mrseam",
          "type": "bytes",
          "internalType": "bytes"
        },
        {
          "name": "pcr4",
          "type": "bytes",
          "internalType": "bytes"
        },
        {
          "name": "status",
          "type": "bool",
          "internalType": "bool"
        }
      ],
      "outputs": [
        {
          "name": "proposalId",
          "type": "bytes32",
          "internalType": "bytes32"
        }
      ],
      "stateMutability": "nonpayable"
    },
    {
      "type": "function",
      "name": "executeProposalV1",
      "inputs": [
        {
          "name": "mrtd",
          "type": "bytes",
          "internalType": "bytes"
        },
        {
          "name": "mrseam",
          "type": "bytes",
          "internalType": "bytes"
        },
        {
          "name": "pcr4",
          "type": "bytes",
          "internalType": "bytes"
        },
        {
          "name": "status",
          "type": "bool",
          "internalType": "bool"
        },
        {
          "name": "nonce",
          "type": "uint256",
          "internalType": "uint256"
        }
      ],
      "outputs": [],
      "stateMutability": "nonpayable"
    },
    {
      "type": "function",
      "name": "executed",
      "inputs": [
        {
          "name": "",
          "type": "bytes32",
          "internalType": "bytes32"
        }
      ],
      "outputs": [
        {
          "name": "",
          "type": "bool",
          "internalType": "bool"
        }
      ],
      "stateMutability": "view"
    },
    {
      "type": "function",
      "name": "getVoteCount",
      "inputs": [
        {
          "name": "proposalId",
          "type": "bytes32",
          "internalType": "bytes32"
        }
      ],
      "outputs": [
        {
          "name": "approvalCount",
          "type": "uint256",
          "internalType": "uint256"
        },
        {
          "name": "totalVotes",
          "type": "uint256",
          "internalType": "uint256"
        }
      ],
      "stateMutability": "view"
    },
    {
      "type": "function",
      "name": "proposalNonce",
      "inputs": [],
      "outputs": [
        {
          "name": "",
          "type": "uint256",
          "internalType": "uint256"
        }
      ],
      "stateMutability": "view"
    },
    {
      "type": "function",
      "name": "signer1",
      "inputs": [],
      "outputs": [
        {
          "name": "",
          "type": "address",
          "internalType": "address"
        }
      ],
      "stateMutability": "view"
    },
    {
      "type": "function",
      "name": "signer2",
      "inputs": [],
      "outputs": [
        {
          "name": "",
          "type": "address",
          "internalType": "address"
        }
      ],
      "stateMutability": "view"
    },
    {
      "type": "function",
      "name": "signer3",
      "inputs": [],
      "outputs": [
        {
          "name": "",
          "type": "address",
          "internalType": "address"
        }
      ],
      "stateMutability": "view"
    },
    {
      "type": "function",
      "name": "upgradeOperator",
      "inputs": [],
      "outputs": [
        {
          "name": "",
          "type": "address",
          "internalType": "contract UpgradeOperator"
        }
      ],
      "stateMutability": "view"
    },
    {
      "type": "function",
      "name": "vote",
      "inputs": [
        {
          "name": "proposalId",
          "type": "bytes32",
          "internalType": "bytes32"
        },
        {
          "name": "approved",
          "type": "bool",
          "internalType": "bool"
        }
      ],
      "outputs": [],
      "stateMutability": "nonpayable"
    },
    {
      "type": "function",
      "name": "votes",
      "inputs": [
        {
          "name": "",
          "type": "bytes32",
          "internalType": "bytes32"
        },
        {
          "name": "",
          "type": "address",
          "internalType": "address"
        }
      ],
      "outputs": [
        {
          "name": "",
          "type": "bool",
          "internalType": "bool"
        }
      ],
      "stateMutability": "view"
    },
    {
      "type": "event",
      "name": "ProposalCreatedV1",
      "inputs": [
        {
          "name": "proposalId",
          "type": "bytes32",
          "indexed": true,
          "internalType": "bytes32"
        },
        {
          "name": "nonce",
          "type": "uint256",
          "indexed": false,
          "internalType": "uint256"
        },
        {
          "name": "mrtd",
          "type": "bytes",
          "indexed": false,
          "internalType": "bytes"
        },
        {
          "name": "mrseam",
          "type": "bytes",
          "indexed": false,
          "internalType": "bytes"
        },
        {
          "name": "pcr4",
          "type": "bytes",
          "indexed": false,
          "internalType": "bytes"
        },
        {
          "name": "status",
          "type": "bool",
          "indexed": false,
          "internalType": "bool"
        }
      ],
      "anonymous": false
    },
    {
      "type": "event",
      "name": "ProposalExecuted",
      "inputs": [
        {
          "name": "proposalId",
          "type": "bytes32",
          "indexed": true,
          "internalType": "bytes32"
        }
      ],
      "anonymous": false
    },
    {
      "type": "event",
      "name": "UpgradeOperatorSet",
      "inputs": [
        {
          "name": "upgradeOperator",
          "type": "address",
          "indexed": true,
          "internalType": "address"
        }
      ],
      "anonymous": false
    },
    {
      "type": "event",
      "name": "VoteCast",
      "inputs": [
        {
          "name": "proposalId",
          "type": "bytes32",
          "indexed": true,
          "internalType": "bytes32"
        },
        {
          "name": "voter",
          "type": "address",
          "indexed": true,
          "internalType": "address"
        },
        {
          "name": "approved",
          "type": "bool",
          "indexed": false,
          "internalType": "bool"
        }
      ],
      "anonymous": false
    }
  ],
  "bytecode": {
    "object": "0x608060405234601c57600e6020565b6119c061002b82396119c090f35b6026565b60405190565b5f80fdfe60806040526004361015610013575b6109af565b61001d5f356100ec565b806325c99ae4146100e757806334107282146100e257806338c0ac5f146100dd5780633eeb92f6146100d85780634456251b146100d357806346a67577146100ce578063894f449c146100c95780639386775a146100c45780639f2ce678146100bf578063a1695993146100ba578063a9fcfb33146100b5578063cc3c74a1146100b05763e28ba0340361000e57610978565b610943565b6108c2565b61085d565b6107f9565b610791565b610673565b6105ab565b610382565b6102de565b610286565b61022e565b6101a8565b60e01c90565b60405190565b5f80fd5b5f80fd5b5f91031261010a57565b6100fc565b60018060a01b031690565b90565b61013161012c6101369261010f565b61011a565b61010f565b90565b6101429061011d565b90565b61014e90610139565b90565b610160600180609c1b01610145565b90565b61016b610151565b90565b6101779061011d565b90565b6101839061016e565b90565b61018f9061017a565b9052565b91906101a6905f60208501940190610186565b565b346101d8576101b8366004610100565b6101d46101c3610163565b6101cb6100f2565b91829182610193565b0390f35b6100f8565b73f39fd6e51aad88f6f4ce6ab8827279cfffb9226690565b6101fd6101dd565b90565b6102099061010f565b90565b61021590610200565b9052565b919061022c905f6020850194019061020c565b565b3461025e5761023e366004610100565b61025a6102496101f5565b6102516100f2565b91829182610219565b0390f35b6100f8565b7370997970c51812dc3a010c7d01b50e0d17dc79c890565b610283610263565b90565b346102b657610296366004610100565b6102b26102a161027b565b6102a96100f2565b91829182610219565b0390f35b6100f8565b733c44cdddb6a900fa2b585dd299e03d12fa4293bc90565b6102db6102bb565b90565b3461030e576102ee366004610100565b61030a6102f96102d3565b6103016100f2565b91829182610219565b0390f35b6100f8565b5f80fd5b90565b61032381610317565b0361032a57565b5f80fd5b9050359061033b8261031a565b565b9060208282031261035657610353915f0161032e565b90565b6100fc565b151590565b6103699061035b565b9052565b9190610380905f60208501940190610360565b565b346103b2576103ae61039d61039836600461033d565b610a4b565b6103a56100f2565b9182918261036d565b0390f35b6100f8565b5f80fd5b5f80fd5b601f801991011690565b634e487b7160e01b5f52604160045260245ffd5b906103e7906103bf565b810190811067ffffffffffffffff82111761040157604052565b6103c9565b906104196104126100f2565b92836103dd565b565b67ffffffffffffffff8111610439576104356020916103bf565b0190565b6103c9565b90825f939282370152565b9092919261045e6104598261041b565b610406565b9381855260208501908284011161047a576104789261043e565b565b6103bb565b9080601f8301121561049d5781602061049a93359101610449565b90565b6103b7565b6104ab8161035b565b036104b257565b5f80fd5b905035906104c3826104a2565b565b90565b6104d1816104c5565b036104d857565b5f80fd5b905035906104e9826104c8565b565b919060a083820312610584575f83013567ffffffffffffffff811161057f578161051691850161047f565b92602081013567ffffffffffffffff811161057a578261053791830161047f565b92604082013567ffffffffffffffff81116105755761055b8461057292850161047f565b9361056981606086016104b6565b936080016104dc565b90565b610313565b610313565b610313565b6100fc565b61059290610317565b9052565b91906105a9905f60208501940190610589565b565b346105df576105db6105ca6105c13660046104eb565b93929092610d6a565b6105d26100f2565b91829182610596565b0390f35b6100f8565b60808183031261066e575f81013567ffffffffffffffff8111610669578261060d91830161047f565b92602082013567ffffffffffffffff8111610664578361062e91840161047f565b9260408301359067ffffffffffffffff821161065f576106538161065c93860161047f565b936060016104b6565b90565b610313565b610313565b610313565b6100fc565b346106a7576106a36106926106893660046105e4565b929190916111fc565b61069a6100f2565b91829182610596565b0390f35b6100f8565b6106b581610200565b036106bc57565b5f80fd5b905035906106cd826106ac565b565b91906040838203126106f757806106eb6106f4925f860161032e565b936020016106c0565b90565b6100fc565b61070590610317565b90565b90610712906106fc565b5f5260205260405f2090565b6107279061016e565b90565b906107349061071e565b5f5260205260405f2090565b1c90565b60ff1690565b61075a90600861075f9302610740565b610744565b90565b9061076d915461074a565b90565b61078961078e926107846001935f94610708565b61072a565b610762565b90565b346107c2576107be6107ad6107a73660046106cf565b90610770565b6107b56100f2565b9182918261036d565b0390f35b6100f8565b91906040838203126107ef57806107e36107ec925f860161032e565b936020016104b6565b90565b6100fc565b5f0190565b346108285761081261080c3660046107c7565b90611469565b61081a6100f2565b80610824816107f4565b0390f35b6100f8565b610836906104c5565b9052565b91602061085b92949361085460408201965f83019061082d565b019061082d565b565b3461088e5761087561087036600461033d565b6115aa565b9061088a6108816100f2565b9283928361083a565b0390f35b6100f8565b9061089d906106fc565b5f5260205260405f2090565b6108bf906108ba6002915f92610893565b610762565b90565b346108f2576108ee6108dd6108d836600461033d565b6108a9565b6108e56100f2565b9182918261036d565b0390f35b6100f8565b90565b61090a90600861090f9302610740565b6108f7565b90565b9061091d91546108fa565b90565b61092b5f5f90610912565b90565b9190610941905f6020850194019061082d565b565b3461097357610953366004610100565b61096f61095e610920565b6109666100f2565b9182918261092e565b0390f35b6100f8565b346109aa5761099461098b3660046104eb565b93929092611772565b61099c6100f2565b806109a6816107f4565b0390f35b6100f8565b5f80fd5b5f90565b5f1c90565b6109c86109cd916109b7565b610744565b90565b6109da90546109bc565b90565b90565b6109f46109ef6109f9926109dd565b61011a565b6104c5565b90565b634e487b7160e01b5f52601160045260245ffd5b610a19906104c5565b5f198114610a275760010190565b6109fc565b90565b610a43610a3e610a4892610a2c565b61011a565b6104c5565b90565b610a536109b3565b50610a68610a6360028390610893565b6109d0565b610b4657610a755f6109e0565b90610a9b610a96610a8860018490610708565b610a906101dd565b9061072a565b6109d0565b610b36575b610ac5610ac0610ab260018490610708565b610aba610263565b9061072a565b6109d0565b610b19575b610ae9610adb610aee926001610708565b610ae36102bb565b9061072a565b6109d0565b610b0b575b610b06610b006002610a2f565b916104c5565b101590565b610b1490610a10565b610af3565b90610ae9610adb610b2c610aee93610a10565b9392505050610aca565b90610b4090610a10565b90610aa0565b505f90565b5f90565b610b596060610406565b90565b52565b5f80fd5b60e01b90565b90505190610b768261031a565b565b90602082820312610b9157610b8e915f01610b69565b90565b6100fc565b5190565b60209181520190565b90825f9392825e0152565b610bcd610bd6602093610bdb93610bc481610b96565b93848093610b9a565b95869101610ba3565b6103bf565b0190565b610c22916040610c11610bff606084015f8601518582035f870152610bae565b60208501518482036020860152610bae565b920151906040818403910152610bae565b90565b610c3a9160208201915f818403910152610bdf565b90565b610c456100f2565b3d5f823e3d90fd5b60209181520190565b60207f6564000000000000000000000000000000000000000000000000000000000000917f757067726164654f70657261746f722e636f6d7075746549645631206661696c5f8201520152565b610cb06022604092610c4d565b610cb981610c56565b0190565b610cd29060208101905f818303910152610ca3565b90565b90565b610ce4610ce991610317565b610cd5565b9052565b60f81b90565b610cfc90610ced565b90565b610d0890610cf3565b90565b610d17610d1c9161035b565b610cff565b9052565b90565b610d2f610d34916104c5565b610d20565b9052565b60209392610d588583610d50600195610d6097610cd8565b018092610d0b565b018092610d23565b0190565b60200190565b91610d9a610da39293610d7b610b4b565b5093610d91610d88610b4f565b955f8701610b5c565b60208501610b5c565b60408301610b5c565b90610de96020610db1610b4b565b93610dc2610dbd610151565b61017a565b610dde6391fef116610dd26100f2565b95869485938493610b63565b835260048301610c25565b03915afa80915f92610e78575b50155f14610e6a57506001610e4857610e23610e32925b9193610e176100f2565b94859360208501610d38565b602082018103825203826103dd565b610e44610e3e82610b96565b91610d64565b2090565b610e506100f2565b62461bcd60e51b815280610e6660048201610cbd565b0390fd5b610e329250610e2390610e0d565b610e9a91925060203d8111610ea1575b610e9281836103dd565b810190610b78565b905f610df6565b503d610e88565b90565b610ebf610eba610ec492610ea8565b61011a565b6104c5565b90565b5f7f496e76616c6964206d727464206c656e67746800000000000000000000000000910152565b610efb6013602092610c4d565b610f0481610ec7565b0190565b610f1d9060208101905f818303910152610eee565b90565b15610f2757565b610f2f6100f2565b62461bcd60e51b815280610f4560048201610f08565b0390fd5b5f7f496e76616c6964206d727365616d206c656e6774680000000000000000000000910152565b610f7d6015602092610c4d565b610f8681610f49565b0190565b610f9f9060208101905f818303910152610f70565b90565b15610fa957565b610fb16100f2565b62461bcd60e51b815280610fc760048201610f8a565b0390fd5b90565b610fe2610fdd610fe792610fcb565b61011a565b6104c5565b90565b5f7f496e76616c69642070637234206c656e67746800000000000000000000000000910152565b61101e6013602092610c4d565b61102781610fea565b0190565b6110409060208101905f818303910152611011565b90565b1561104a57565b6110526100f2565b62461bcd60e51b8152806110686004820161102b565b0390fd5b61107861107d916109b7565b6108f7565b90565b61108a905461106c565b90565b5f1b90565b9061109e5f199161108d565b9181191691161790565b6110bc6110b76110c1926104c5565b61011a565b6104c5565b90565b90565b906110dc6110d76110e3926110a8565b6110c4565b8254611092565b9055565b5f7f50726f706f73616c20616c726561647920657865637574656400000000000000910152565b61111b6019602092610c4d565b611124816110e7565b0190565b61113d9060208101905f81830391015261110e565b90565b1561114757565b61114f6100f2565b62461bcd60e51b81528061116560048201611128565b0390fd5b60209181520190565b61119161119a60209361119f9361118881610b96565b93848093611169565b95869101610ba3565b6103bf565b0190565b959492936111e46111fa956111d6896080966111c96111f2975f60a0850194019061082d565b8b820360208d0152611172565b9089820360408b0152611172565b908782036060890152611172565b940190610360565b565b9290611206610b4b565b5061122c61121385610b96565b6112266112206030610eab565b916104c5565b14610f20565b61125161123882610b96565b61124b6112456030610eab565b916104c5565b14610fa2565b61127661125d84610b96565b61127061126a6020610fce565b916104c5565b14611043565b61129061128a6112855f611080565b610a10565b5f6110c7565b6112a784828585916112a15f611080565b93610d6a565b936112cd6112c86112c26112bd60028990610893565b6109d0565b1561035b565b611140565b61131a85936112db5f611080565b9293956113087fc608a3fb719bb3f084c89497286b28154f3baeaf8b21efd34fafa4bab23daf0c966106fc565b966113116100f2565b958695866111a3565b0390a290565b5f7f4e6f7420617574686f72697a656420746f20766f746500000000000000000000910152565b6113546016602092610c4d565b61135d81611320565b0190565b6113769060208101905f818303910152611347565b90565b1561138057565b6113886100f2565b62461bcd60e51b81528061139e60048201611361565b0390fd5b5f7f416c726561647920766f74656400000000000000000000000000000000000000910152565b6113d6600d602092610c4d565b6113df816113a2565b0190565b6113f89060208101905f8183039101526113c9565b90565b1561140257565b61140a6100f2565b62461bcd60e51b815280611420600482016113e3565b0390fd5b9061143060ff9161108d565b9181191691161790565b6114439061035b565b90565b90565b9061145e6114596114659261143a565b611446565b8254611424565b9055565b3361148361147d6114786101dd565b610200565b91610200565b148015611585575b801561155f575b61149b90611379565b6114c06114bb6114b56114b060028590610893565b6109d0565b1561035b565b611140565b6114ef6114ea6114e46114df6114d860018690610708565b339061072a565b6109d0565b1561035b565b6113fb565b61150e8261150961150260018590610708565b339061072a565b611449565b9033909161155a6115486115427f8b40665146691327ee30f5bf56e9b2d6f445d2830d3b09b56385cd30f630ecfb936106fc565b9361071e565b936115516100f2565b9182918261036d565b0390a3565b5061149b3361157d6115776115726102bb565b610200565b91610200565b149050611492565b50336115a061159a611595610263565b610200565b91610200565b1461148b565b5f90565b906115b36115a6565b6115bb6115a6565b926115e16115dc6115ce60018490610708565b6115d66101dd565b9061072a565b6109d0565b61167c575b61160b6116066115f860018490610708565b611600610263565b9061072a565b6109d0565b611655575b61162f611621611634926001610708565b6116296102bb565b9061072a565b6109d0565b61163d575b9190565b61164961164f91610a10565b92610a10565b91611639565b929061162f61162161167261166c61163494610a10565b94610a10565b9592505050611610565b929061168a61169091610a10565b91610a10565b926115e6565b5f7f496e73756666696369656e7420766f7465730000000000000000000000000000910152565b6116ca6012602092610c4d565b6116d381611696565b0190565b6116ec9060208101905f8183039101526116bd565b90565b156116f657565b6116fe6100f2565b62461bcd60e51b815280611714600482016116d7565b0390fd5b5f91031261172257565b6100fc565b9493916117709361175a6117689261174c60609560808b01908b82035f8d0152611172565b9089820360208b0152611172565b908782036040890152611172565b940190610360565b565b919293611786908390838690889293610d6a565b936117ac6117a76117a161179c60028990610893565b6109d0565b1561035b565b611140565b6118506117b85f6109e0565b6117dd6117d86117ca60018a90610708565b6117d26101dd565b9061072a565b6109d0565b611955575b6118076118026117f460018a90610708565b6117fc610263565b9061072a565b6109d0565b611947575b61183161182c61181e60018a90610708565b6118266102bb565b9061072a565b6109d0565b611939575b6118496118436002610a2f565b916104c5565b10156116ef565b611866600161186160028890610893565b611449565b611876611871610151565b61017a565b906344c0b2bf93929490823b15611934575f946118b186926118a69461189a6100f2565b998a9889978896610b63565b865260048601611727565b03925af1801561192f57611903575b506118eb7f7b1bcf1ccf901a11589afff5504d59fd0a53780eed2a952adade0348985139e0916106fc565b906118f46100f2565b806118fe816107f4565b0390a2565b611922905f3d8111611928575b61191a81836103dd565b810190611718565b5f6118c0565b503d611910565b610c3d565b610b5f565b61194290610a10565b611836565b61195090610a10565b61180c565b61195e90610a10565b6117e256fea26469706673582212202d96e5873e9f4e8c9465739f2343b8fa8881d1850ca80037522a66301dbd4bff64736f6c637829302e382e33312d646576656c6f702e323032352e31312e31322b636f6d6d69742e3637366264656363005a",
    "linkReferences": {}
  },
  "methodIdentifiers": {
    "canExecute(bytes32)": "4456251b",
    "computeProposalIdV1(bytes,bytes,bytes,bool,uint256)": "46a67577",
    "createProposalV1(bytes,bytes,bytes,bool)": "894f449c",
    "executeProposalV1(bytes,bytes,bytes,bool,uint256)": "e28ba034",
    "executed(bytes32)": "a9fcfb33",
    "getVoteCount(bytes32)": "a1695993",
    "proposalNonce()": "cc3c74a1",
    "signer1()": "34107282",
    "signer2()": "38c0ac5f",
    "signer3()": "3eeb92f6",
    "upgradeOperator()": "25c99ae4",
    "vote(bytes32,bool)": "9f2ce678",
    "votes(bytes32,address)": "9386775a"
  },
  "id": 27
}