{
  "abi": [
    {
      "type": "constructor",
      "inputs": [],
      "stateMutability": "nonpayable"
    },
    {
      "type": "function",
      "name": "MAX_PARAM_LENGTH",
      "inputs": [],
      "outputs": [
        {
          "name": "",
          "type": "uint256",
          "internalType": "uint256"
        }
      ],
      "stateMutability": "view"
    },
    {
      "type": "function",
      "name": "get_param",
      "inputs": [
        {
          "name": "param_id",
          "type": "uint8",
          "internalType": "uint8"
        }
      ],
      "outputs": [
        {
          "name": "",
          "type": "bytes",
          "internalType": "bytes"
        }
      ],
      "stateMutability": "view"
    },
    {
      "type": "function",
      "name": "has_param",
      "inputs": [
        {
          "name": "param_id",
          "type": "uint8",
          "internalType": "uint8"
        }
      ],
      "outputs": [
        {
          "name": "",
          "type": "bool",
          "internalType": "bool"
        }
      ],
      "stateMutability": "view"
    },
    {
      "type": "function",
      "name": "owner",
      "inputs": [],
      "outputs": [
        {
          "name": "",
          "type": "address",
          "internalType": "address"
        }
      ],
      "stateMutability": "view"
    },
    {
      "type": "function",
      "name": "renounceOwnership",
      "inputs": [],
      "outputs": [],
      "stateMutability": "nonpayable"
    },
    {
      "type": "function",
      "name": "set_param",
      "inputs": [
        {
          "name": "param_id",
          "type": "uint8",
          "internalType": "uint8"
        },
        {
          "name": "param",
          "type": "bytes",
          "internalType": "bytes"
        }
      ],
      "outputs": [],
      "stateMutability": "nonpayable"
    },
    {
      "type": "function",
      "name": "transferOwnership",
      "inputs": [
        {
          "name": "newOwner",
          "type": "address",
          "internalType": "address"
        }
      ],
      "outputs": [],
      "stateMutability": "nonpayable"
    },
    {
      "type": "event",
      "name": "OwnershipTransferred",
      "inputs": [
        {
          "name": "previousOwner",
          "type": "address",
          "indexed": true,
          "internalType": "address"
        },
        {
          "name": "newOwner",
          "type": "address",
          "indexed": true,
          "internalType": "address"
        }
      ],
      "anonymous": false
    },
    {
      "type": "event",
      "name": "ProtocolParamEvent",
      "inputs": [
        {
          "name": "param_id",
          "type": "uint8",
          "indexed": false,
          "internalType": "uint8"
        },
        {
          "name": "param",
          "type": "bytes",
          "indexed": false,
          "internalType": "bytes"
        }
      ],
      "anonymous": false
    },
    {
      "type": "error",
      "name": "OnlyOwner",
      "inputs": []
    },
    {
      "type": "error",
      "name": "ParamTooLarge",
      "inputs": [
        {
          "name": "length",
          "type": "uint256",
          "internalType": "uint256"
        },
        {
          "name": "maxLength",
          "type": "uint256",
          "internalType": "uint256"
        }
      ]
    },
    {
      "type": "error",
      "name": "ZeroAddress",
      "inputs": []
    }
  ],
  "bytecode": {
    "object": "0x608060405234610027576100116100eb565b61001961002c565b610d2061014b8239610d2090f35b610032565b60405190565b5f80fd5b5f1b90565b9061004c60018060a01b0391610036565b9181191691161790565b60018060a01b031690565b90565b61007861007361007d92610056565b610061565b610056565b90565b61008990610064565b90565b61009590610080565b90565b90565b906100b06100ab6100b79261008c565b610098565b825461003b565b9055565b90565b6100d26100cd6100d7926100bb565b610061565b610056565b90565b6100e3906100be565b90565b5f0190565b6100f5335f61009b565b6100fe5f6100da565b3361013261012c7f8be0079c531659141344cd1fd0a4f28419497f9722a3daafe3b4186f6b6457e09361008c565b9161008c565b9161013b61002c565b80610145816100e6565b0390a356fe60806040526004361015610013575b6104ac565b61001d5f3561008c565b80630ae9a1cb146100875780633705765414610082578063715018a61461007d5780638da5cb5b14610078578063b6c15add14610073578063ea01545d1461006e5763f2fde38b0361000e57610479565b610404565b61033e565b6102aa565b6101fb565b6101b2565b610112565b60e01c90565b60405190565b5f80fd5b5f80fd5b5f80fd5b60ff1690565b6100b3816100a4565b036100ba57565b5f80fd5b905035906100cb826100aa565b565b906020828203126100e6576100e3915f016100be565b90565b61009c565b151590565b6100f9906100eb565b9052565b9190610110905f602085019401906100f0565b565b346101425761013e61012d6101283660046100cd565b610550565b610135610092565b918291826100fd565b0390f35b610098565b5190565b60209181520190565b90825f9392825e0152565b601f801991011690565b6101886101916020936101969361017f81610147565b9384809361014b565b95869101610154565b61015f565b0190565b6101af9160208201915f818403910152610169565b90565b346101e2576101de6101cd6101c83660046100cd565b61069d565b6101d5610092565b9182918261019a565b0390f35b610098565b5f9103126101f157565b61009c565b5f0190565b346102295761020b3660046101e7565b610213610836565b61021b610092565b80610225816101f6565b0390f35b610098565b1c90565b60018060a01b031690565b61024d906008610252930261022e565b610232565b90565b90610260915461023d565b90565b61026e5f5f90610255565b90565b60018060a01b031690565b61028590610271565b90565b6102919061027c565b9052565b91906102a8905f60208501940190610288565b565b346102da576102ba3660046101e7565b6102d66102c5610263565b6102cd610092565b91829182610295565b0390f35b610098565b90565b90565b90565b6102fc6102f7610301926102df565b6102e5565b6102e2565b90565b61030e60646102e8565b90565b610319610304565b90565b610325906102e2565b9052565b919061033c905f6020850194019061031c565b565b3461036e5761034e3660046101e7565b61036a610359610311565b610361610092565b91829182610329565b0390f35b610098565b5f80fd5b5f80fd5b5f80fd5b909182601f830112156103b95781359167ffffffffffffffff83116103b45760200192600183028401116103af57565b61037b565b610377565b610373565b9190916040818403126103ff576103d7835f83016100be565b92602082013567ffffffffffffffff81116103fa576103f6920161037f565b9091565b6100a0565b61009c565b346104335761041d6104173660046103be565b91610bca565b610425610092565b8061042f816101f6565b0390f35b610098565b6104418161027c565b0361044857565b5f80fd5b9050359061045982610438565b565b9060208282031261047457610471915f0161044c565b90565b61009c565b346104a75761049161048c36600461045b565b610cb9565b610499610092565b806104a3816101f6565b0390f35b610098565b5f80fd5b5f90565b6104c86104c36104cd926100a4565b6102e5565b6100a4565b90565b906104da906104b4565b5f5260205260405f2090565b634e487b7160e01b5f52602260045260245ffd5b906001600283049216801561051a575b602083101461051557565b6104e6565b91607f169161050a565b61052e90546104fa565b90565b90565b61054861054361054d92610531565b6102e5565b6102e2565b90565b61056761056c9161055f6104b0565b5060016104d0565b610524565b61057e6105785f610534565b916102e2565b1190565b606090565b60209181520190565b5f5260205f2090565b905f92918054906105b36105ac836104fa565b8094610587565b916001811690815f1461060a57506001146105ce575b505050565b6105db9192939450610590565b915f925b8184106105f257505001905f80806105c9565b600181602092959395548486015201910192906105df565b92949550505060ff19168252151560200201905f80806105c9565b9061062f91610599565b90565b634e487b7160e01b5f52604160045260245ffd5b906106509061015f565b810190811067ffffffffffffffff82111761066a57604052565b610632565b9061068f6106889261067f610092565b93848092610625565b0383610646565b565b61069a9061066f565b90565b6106b46106b9916106ac610582565b5060016104d0565b610691565b90565b5f1c90565b6106cd6106d2916106bc565b610232565b90565b6106df90546106c1565b90565b336106fd6106f76106f25f6106d5565b61027c565b9161027c565b0361070c5761070a6107c7565b565b5f635fc483c560e01b815280610724600482016101f6565b0390fd5b61073c61073761074192610531565b6102e5565b610271565b90565b61074d90610728565b90565b5f1b90565b9061076660018060a01b0391610750565b9181191691161790565b61078461077f61078992610271565b6102e5565b610271565b90565b61079590610770565b90565b6107a19061078c565b90565b90565b906107bc6107b76107c392610798565b6107a4565b8254610755565b9055565b6107d05f6106d5565b6107e26107dc5f610744565b5f6107a7565b6107eb5f610744565b61081e6108187f8be0079c531659141344cd1fd0a4f28419497f9722a3daafe3b4186f6b6457e093610798565b91610798565b91610827610092565b80610831816101f6565b0390a3565b61083e6106e2565b565b91903361085d6108576108525f6106d5565b61027c565b9161027c565b0361086d5761086b92610b18565b565b5f635fc483c560e01b815280610885600482016101f6565b0390fd5b5090565b9160206108ae9294936108a760408201965f83019061031c565b019061031c565b565b601f602091010490565b1b90565b919060086108d99102916108d35f19846108ba565b926108ba565b9181191691161790565b6108f76108f26108fc926102e2565b6102e5565b6102e2565b90565b90565b9190610918610913610920936108e3565b6108ff565b9083546108be565b9055565b5f90565b61093a91610934610924565b91610902565b565b5b818110610948575050565b806109555f600193610928565b0161093d565b9190601f811161096b575b505050565b61097761099c93610590565b906020610983846108b0565b830193106109a4575b610995906108b0565b019061093c565b5f8080610966565b91506109958192905061098c565b906109c2905f199060080261022e565b191690565b816109d1916109b2565b906002021790565b916109e49082610889565b9067ffffffffffffffff8211610aa357610a0882610a0285546104fa565b8561095b565b5f90601f8311600114610a3b57918091610a2a935f92610a2f575b50506109c7565b90555b565b90915001355f80610a23565b601f19831691610a4a85610590565b925f5b818110610a8b57509160029391856001969410610a71575b50505002019055610a2d565b610a81910135601f8416906109b2565b90555f8080610a65565b91936020600181928787013581550195019201610a4d565b610632565b90610ab392916109d9565b565b610abe906100a4565b9052565b90825f939282370152565b9190610ae781610ae081610aec9561014b565b8095610ac2565b61015f565b0190565b91610b15939192610b0860408201945f830190610ab5565b6020818503910152610acd565b90565b919091610b26838390610889565b610b3f610b39610b34610304565b6102e2565b916102e2565b11610b9957610b5b838390610b56600185906104d0565b610aa8565b919091610b947f660f700ec25321f4838828ca2284f96109a35e7b652e4511e8235bb7c2b9cc5193610b8b610092565b93849384610af0565b0390a1565b50610ba391610889565b610bab610304565b90610bc65f92839263a7075ceb60e01b84526004840161088d565b0390fd5b90610bd59291610840565b565b33610bf2610bec610be75f6106d5565b61027c565b9161027c565b03610c0257610c0090610c1e565b565b5f635fc483c560e01b815280610c1a600482016101f6565b0390fd5b80610c39610c33610c2e5f610744565b61027c565b9161027c565b14610c9d57610c475f6106d5565b610c51825f6107a7565b90610c85610c7f7f8be0079c531659141344cd1fd0a4f28419497f9722a3daafe3b4186f6b6457e093610798565b91610798565b91610c8e610092565b80610c98816101f6565b0390a3565b5f63d92e233d60e01b815280610cb5600482016101f6565b0390fd5b610cc290610bd7565b56fea2646970667358221220441b2fc6b5144033f76820b0c8fa2708edeb583159e9e9b5ee6a07135997017f64736f6c637828302e382e33312d646576656c6f702e323032362e312e32332b636f6d6d69742e36373662646563630059",
    "linkReferences": {}
  },
  "methodIdentifiers": {
    "MAX_PARAM_LENGTH()": "b6c15add",
    "get_param(uint8)": "37057654",
    "has_param(uint8)": "0ae9a1cb",
    "owner()": "8da5cb5b",
    "renounceOwnership()": "715018a6",
    "set_param(uint8,bytes)": "ea01545d",
    "transferOwnership(address)": "f2fde38b"
  },
  "id": 32
}