{
  "abi": [
    {
      "type": "constructor",
      "inputs": [],
      "stateMutability": "nonpayable"
    },
    {
      "type": "receive",
      "stateMutability": "payable"
    },
    {
      "type": "function",
      "name": "authorizeKey",
      "inputs": [
        {
          "name": "keyType",
          "type": "uint8",
          "internalType": "enum IShieldedDelegationAccount.KeyType"
        },
        {
          "name": "publicKey",
          "type": "bytes",
          "internalType": "bytes"
        },
        {
          "name": "expiry",
          "type": "uint40",
          "internalType": "uint40"
        },
        {
          "name": "limitWei",
          "type": "uint256",
          "internalType": "uint256"
        }
      ],
      "outputs": [
        {
          "name": "idx",
          "type": "uint32",
          "internalType": "uint32"
        }
      ],
      "stateMutability": "nonpayable"
    },
    {
      "type": "function",
      "name": "encrypt",
      "inputs": [
        {
          "name": "plaintext",
          "type": "bytes",
          "internalType": "bytes"
        }
      ],
      "outputs": [
        {
          "name": "nonce",
          "type": "uint96",
          "internalType": "uint96"
        },
        {
          "name": "ciphertext",
          "type": "bytes",
          "internalType": "bytes"
        }
      ],
      "stateMutability": "view"
    },
    {
      "type": "function",
      "name": "execute",
      "inputs": [
        {
          "name": "nonce",
          "type": "uint96",
          "internalType": "uint96"
        },
        {
          "name": "calls",
          "type": "bytes",
          "internalType": "bytes"
        },
        {
          "name": "sig",
          "type": "bytes",
          "internalType": "bytes"
        },
        {
          "name": "idx",
          "type": "uint32",
          "internalType": "uint32"
        }
      ],
      "outputs": [],
      "stateMutability": "payable"
    },
    {
      "type": "function",
      "name": "getDomainSeparator",
      "inputs": [],
      "outputs": [
        {
          "name": "",
          "type": "bytes32",
          "internalType": "bytes32"
        }
      ],
      "stateMutability": "view"
    },
    {
      "type": "function",
      "name": "getKey",
      "inputs": [
        {
          "name": "idx",
          "type": "uint32",
          "internalType": "uint32"
        }
      ],
      "outputs": [
        {
          "name": "",
          "type": "tuple",
          "internalType": "struct IShieldedDelegationAccount.Key",
          "components": [
            {
              "name": "expiry",
              "type": "uint40",
              "internalType": "uint40"
            },
            {
              "name": "keyType",
              "type": "uint8",
              "internalType": "enum IShieldedDelegationAccount.KeyType"
            },
            {
              "name": "isAuthorized",
              "type": "bool",
              "internalType": "bool"
            },
            {
              "name": "publicKey",
              "type": "bytes",
              "internalType": "bytes"
            },
            {
              "name": "spendLimit",
              "type": "uint256",
              "internalType": "uint256"
            },
            {
              "name": "spentWei",
              "type": "uint256",
              "internalType": "uint256"
            },
            {
              "name": "nonce",
              "type": "uint256",
              "internalType": "uint256"
            }
          ]
        }
      ],
      "stateMutability": "view"
    },
    {
      "type": "function",
      "name": "getKeyIndex",
      "inputs": [
        {
          "name": "keyType",
          "type": "uint8",
          "internalType": "enum IShieldedDelegationAccount.KeyType"
        },
        {
          "name": "publicKey",
          "type": "bytes",
          "internalType": "bytes"
        }
      ],
      "outputs": [
        {
          "name": "",
          "type": "uint32",
          "internalType": "uint32"
        }
      ],
      "stateMutability": "view"
    },
    {
      "type": "function",
      "name": "getKeyNonce",
      "inputs": [
        {
          "name": "idx",
          "type": "uint32",
          "internalType": "uint32"
        }
      ],
      "outputs": [
        {
          "name": "",
          "type": "uint256",
          "internalType": "uint256"
        }
      ],
      "stateMutability": "view"
    },
    {
      "type": "function",
      "name": "keyCount",
      "inputs": [],
      "outputs": [
        {
          "name": "",
          "type": "uint256",
          "internalType": "uint256"
        }
      ],
      "stateMutability": "view"
    },
    {
      "type": "function",
      "name": "multiSend",
      "inputs": [
        {
          "name": "transactions",
          "type": "bytes",
          "internalType": "bytes"
        }
      ],
      "outputs": [],
      "stateMutability": "payable"
    },
    {
      "type": "function",
      "name": "revokeKey",
      "inputs": [
        {
          "name": "keyType",
          "type": "uint8",
          "internalType": "enum IShieldedDelegationAccount.KeyType"
        },
        {
          "name": "publicKey",
          "type": "bytes",
          "internalType": "bytes"
        }
      ],
      "outputs": [],
      "stateMutability": "nonpayable"
    },
    {
      "type": "function",
      "name": "setAESKey",
      "inputs": [],
      "outputs": [],
      "stateMutability": "nonpayable"
    },
    {
      "type": "function",
      "name": "verifyAndConsumeNonce",
      "inputs": [
        {
          "name": "idx",
          "type": "uint32",
          "internalType": "uint32"
        },
        {
          "name": "message",
          "type": "bytes",
          "internalType": "bytes"
        },
        {
          "name": "sig",
          "type": "bytes",
          "internalType": "bytes"
        }
      ],
      "outputs": [
        {
          "name": "",
          "type": "bool",
          "internalType": "bool"
        }
      ],
      "stateMutability": "nonpayable"
    },
    {
      "type": "event",
      "name": "KeyAuthorized",
      "inputs": [
        {
          "name": "keyHash",
          "type": "bytes32",
          "indexed": false,
          "internalType": "bytes32"
        },
        {
          "name": "key",
          "type": "tuple",
          "indexed": false,
          "internalType": "struct IShieldedDelegationAccount.Key",
          "components": [
            {
              "name": "expiry",
              "type": "uint40",
              "internalType": "uint40"
            },
            {
              "name": "keyType",
              "type": "uint8",
              "internalType": "enum IShieldedDelegationAccount.KeyType"
            },
            {
              "name": "isAuthorized",
              "type": "bool",
              "internalType": "bool"
            },
            {
              "name": "publicKey",
              "type": "bytes",
              "internalType": "bytes"
            },
            {
              "name": "spendLimit",
              "type": "uint256",
              "internalType": "uint256"
            },
            {
              "name": "spentWei",
              "type": "uint256",
              "internalType": "uint256"
            },
            {
              "name": "nonce",
              "type": "uint256",
              "internalType": "uint256"
            }
          ]
        }
      ],
      "anonymous": false
    },
    {
      "type": "event",
      "name": "KeyRevoked",
      "inputs": [
        {
          "name": "keyHash",
          "type": "bytes32",
          "indexed": false,
          "internalType": "bytes32"
        }
      ],
      "anonymous": false
    },
    {
      "type": "event",
      "name": "Log",
      "inputs": [
        {
          "name": "message",
          "type": "string",
          "indexed": false,
          "internalType": "string"
        }
      ],
      "anonymous": false
    }
  ],
  "bytecode": {
    "object": "0x60a060405234801561000f575f5ffd5b507f8b73c3c69bb8fe3d512ecc4cf759cc79239f7b179b0ffacaa9a75d522b39400f6040518060400160405280601981526020017f536869656c64656444656c65676174696f6e4163636f756e7400000000000000815250805190602001206040518060400160405280600181526020017f31000000000000000000000000000000000000000000000000000000000000008152508051906020012046306040516020016100c1959493929190610152565b60405160208183030381529060405280519060200120608081815250506101a3565b5f819050919050565b6100f5816100e3565b82525050565b5f819050919050565b61010d816100fb565b82525050565b5f73ffffffffffffffffffffffffffffffffffffffff82169050919050565b5f61013c82610113565b9050919050565b61014c81610132565b82525050565b5f60a0820190506101655f8301886100ec565b61017260208301876100ec565b61017f60408301866100ec565b61018c6060830185610104565b6101996080830184610143565b9695505050505050565b60805161401d6101c25f395f8181610f1601526117fc015261401d5ff3fe6080604052600436106100aa575f3560e01c80638730d33b116100635780638730d33b146101fe5780638d80ff0a14610226578063a85f5c3714610242578063c9e6db8e14610258578063ed24911d14610294578063fac750e0146102be576100b1565b80630e292a29146100b55780632cc06b1e146100f15780632f1d79031461012d57806331b00e46146101695780635e677dd0146101a657806368eddae7146101e2576100b1565b366100b157005b5f5ffd5b3480156100c0575f5ffd5b506100db60048036038101906100d691906126cf565b6102e8565b6040516100e8919061277a565b60405180910390f35b3480156100fc575f5ffd5b5061011760048036038101906101129190612823565b6105e8565b60405161012491906128b6565b60405180910390f35b348015610138575f5ffd5b50610153600480360381019061014e91906128cf565b6108b7565b6040516101609190612aa3565b60405180910390f35b348015610174575f5ffd5b5061018f600480360381019061018a9190612ac3565b610a35565b60405161019d929190612b7c565b60405180910390f35b3480156101b1575f5ffd5b506101cc60048036038101906101c79190612cd2565b610ac8565b6040516101d991906128b6565b60405180910390f35b6101fc60048036038101906101f79190612d56565b610c61565b005b348015610209575f5ffd5b50610224600480360381019061021f9190612df9565b611154565b005b610240600480360381019061023b9190612e56565b611628565b005b34801561024d575f5ffd5b506102566116b3565b005b348015610263575f5ffd5b5061027e600480360381019061027991906128cf565b6117b2565b60405161028b9190612eac565b60405180910390f35b34801561029f575f5ffd5b506102a86117f9565b6040516102b59190612edd565b60405180910390f35b3480156102c9575f5ffd5b506102d2611820565b6040516102df9190612eac565b60405180910390f35b5f5f6102f2611835565b6002016001886103029190612f23565b63ffffffff168154811061031957610318612f5a565b5b905f5260205f209060050201905042815f015f9054906101000a900464ffffffffff1664ffffffffff1611610383576040517f08c379a000000000000000000000000000000000000000000000000000000000815260040161037a90612fe1565b60405180910390fd5b610427815f0160059054906101000a900460ff168260010180546103a69061302c565b80601f01602080910402602001604051908101604052809291908181526020018280546103d29061302c565b801561041d5780601f106103f45761010080835404028352916020019161041d565b820191905f5260205f20905b81548152906001019060200180831161040057829003601f168201915b5050505050610ac8565b63ffffffff168763ffffffff1614610474576040517f08c379a000000000000000000000000000000000000000000000000000000000815260040161046b906130a6565b60405180910390fd5b5f61047d6117f9565b90505f6104d2836004015489898080601f0160208091040260200160405190810160405280939291908181526020018383808284375f81840152601f19601f820116905080830192505050505050508461186f565b90505f61057c845f0160059054906101000a900460ff168560010180546104f89061302c565b80601f01602080910402602001604051908101604052809291908181526020018280546105249061302c565b801561056f5780601f106105465761010080835404028352916020019161056f565b820191905f5260205f20905b81548152906001019060200180831161055257829003601f168201915b5050505050848a8a6118fd565b9050806105be576040517f08c379a00000000000000000000000000000000000000000000000000000000081526004016105b59061310e565b60405180910390fd5b836004015f8154809291906105d29061312c565b9190505550600194505050505095945050505050565b5f3073ffffffffffffffffffffffffffffffffffffffff163373ffffffffffffffffffffffffffffffffffffffff1614610657576040517f08c379a000000000000000000000000000000000000000000000000000000000815260040161064e906131bd565b60405180910390fd5b5f610660611835565b90505f6040518060e001604052808664ffffffffff16815260200189600281111561068e5761068d612909565b5b815260200160011515815260200188888080601f0160208091040260200160405190810160405280939291908181526020018383808284375f81840152601f19601f8201169050808301925050505050505081526020018581526020015f81526020015f8152509050816002018054905092508160020181908060018154018082558091505060019003905f5260205f2090600502015f909190919091505f820151815f015f6101000a81548164ffffffffff021916908364ffffffffff1602179055506020820151815f0160056101000a81548160ff0219169083600281111561077c5761077b612909565b5b02179055506040820151815f0160066101000a81548160ff02191690831515021790555060608201518160010190816107b5919061337b565b506080820151816002015560a0820151816003015560c0820151816004015550505f6108248989898080601f0160208091040260200160405190810160405280939291908181526020018383808284375f81840152601f19601f82011690508083019250505050505050611a73565b9050600184610833919061344a565b836003015f8381526020019081526020015f205f6101000a81548163ffffffff021916908363ffffffff1602179055507f4ea58b0cfbd7dbef4ca1db95d39abfddd4b9a1614dbd63cfb36d3b132e4589d78183604051610894929190613481565b60405180910390a16001846108a9919061344a565b935050505095945050505050565b6108bf612548565b6108c7611835565b6002016001836108d79190612f23565b63ffffffff16815481106108ee576108ed612f5a565b5b905f5260205f2090600502016040518060e00160405290815f82015f9054906101000a900464ffffffffff1664ffffffffff1664ffffffffff1681526020015f820160059054906101000a900460ff1660028111156109505761094f612909565b5b600281111561096257610961612909565b5b81526020015f820160069054906101000a900460ff161515151581526020016001820180546109909061302c565b80601f01602080910402602001604051908101604052809291908181526020018280546109bc9061302c565b8015610a075780601f106109de57610100808354040283529160200191610a07565b820191905f5260205f20905b8154815290600101906020018083116109ea57829003601f168201915b5050505050815260200160028201548152602001600382015481526020016004820154815250509050919050565b5f6060610a40611abe565b91505b5f826bffffffffffffffffffffffff1603610a6757610a60611abe565b9150610a43565b610abf610a72611835565b5f01b08386868080601f0160208091040260200160405190810160405280939291908181526020018383808284375f81840152601f19601f82011690508083019250505050505050611b9c565b90509250929050565b5f5f610ad2611835565b90505f610adf8585611a73565b90505f826003015f8381526020019081526020015f205f9054906101000a900463ffffffff1690505f8163ffffffff1603610b4f576040517f08c379a0000000000000000000000000000000000000000000000000000000008152600401610b46906134f9565b60405180910390fd5b856002811115610b6257610b61612909565b5b83600201600183610b739190612f23565b63ffffffff1681548110610b8a57610b89612f5a565b5b905f5260205f2090600502015f0160059054906101000a900460ff166002811115610bb857610bb7612909565b5b148015610c165750848051906020012083600201600183610bd99190612f23565b63ffffffff1681548110610bf057610bef612f5a565b5b905f5260205f209060050201600101604051610c0c91906135a1565b6040518091039020145b610c55576040517f08c379a0000000000000000000000000000000000000000000000000000000008152600401610c4c90613601565b60405180910390fd5b80935050505092915050565b5f610c6a611835565b905060603073ffffffffffffffffffffffffffffffffffffffff163373ffffffffffffffffffffffffffffffffffffffff1603610d21575f886bffffffffffffffffffffffff1603610d015786868080601f0160208091040260200160405190810160405280939291908181526020018383808284375f81840152601f19601f820116905080830192505050505050509050610d13565b610d10825f01b0898989611cbf565b90505b610d1c81611628565b61114a565b5f82600201600185610d339190612f23565b63ffffffff1681548110610d4a57610d49612f5a565b5b905f5260205f209060050201905042815f015f9054906101000a900464ffffffffff1664ffffffffff1611610db4576040517f08c379a0000000000000000000000000000000000000000000000000000000008152600401610dab90612fe1565b60405180910390fd5b826003015f610e5d835f0160059054906101000a900460ff16846001018054610ddc9061302c565b80601f0160208091040260200160405190810160405280929190818152602001828054610e089061302c565b8015610e535780601f10610e2a57610100808354040283529160200191610e53565b820191905f5260205f20905b815481529060010190602001808311610e3657829003601f168201915b5050505050611a73565b81526020019081526020015f205f9054906101000a900463ffffffff1663ffffffff168463ffffffff1614610ec7576040517f08c379a0000000000000000000000000000000000000000000000000000000008152600401610ebe906130a6565b60405180910390fd5b5f610f3a82600401548a8a8080601f0160208091040260200160405190810160405280939291908181526020018383808284375f81840152601f19601f820116905080830192505050505050507f000000000000000000000000000000000000000000000000000000000000000061186f565b90505f610fe4835f0160059054906101000a900460ff16846001018054610f609061302c565b80601f0160208091040260200160405190810160405280929190818152602001828054610f8c9061302c565b8015610fd75780601f10610fae57610100808354040283529160200191610fd7565b820191905f5260205f20905b815481529060010190602001808311610fba57829003601f168201915b5050505050848b8b6118fd565b905080611026576040517f08c379a000000000000000000000000000000000000000000000000000000000815260040161101d90613669565b60405180910390fd5b5f8b6bffffffffffffffffffffffff16036110865789898080601f0160208091040260200160405190810160405280939291908181526020018383808284375f81840152601f19601f820116905080830192505050505050509350611098565b611095855f01b08c8c8c611cbf565b93505b5f5f90505f846002015414611123576110b085611de7565b905083600201548185600301546110c79190613687565b1115611108576040517f08c379a00000000000000000000000000000000000000000000000000000000081526004016110ff90613704565b60405180910390fd5b80846003015f82825461111b9190613687565b925050819055505b836004015f8154809291906111379061312c565b919050555061114585611628565b505050505b5050505050505050565b3073ffffffffffffffffffffffffffffffffffffffff163373ffffffffffffffffffffffffffffffffffffffff16146111c2576040517f08c379a00000000000000000000000000000000000000000000000000000000081526004016111b9906131bd565b60405180910390fd5b5f6111cb611835565b90505f61121b8585858080601f0160208091040260200160405190810160405280939291908181526020018383808284375f81840152601f19601f82011690508083019250505050505050611a73565b90505f826003015f8381526020019081526020015f205f9054906101000a900463ffffffff1690505f8163ffffffff160361128b576040517f08c379a0000000000000000000000000000000000000000000000000000000008152600401611282906134f9565b60405180910390fd5b5f836002018054905090508063ffffffff168263ffffffff1614611538575f846002016001836112bb9190612f23565b63ffffffff16815481106112d2576112d1612f5a565b5b905f5260205f2090600502016040518060e00160405290815f82015f9054906101000a900464ffffffffff1664ffffffffff1664ffffffffff1681526020015f820160059054906101000a900460ff16600281111561133457611333612909565b5b600281111561134657611345612909565b5b81526020015f820160069054906101000a900460ff161515151581526020016001820180546113749061302c565b80601f01602080910402602001604051908101604052809291908181526020018280546113a09061302c565b80156113eb5780601f106113c2576101008083540402835291602001916113eb565b820191905f5260205f20905b8154815290600101906020018083116113ce57829003601f168201915b505050505081526020016002820154815260200160038201548152602001600482015481525050905080856002016001856114269190612f23565b63ffffffff168154811061143d5761143c612f5a565b5b905f5260205f2090600502015f820151815f015f6101000a81548164ffffffffff021916908364ffffffffff1602179055506020820151815f0160056101000a81548160ff0219169083600281111561149957611498612909565b5b02179055506040820151815f0160066101000a81548160ff02191690831515021790555060608201518160010190816114d2919061337b565b506080820151816002015560a0820151816003015560c0820151816004015590505082856003015f61150c84602001518560600151611a73565b81526020019081526020015f205f6101000a81548163ffffffff021916908363ffffffff160217905550505b8360020180548061154c5761154b613722565b5b600190038181905f5260205f2090600502015f5f82015f6101000a81549064ffffffffff02191690555f820160056101000a81549060ff02191690555f820160066101000a81549060ff0219169055600182015f6115aa919061259a565b600282015f9055600382015f9055600482015f905550509055836003015f8481526020019081526020015f205f6101000a81549063ffffffff02191690557fd76dbee353f8817df12bf008d3fec1c2f26c9afc1e832f74757756b060b25f82836040516116179190612edd565b60405180910390a150505050505050565b805160205b818110156116ae578083015160f81c6001820184015160601c308115028117905060158301850151603584018601516055850187015f855f811461167857600181146116875761168b565b5f5f8585888a5af1915061168b565b5f5ffd5b505f810361169b573d5f5f3e3d5ffd5b826055018701965050505050505061162d565b505050565b3073ffffffffffffffffffffffffffffffffffffffff163373ffffffffffffffffffffffffffffffffffffffff1614611721576040517f08c379a0000000000000000000000000000000000000000000000000000000008152600401611718906131bd565b60405180910390fd5b611729611835565b6001015f9054906101000a900460ff1615611779576040517f08c379a000000000000000000000000000000000000000000000000000000000815260040161177090613799565b60405180910390fd5b5f611782611835565b905061178c611f24565b815f018190b1506001816001015f6101000a81548160ff02191690831515021790555050565b5f6117bb611835565b6002016001836117cb9190612f23565b63ffffffff16815481106117e2576117e1612f5a565b5b905f5260205f209060050201600401549050919050565b5f7f0000000000000000000000000000000000000000000000000000000000000000905090565b5f611829611835565b60020180549050905090565b5f5f7f2a2cc7db52019c9ff565d289628faa407289ea9f1a3741cac1acd5fa3e843b6360b81c68ffffffffffffffffff1690508091505090565b5f5f7f9bb939585d47b76d88b01231eb395b17e90aab08b4c65e93bb1425c9708dbab790505f818686805190602001206040516020016118b1939291906137b7565b60405160208183030381529060405280519060200120905083816040516020016118dc929190613860565b60405160208183030381529060405280519060200120925050509392505050565b5f5f600281111561191157611910612909565b5b86600281111561192457611923612909565b5b03611960575f5f6119358585612071565b915091505f5f6119448961208e565b9150915061195588858585856120ad565b945050505050611a6a565b6001600281111561197457611973612909565b5b86600281111561198757611986612909565b5b03611a1b575f5f6119978761208e565b91509150611a12866040516020016119af9190612edd565b6040516020818303038152906040525f611a0b88888080601f0160208091040260200160405190810160405280939291908181526020018383808284375f81840152601f19601f82011690508083019250505050505050612148565b8585612204565b92505050611a69565b600280811115611a2e57611a2d612909565b5b866002811115611a4157611a40612909565b5b03611a6857611a6585806020019051810190611a5d91906138f0565b85858561233d565b90505b5b5b95945050505050565b5f826002811115611a8757611a86612909565b5b8280519060200120604051602001611aa092919061395b565b60405160208183030381529060405280519060200120905092915050565b5f5f5f606473ffffffffffffffffffffffffffffffffffffffff166020604051602001611aeb91906139ba565b604051602081830303815290604052604051611b079190613a04565b5f60405180830381855afa9150503d805f8114611b3f576040519150601f19603f3d011682016040523d82523d5f602084013e611b44565b606091505b509150915081611b89576040517f08c379a0000000000000000000000000000000000000000000000000000000008152600401611b8090613a64565b60405180910390fd5b5f60208201519050805f1c935050505090565b60605f848484604051602001611bb493929190613adf565b60405160208183030381529060405290505f5f606673ffffffffffffffffffffffffffffffffffffffff1683604051611bed9190613a04565b5f60405180830381855afa9150503d805f8114611c25576040519150601f19603f3d011682016040523d82523d5f602084013e611c2a565b606091505b509150915081611c6f576040517f08c379a0000000000000000000000000000000000000000000000000000000008152600401611c6690613b87565b60405180910390fd5b5f815111611cb2576040517f08c379a0000000000000000000000000000000000000000000000000000000008152600401611ca990613c15565b60405180910390fd5b8093505050509392505050565b60605f8383905011611d06576040517f08c379a0000000000000000000000000000000000000000000000000000000008152600401611cfd90613c7d565b60405180910390fd5b5f85858585604051602001611d1e9493929190613cbf565b60405160208183030381529060405290505f5f606773ffffffffffffffffffffffffffffffffffffffff1683604051611d579190613a04565b5f60405180830381855afa9150503d805f8114611d8f576040519150601f19603f3d011682016040523d82523d5f602084013e611d94565b606091505b509150915081611dd9576040517f08c379a0000000000000000000000000000000000000000000000000000000008152600401611dd090613d69565b60405180910390fd5b809350505050949350505050565b5f5f5f90505f835190505b80605583611e009190613687565b11611edb575f848381518110611e1957611e18612f5a565b5b602001015160f81c60f81b60f81c90505f8160ff1603611e50575f6015840160208701015190508085611e4c9190613687565b9450505b603583611e5d9190613687565b92505f836020870101519050602084611e769190613687565b9350828185611e859190613687565b1115611ec6576040517f08c379a0000000000000000000000000000000000000000000000000000000008152600401611ebd90613df7565b60405180910390fd5b8084611ed29190613687565b93505050611df2565b808214611f1d576040517f08c379a0000000000000000000000000000000000000000000000000000000008152600401611f1490613e85565b60405180910390fd5b5050919050565b5f5f42604051602001611f379190613f0d565b60405160208183030381529060405290505f602082604051602001611f5d929190613f32565b60405160208183030381529060405290505f5f606473ffffffffffffffffffffffffffffffffffffffff1683604051611f969190613a04565b5f60405180830381855afa9150503d805f8114611fce576040519150601f19603f3d011682016040523d82523d5f602084013e611fd3565b606091505b509150915081612018576040517f08c379a000000000000000000000000000000000000000000000000000000000815260040161200f90613a64565b60405180910390fd5b602081511461205c576040517f08c379a000000000000000000000000000000000000000000000000000000000815260040161205390613fa3565b60405180910390fd5b5f60208201519050805f1c9550505050505090565b5f5f603f8311808535029250806020860135029150509250929050565b5f5f603f83511180602085015102925080604085015102915050915091565b5f6040518681528560208201528460408201528360608201528260808201525f5f5260205f60a0836101005afa503d612113576d1ab2e8006fd8b71907bf06a5bdee3b6121125760205f60a0836dd01ea45f9efd5c54f037fa57ea1a5afa61211157fe5b5b5b5f516001147f7fffffff800000007fffffffffffffffde737d56d38bcf4279dce5617e3192a886111091505095945050505050565b6121506125d7565b815160c081106121fe5760208301818101818251018281108260c0830111171561217c575050506121fe565b8081510181602083015101828110848211178383108584111717156121a55750505050506121fe565b83815160208301011184835160208501011117156121c75750505050506121fe565b81875280602088015260408301516040880152606083015160608801526080830151608088015260a083015160a088015250505050505b50919050565b5f5f5f6122138860018061243e565b90506020860151805160208201604089015160608a01518551600d81017f226368616c6c656e6765223a220000000000000000000000000000000000000060981c8852858482011060228286880101515f1a14168160138a01208286880120141686846014011085851760801c107f2274797065223a22776562617574686e2e67657422000000000000000000000060581c8588015160581c1416169950818852505050508851518a151560021b600117808160218d5101511614602083118916169750871561230f5760208b510182810180516020600160208701856020868c8c60025afa60011b5afa5199508082523d61230b57fe5b5050505b505050505082156123325761232f8287608001518860a0015188886120ad565b92505b505095945050505050565b5f5f73ffffffffffffffffffffffffffffffffffffffff168573ffffffffffffffffffffffffffffffffffffffff1603156124365760405160011561243457853b6123f657826040811461239957604181146123bd5750612434565b6020850135601b8160ff1c0160205285356040528060011b60011c606052506123ce565b60408501355f1a6020526040856040375b50845f526020600160805f60015afa5180871860601b3d1192505f6060528160405250612434565b631626ba7e60e01b80825285600483015260248201604081528460448401528486606485013760208160648701858b5afa9350838282511416935050505b505b949350505050565b606083518015612540576003600282010460021b60405192507f4142434445464748494a4b4c4d4e4f505152535455565758595a616263646566601f526106708515027f6768696a6b6c6d6e6f707172737475767778797a303132333435363738392d5f18603f526020830181810183886020010180515f82525b60011561250d5760038a0199508951603f8160121c16515f53603f81600c1c1651600153603f8160061c1651600253603f8116516003535f518552600485019450838510612507575061250d565b506124b9565b8082526020830160405260038606600204613d3d60f01b81860352808915150290505f8186035280860388525050505050505b509392505050565b6040518060e001604052805f64ffffffffff1681526020015f600281111561257357612572612909565b5b81526020015f15158152602001606081526020015f81526020015f81526020015f81525090565b5080546125a69061302c565b5f825580601f106125b757506125d4565b601f0160209004905f5260205f20908101906125d39190612609565b5b50565b6040518060c0016040528060608152602001606081526020015f81526020015f81526020015f81526020015f81525090565b5b80821115612620575f815f90555060010161260a565b5090565b5f604051905090565b5f5ffd5b5f5ffd5b5f63ffffffff82169050919050565b61264d81612635565b8114612657575f5ffd5b50565b5f8135905061266881612644565b92915050565b5f5ffd5b5f5ffd5b5f5ffd5b5f5f83601f84011261268f5761268e61266e565b5b8235905067ffffffffffffffff8111156126ac576126ab612672565b5b6020830191508360018202830111156126c8576126c7612676565b5b9250929050565b5f5f5f5f5f606086880312156126e8576126e761262d565b5b5f6126f58882890161265a565b955050602086013567ffffffffffffffff81111561271657612715612631565b5b6127228882890161267a565b9450945050604086013567ffffffffffffffff81111561274557612744612631565b5b6127518882890161267a565b92509250509295509295909350565b5f8115159050919050565b61277481612760565b82525050565b5f60208201905061278d5f83018461276b565b92915050565b6003811061279f575f5ffd5b50565b5f813590506127b081612793565b92915050565b5f64ffffffffff82169050919050565b6127cf816127b6565b81146127d9575f5ffd5b50565b5f813590506127ea816127c6565b92915050565b5f819050919050565b612802816127f0565b811461280c575f5ffd5b50565b5f8135905061281d816127f9565b92915050565b5f5f5f5f5f6080868803121561283c5761283b61262d565b5b5f612849888289016127a2565b955050602086013567ffffffffffffffff81111561286a57612869612631565b5b6128768882890161267a565b94509450506040612889888289016127dc565b925050606061289a8882890161280f565b9150509295509295909350565b6128b081612635565b82525050565b5f6020820190506128c95f8301846128a7565b92915050565b5f602082840312156128e4576128e361262d565b5b5f6128f18482850161265a565b91505092915050565b612903816127b6565b82525050565b7f4e487b71000000000000000000000000000000000000000000000000000000005f52602160045260245ffd5b6003811061294757612946612909565b5b50565b5f81905061295782612936565b919050565b5f6129668261294a565b9050919050565b6129768161295c565b82525050565b61298581612760565b82525050565b5f81519050919050565b5f82825260208201905092915050565b8281835e5f83830152505050565b5f601f19601f8301169050919050565b5f6129cd8261298b565b6129d78185612995565b93506129e78185602086016129a5565b6129f0816129b3565b840191505092915050565b612a04816127f0565b82525050565b5f60e083015f830151612a1f5f8601826128fa565b506020830151612a32602086018261296d565b506040830151612a45604086018261297c565b5060608301518482036060860152612a5d82826129c3565b9150506080830151612a7260808601826129fb565b5060a0830151612a8560a08601826129fb565b5060c0830151612a9860c08601826129fb565b508091505092915050565b5f6020820190508181035f830152612abb8184612a0a565b905092915050565b5f5f60208385031215612ad957612ad861262d565b5b5f83013567ffffffffffffffff811115612af657612af5612631565b5b612b028582860161267a565b92509250509250929050565b5f6bffffffffffffffffffffffff82169050919050565b612b2e81612b0e565b82525050565b5f82825260208201905092915050565b5f612b4e8261298b565b612b588185612b34565b9350612b688185602086016129a5565b612b71816129b3565b840191505092915050565b5f604082019050612b8f5f830185612b25565b8181036020830152612ba18184612b44565b90509392505050565b5f5ffd5b7f4e487b71000000000000000000000000000000000000000000000000000000005f52604160045260245ffd5b612be4826129b3565b810181811067ffffffffffffffff82111715612c0357612c02612bae565b5b80604052505050565b5f612c15612624565b9050612c218282612bdb565b919050565b5f67ffffffffffffffff821115612c4057612c3f612bae565b5b612c49826129b3565b9050602081019050919050565b828183375f83830152505050565b5f612c76612c7184612c26565b612c0c565b905082815260208101848484011115612c9257612c91612baa565b5b612c9d848285612c56565b509392505050565b5f82601f830112612cb957612cb861266e565b5b8135612cc9848260208601612c64565b91505092915050565b5f5f60408385031215612ce857612ce761262d565b5b5f612cf5858286016127a2565b925050602083013567ffffffffffffffff811115612d1657612d15612631565b5b612d2285828601612ca5565b9150509250929050565b612d3581612b0e565b8114612d3f575f5ffd5b50565b5f81359050612d5081612d2c565b92915050565b5f5f5f5f5f5f60808789031215612d7057612d6f61262d565b5b5f612d7d89828a01612d42565b965050602087013567ffffffffffffffff811115612d9e57612d9d612631565b5b612daa89828a0161267a565b9550955050604087013567ffffffffffffffff811115612dcd57612dcc612631565b5b612dd989828a0161267a565b93509350506060612dec89828a0161265a565b9150509295509295509295565b5f5f5f60408486031215612e1057612e0f61262d565b5b5f612e1d868287016127a2565b935050602084013567ffffffffffffffff811115612e3e57612e3d612631565b5b612e4a8682870161267a565b92509250509250925092565b5f60208284031215612e6b57612e6a61262d565b5b5f82013567ffffffffffffffff811115612e8857612e87612631565b5b612e9484828501612ca5565b91505092915050565b612ea6816127f0565b82525050565b5f602082019050612ebf5f830184612e9d565b92915050565b5f819050919050565b612ed781612ec5565b82525050565b5f602082019050612ef05f830184612ece565b92915050565b7f4e487b71000000000000000000000000000000000000000000000000000000005f52601160045260245ffd5b5f612f2d82612635565b9150612f3883612635565b9250828203905063ffffffff811115612f5457612f53612ef6565b5b92915050565b7f4e487b71000000000000000000000000000000000000000000000000000000005f52603260045260245ffd5b5f82825260208201905092915050565b7f6b657920657870697265640000000000000000000000000000000000000000005f82015250565b5f612fcb600b83612f87565b9150612fd682612f97565b602082019050919050565b5f6020820190508181035f830152612ff881612fbf565b9050919050565b7f4e487b71000000000000000000000000000000000000000000000000000000005f52602260045260245ffd5b5f600282049050600182168061304357607f821691505b60208210810361305657613055612fff565b5b50919050565b7f6b6579207265766f6b65640000000000000000000000000000000000000000005f82015250565b5f613090600b83612f87565b915061309b8261305c565b602082019050919050565b5f6020820190508181035f8301526130bd81613084565b9050919050565b7f696e76616c6964207369670000000000000000000000000000000000000000005f82015250565b5f6130f8600b83612f87565b9150613103826130c4565b602082019050919050565b5f6020820190508181035f830152613125816130ec565b9050919050565b5f613136826127f0565b91507fffffffffffffffffffffffffffffffffffffffffffffffffffffffffffffffff820361316857613167612ef6565b5b600182019050919050565b7f6f6e6c792073656c6600000000000000000000000000000000000000000000005f82015250565b5f6131a7600983612f87565b91506131b282613173565b602082019050919050565b5f6020820190508181035f8301526131d48161319b565b9050919050565b5f819050815f5260205f209050919050565b5f6020601f8301049050919050565b5f82821b905092915050565b5f600883026132377fffffffffffffffffffffffffffffffffffffffffffffffffffffffffffffffff826131fc565b61324186836131fc565b95508019841693508086168417925050509392505050565b5f819050919050565b5f61327c613277613272846127f0565b613259565b6127f0565b9050919050565b5f819050919050565b61329583613262565b6132a96132a182613283565b848454613208565b825550505050565b5f5f905090565b6132c06132b1565b6132cb81848461328c565b505050565b5b818110156132ee576132e35f826132b8565b6001810190506132d1565b5050565b601f82111561333357613304816131db565b61330d846131ed565b8101602085101561331c578190505b613330613328856131ed565b8301826132d0565b50505b505050565b5f82821c905092915050565b5f6133535f1984600802613338565b1980831691505092915050565b5f61336b8383613344565b9150826002028217905092915050565b6133848261298b565b67ffffffffffffffff81111561339d5761339c612bae565b5b6133a7825461302c565b6133b28282856132f2565b5f60209050601f8311600181146133e3575f84156133d1578287015190505b6133db8582613360565b865550613442565b601f1984166133f1866131db565b5f5b82811015613418578489015182556001820191506020850194506020810190506133f3565b868310156134355784890151613431601f891682613344565b8355505b6001600288020188555050505b505050505050565b5f61345482612635565b915061345f83612635565b9250828201905063ffffffff81111561347b5761347a612ef6565b5b92915050565b5f6040820190506134945f830185612ece565b81810360208301526134a68184612a0a565b90509392505050565b7f6b6579206e6f7420666f756e64000000000000000000000000000000000000005f82015250565b5f6134e3600d83612f87565b91506134ee826134af565b602082019050919050565b5f6020820190508181035f830152613510816134d7565b9050919050565b5f81905092915050565b5f815461352d8161302c565b6135378186613517565b9450600182165f8114613551576001811461356657613598565b60ff1983168652811515820286019350613598565b61356f856131db565b5f5b8381101561359057815481890152600182019150602081019050613571565b838801955050505b50505092915050565b5f6135ac8284613521565b915081905092915050565b7f696e76616c6964206b6579206d617070696e67000000000000000000000000005f82015250565b5f6135eb601383612f87565b91506135f6826135b7565b602082019050919050565b5f6020820190508181035f830152613618816135df565b9050919050565b7f696e76616c6964207369676e61747572650000000000000000000000000000005f82015250565b5f613653601183612f87565b915061365e8261361f565b602082019050919050565b5f6020820190508181035f83015261368081613647565b9050919050565b5f613691826127f0565b915061369c836127f0565b92508282019050808211156136b4576136b3612ef6565b5b92915050565b7f7370656e64206c696d69742065786365656465640000000000000000000000005f82015250565b5f6136ee601483612f87565b91506136f9826136ba565b602082019050919050565b5f6020820190508181035f83015261371b816136e2565b9050919050565b7f4e487b71000000000000000000000000000000000000000000000000000000005f52603160045260245ffd5b7f414553206b657920616c726561647920696e697469616c697a656400000000005f82015250565b5f613783601b83612f87565b915061378e8261374f565b602082019050919050565b5f6020820190508181035f8301526137b081613777565b9050919050565b5f6060820190506137ca5f830186612ece565b6137d76020830185612e9d565b6137e46040830184612ece565b949350505050565b5f81905092915050565b7f19010000000000000000000000000000000000000000000000000000000000005f82015250565b5f61382a6002836137ec565b9150613835826137f6565b600282019050919050565b5f819050919050565b61385a61385582612ec5565b613840565b82525050565b5f61386a8261381e565b91506138768285613849565b6020820191506138868284613849565b6020820191508190509392505050565b5f73ffffffffffffffffffffffffffffffffffffffff82169050919050565b5f6138bf82613896565b9050919050565b6138cf816138b5565b81146138d9575f5ffd5b50565b5f815190506138ea816138c6565b92915050565b5f602082840312156139055761390461262d565b5b5f613912848285016138dc565b91505092915050565b5f60ff82169050919050565b5f8160f81b9050919050565b5f61393d82613927565b9050919050565b6139556139508261391b565b613933565b82525050565b5f6139668285613944565b6001820191506139768284613849565b6020820191508190509392505050565b5f8160e01b9050919050565b5f61399c82613986565b9050919050565b6139b46139af82612635565b613992565b82525050565b5f6139c582846139a3565b60048201915081905092915050565b5f6139de8261298b565b6139e88185613517565b93506139f88185602086016129a5565b80840191505092915050565b5f613a0f82846139d4565b915081905092915050565b7f524e4720507265636f6d70696c652063616c6c206661696c65640000000000005f82015250565b5f613a4e601a83612f87565b9150613a5982613a1a565b602082019050919050565b5f6020820190508181035f830152613a7b81613a42565b9050919050565b5f819050919050565b5f819050919050565b613aa5613aa082613a82565b613a8b565b82525050565b5f8160a01b9050919050565b5f613ac182613aab565b9050919050565b613ad9613ad482612b0e565b613ab7565b82525050565b5f613aea8286613a94565b602082019150613afa8285613ac8565b600c82019150613b0a82846139d4565b9150819050949350505050565b7f41455320656e637279707420707265636f6d70696c652063616c6c206661696c5f8201527f6564000000000000000000000000000000000000000000000000000000000000602082015250565b5f613b71602283612f87565b9150613b7c82613b17565b604082019050919050565b5f6020820190508181035f830152613b9e81613b65565b9050919050565b7f456e6372797074696f6e2063616c6c2072657475726e6564206e6f206f7574705f8201527f7574000000000000000000000000000000000000000000000000000000000000602082015250565b5f613bff602283612f87565b9150613c0a82613ba5565b604082019050919050565b5f6020820190508181035f830152613c2c81613bf3565b9050919050565b7f436970686572746578742063616e6e6f7420626520656d7074790000000000005f82015250565b5f613c67601a83612f87565b9150613c7282613c33565b602082019050919050565b5f6020820190508181035f830152613c9481613c5b565b9050919050565b5f613ca68385613517565b9350613cb3838584612c56565b82840190509392505050565b5f613cca8287613a94565b602082019150613cda8286613ac8565b600c82019150613ceb828486613c9b565b915081905095945050505050565b7f414553206465637279707420707265636f6d70696c652063616c6c206661696c5f8201527f6564000000000000000000000000000000000000000000000000000000000000602082015250565b5f613d53602283612f87565b9150613d5e82613cf9565b604082019050919050565b5f6020820190508181035f830152613d8081613d47565b9050919050565b7f496e76616c6964204d756c746953656e6420646174613a2065786365656473205f8201527f6c656e6774680000000000000000000000000000000000000000000000000000602082015250565b5f613de1602683612f87565b9150613dec82613d87565b604082019050919050565b5f6020820190508181035f830152613e0e81613dd5565b9050919050565b7f496e76616c6964204d756c746953656e6420646174613a20756e6578706563745f8201527f656420747261696c696e67206279746573000000000000000000000000000000602082015250565b5f613e6f603183612f87565b9150613e7a82613e15565b604082019050919050565b5f6020820190508181035f830152613e9c81613e63565b9050919050565b7f6165732d6b6579000000000000000000000000000000000000000000000000005f82015250565b5f613ed76007836137ec565b9150613ee282613ea3565b600782019050919050565b5f819050919050565b613f07613f02826127f0565b613eed565b82525050565b5f613f1782613ecb565b9150613f238284613ef6565b60208201915081905092915050565b5f613f3d82856139a3565b600482019150613f4d82846139d4565b91508190509392505050565b7f496e76616c696420524e47206f7574707574206c656e677468000000000000005f82015250565b5f613f8d601983612f87565b9150613f9882613f59565b602082019050919050565b5f6020820190508181035f830152613fba81613f81565b905091905056fea2646970667358221220d74969f1845aeec70afa871ecfd2f3cb94d0d34fa97c6db6718b6de62e9b344364736f6c637828302e382e33312d646576656c6f702e323032352e31302e392b636f6d6d69742e34643133626331330059",
    "linkReferences": {}
  },
  "methodIdentifiers": {
    "authorizeKey(uint8,bytes,uint40,uint256)": "2cc06b1e",
    "encrypt(bytes)": "31b00e46",
    "execute(uint96,bytes,bytes,uint32)": "68eddae7",
    "getDomainSeparator()": "ed24911d",
    "getKey(uint32)": "2f1d7903",
    "getKeyIndex(uint8,bytes)": "5e677dd0",
    "getKeyNonce(uint32)": "c9e6db8e",
    "keyCount()": "fac750e0",
    "multiSend(bytes)": "8d80ff0a",
    "revokeKey(uint8,bytes)": "8730d33b",
    "setAESKey()": "a85f5c37",
    "verifyAndConsumeNonce(uint32,bytes,bytes)": "0e292a29"
  },
  "id": 24
}