{
  "abi": [
    {
      "type": "constructor",
      "inputs": [],
      "stateMutability": "nonpayable"
    },
    {
      "type": "receive",
      "stateMutability": "payable"
    },
    {
      "type": "function",
      "name": "authorizeKey",
      "inputs": [
        {
          "name": "keyType",
          "type": "uint8",
          "internalType": "enum IShieldedDelegationAccount.KeyType"
        },
        {
          "name": "publicKey",
          "type": "bytes",
          "internalType": "bytes"
        },
        {
          "name": "expiry",
          "type": "uint40",
          "internalType": "uint40"
        },
        {
          "name": "limitWei",
          "type": "uint256",
          "internalType": "uint256"
        }
      ],
      "outputs": [
        {
          "name": "idx",
          "type": "uint32",
          "internalType": "uint32"
        }
      ],
      "stateMutability": "nonpayable"
    },
    {
      "type": "function",
      "name": "encrypt",
      "inputs": [
        {
          "name": "plaintext",
          "type": "bytes",
          "internalType": "bytes"
        }
      ],
      "outputs": [
        {
          "name": "nonce",
          "type": "uint96",
          "internalType": "uint96"
        },
        {
          "name": "ciphertext",
          "type": "bytes",
          "internalType": "bytes"
        }
      ],
      "stateMutability": "view"
    },
    {
      "type": "function",
      "name": "execute",
      "inputs": [
        {
          "name": "nonce",
          "type": "uint96",
          "internalType": "uint96"
        },
        {
          "name": "calls",
          "type": "bytes",
          "internalType": "bytes"
        },
        {
          "name": "sig",
          "type": "bytes",
          "internalType": "bytes"
        },
        {
          "name": "idx",
          "type": "uint32",
          "internalType": "uint32"
        }
      ],
      "outputs": [],
      "stateMutability": "payable"
    },
    {
      "type": "function",
      "name": "getDomainSeparator",
      "inputs": [],
      "outputs": [
        {
          "name": "",
          "type": "bytes32",
          "internalType": "bytes32"
        }
      ],
      "stateMutability": "view"
    },
    {
      "type": "function",
      "name": "getKey",
      "inputs": [
        {
          "name": "idx",
          "type": "uint32",
          "internalType": "uint32"
        }
      ],
      "outputs": [
        {
          "name": "",
          "type": "tuple",
          "internalType": "struct IShieldedDelegationAccount.Key",
          "components": [
            {
              "name": "expiry",
              "type": "uint40",
              "internalType": "uint40"
            },
            {
              "name": "keyType",
              "type": "uint8",
              "internalType": "enum IShieldedDelegationAccount.KeyType"
            },
            {
              "name": "isAuthorized",
              "type": "bool",
              "internalType": "bool"
            },
            {
              "name": "publicKey",
              "type": "bytes",
              "internalType": "bytes"
            },
            {
              "name": "spendLimit",
              "type": "uint256",
              "internalType": "uint256"
            },
            {
              "name": "spentWei",
              "type": "uint256",
              "internalType": "uint256"
            },
            {
              "name": "nonce",
              "type": "uint256",
              "internalType": "uint256"
            }
          ]
        }
      ],
      "stateMutability": "view"
    },
    {
      "type": "function",
      "name": "getKeyIndex",
      "inputs": [
        {
          "name": "keyType",
          "type": "uint8",
          "internalType": "enum IShieldedDelegationAccount.KeyType"
        },
        {
          "name": "publicKey",
          "type": "bytes",
          "internalType": "bytes"
        }
      ],
      "outputs": [
        {
          "name": "",
          "type": "uint32",
          "internalType": "uint32"
        }
      ],
      "stateMutability": "view"
    },
    {
      "type": "function",
      "name": "getKeyNonce",
      "inputs": [
        {
          "name": "idx",
          "type": "uint32",
          "internalType": "uint32"
        }
      ],
      "outputs": [
        {
          "name": "",
          "type": "uint256",
          "internalType": "uint256"
        }
      ],
      "stateMutability": "view"
    },
    {
      "type": "function",
      "name": "keyCount",
      "inputs": [],
      "outputs": [
        {
          "name": "",
          "type": "uint256",
          "internalType": "uint256"
        }
      ],
      "stateMutability": "view"
    },
    {
      "type": "function",
      "name": "multiSend",
      "inputs": [
        {
          "name": "transactions",
          "type": "bytes",
          "internalType": "bytes"
        }
      ],
      "outputs": [],
      "stateMutability": "payable"
    },
    {
      "type": "function",
      "name": "revokeKey",
      "inputs": [
        {
          "name": "keyType",
          "type": "uint8",
          "internalType": "enum IShieldedDelegationAccount.KeyType"
        },
        {
          "name": "publicKey",
          "type": "bytes",
          "internalType": "bytes"
        }
      ],
      "outputs": [],
      "stateMutability": "nonpayable"
    },
    {
      "type": "function",
      "name": "setAESKey",
      "inputs": [],
      "outputs": [],
      "stateMutability": "nonpayable"
    },
    {
      "type": "function",
      "name": "verifyAndConsumeNonce",
      "inputs": [
        {
          "name": "idx",
          "type": "uint32",
          "internalType": "uint32"
        },
        {
          "name": "message",
          "type": "bytes",
          "internalType": "bytes"
        },
        {
          "name": "sig",
          "type": "bytes",
          "internalType": "bytes"
        }
      ],
      "outputs": [
        {
          "name": "",
          "type": "bool",
          "internalType": "bool"
        }
      ],
      "stateMutability": "nonpayable"
    },
    {
      "type": "event",
      "name": "KeyAuthorized",
      "inputs": [
        {
          "name": "keyHash",
          "type": "bytes32",
          "indexed": false,
          "internalType": "bytes32"
        },
        {
          "name": "key",
          "type": "tuple",
          "indexed": false,
          "internalType": "struct IShieldedDelegationAccount.Key",
          "components": [
            {
              "name": "expiry",
              "type": "uint40",
              "internalType": "uint40"
            },
            {
              "name": "keyType",
              "type": "uint8",
              "internalType": "enum IShieldedDelegationAccount.KeyType"
            },
            {
              "name": "isAuthorized",
              "type": "bool",
              "internalType": "bool"
            },
            {
              "name": "publicKey",
              "type": "bytes",
              "internalType": "bytes"
            },
            {
              "name": "spendLimit",
              "type": "uint256",
              "internalType": "uint256"
            },
            {
              "name": "spentWei",
              "type": "uint256",
              "internalType": "uint256"
            },
            {
              "name": "nonce",
              "type": "uint256",
              "internalType": "uint256"
            }
          ]
        }
      ],
      "anonymous": false
    },
    {
      "type": "event",
      "name": "KeyRevoked",
      "inputs": [
        {
          "name": "keyHash",
          "type": "bytes32",
          "indexed": false,
          "internalType": "bytes32"
        }
      ],
      "anonymous": false
    },
    {
      "type": "event",
      "name": "Log",
      "inputs": [
        {
          "name": "message",
          "type": "string",
          "indexed": false,
          "internalType": "string"
        }
      ],
      "anonymous": false
    }
  ],
  "bytecode": {
    "object": "0x60a0604052346100375761001161027d565b61001961003c565b613e5e6103198239608051818181611f28015261276d0152613e5e90f35b610042565b60405190565b5f80fd5b7f8b73c3c69bb8fe3d512ecc4cf759cc79239f7b179b0ffacaa9a75d522b39400f90565b601f801991011690565b634e487b7160e01b5f52604160045260245ffd5b906100929061006a565b810190811060018060401b038211176100aa57604052565b610074565b906100c26100bb61003c565b9283610088565b565b60018060401b0381116100e0576100dc60209161006a565b0190565b610074565b906100f76100f2836100c4565b6100af565b918252565b5f7f536869656c64656444656c65676174696f6e4163636f756e7400000000000000910152565b61012d60196100e5565b9061013a602083016100fc565b565b610144610123565b90565b61014f61013c565b90565b90565b60200190565b5190565b5f7f3100000000000000000000000000000000000000000000000000000000000000910152565b61019060016100e5565b9061019d6020830161015f565b565b6101a7610186565b90565b6101b261019f565b90565b60018060a01b031690565b90565b6101d76101d26101dc926101b5565b6101c0565b6101b5565b90565b6101e8906101c3565b90565b6101f4906101df565b90565b90565b610203906101f7565b9052565b90565b61021390610207565b9052565b610220906101b5565b90565b61022c90610217565b9052565b9095949261027b9461026a6102749261026060809661025660a088019c5f8901906101fa565b60208701906101fa565b60408501906101fa565b606083019061020a565b0190610223565b565b610285610046565b610300610298610293610147565b610152565b6102aa6102a48261015b565b91610155565b20916102f16102bf6102ba6101aa565b610152565b6102d16102cb8261015b565b91610155565b20466102dc306101eb565b916102e561003c565b96879560208701610230565b60208201810382520382610088565b61031261030c8261015b565b91610155565b2060805256fe60806040526004361015610015575b36610a3057005b61001f5f356100de565b80630e292a29146100d95780632cc06b1e146100d45780632f1d7903146100cf57806331b00e46146100ca5780635e677dd0146100c557806368eddae7146100c05780638730d33b146100bb5780638d80ff0a146100b6578063a85f5c37146100b1578063c9e6db8e146100ac578063ed24911d146100a75763fac750e00361000e576109fb565b6109c6565b61096c565b610917565b6108df565b610876565b610800565b610726565b6105cd565b6104e4565b61032c565b6101ff565b60e01c90565b60405190565b5f80fd5b5f80fd5b5f80fd5b63ffffffff1690565b610108816100f6565b0361010f57565b5f80fd5b90503590610120826100ff565b565b5f80fd5b5f80fd5b5f80fd5b909182601f830112156101685781359167ffffffffffffffff831161016357602001926001830284011161015e57565b61012a565b610126565b610122565b6060818303126101d357610183825f8301610113565b92602082013567ffffffffffffffff81116101ce57836101a491840161012e565b929093604082013567ffffffffffffffff81116101c9576101c5920161012e565b9091565b6100f2565b6100f2565b6100ee565b151590565b6101e6906101d8565b9052565b91906101fd905f602085019401906101dd565b565b346102335761022f61021e61021536600461016d565b93929092610e9f565b6102266100e4565b918291826101ea565b0390f35b6100ea565b6003111561024257565b5f80fd5b9050359061025382610238565b565b64ffffffffff1690565b61026881610255565b0361026f57565b5f80fd5b905035906102808261025f565b565b90565b61028e81610282565b0361029557565b5f80fd5b905035906102a682610285565b565b91608083830312610305576102bf825f8501610246565b9260208101359167ffffffffffffffff8311610300576102e4846102fd94840161012e565b9390946102f48160408601610273565b93606001610299565b90565b6100f2565b6100ee565b610313906100f6565b9052565b919061032a905f6020850194019061030a565b565b346103605761035c61034b6103423660046102a8565b939290926117ca565b6103536100e4565b91829182610317565b0390f35b6100ea565b9060208282031261037e5761037b915f01610113565b90565b6100ee565b61038c90610255565b9052565b634e487b7160e01b5f52602160045260245ffd5b600311156103ae57565b610390565b906103bd826103a4565b565b6103c8906103b3565b90565b6103d4906103bf565b9052565b6103e1906101d8565b9052565b5190565b60209181520190565b90825f9392825e0152565b601f801991011690565b61042661042f6020936104349361041d816103e5565b938480936103e9565b958691016103f2565b6103fd565b0190565b61044190610282565b9052565b906104c99060c08061049a60e084016104645f8801515f870190610383565b610476602088015160208701906103cb565b610488604088015160408701906103d8565b60608701518582036060870152610407565b946104ad60808201516080860190610438565b6104bf60a082015160a0860190610438565b0151910190610438565b90565b6104e19160208201915f818403910152610445565b90565b34610514576105106104ff6104fa366004610365565b611959565b6105076100e4565b918291826104cc565b0390f35b6100ea565b9060208282031261054a575f82013567ffffffffffffffff811161054557610541920161012e565b9091565b6100f2565b6100ee565b6bffffffffffffffffffffffff1690565b6105699061054f565b9052565b60209181520190565b61059561059e6020936105a39361058c816103e5565b9384809361056d565b958691016103f2565b6103fd565b0190565b916105ca926105bd60408201935f830190610560565b6020818403910152610576565b90565b346105ff576105e66105e0366004610519565b906119e0565b906105fb6105f26100e4565b928392836105a7565b0390f35b6100ea565b5f80fd5b634e487b7160e01b5f52604160045260245ffd5b90610626906103fd565b810190811067ffffffffffffffff82111761064057604052565b610608565b906106586106516100e4565b928361061c565b565b67ffffffffffffffff8111610678576106746020916103fd565b0190565b610608565b90825f939282370152565b9092919261069d6106988261065a565b610645565b938185526020850190828401116106b9576106b79261067d565b565b610604565b9080601f830112156106dc578160206106d993359101610688565b90565b610122565b919091604081840312610721576106fa835f8301610246565b92602082013567ffffffffffffffff811161071c5761071992016106be565b90565b6100f2565b6100ee565b346107575761075361074261073c3660046106e1565b90611b9f565b61074a6100e4565b91829182610317565b0390f35b6100ea565b6107658161054f565b0361076c57565b5f80fd5b9050359061077d8261075c565b565b91906080838203126107f657610797815f8501610770565b92602081013567ffffffffffffffff81116107f157826107b891830161012e565b929093604083013567ffffffffffffffff81116107ec576107de836107e992860161012e565b939094606001610113565b90565b6100f2565b6100f2565b6100ee565b5f0190565b61081a61080e36600461077f565b94939093929192611ddb565b6108226100e4565b8061082c816107fb565b0390f35b91909160408184031261087157610849835f8301610246565b92602082013567ffffffffffffffff811161086c57610868920161012e565b9091565b6100f2565b6100ee565b346108a55761088f610889366004610830565b916124e2565b6108976100e4565b806108a1816107fb565b0390f35b6100ea565b906020828203126108da575f82013567ffffffffffffffff81116108d5576108d292016106be565b90565b6100f2565b6100ee565b6108f26108ed3660046108aa565b6124ef565b6108fa6100e4565b80610904816107fb565b0390f35b5f91031261091257565b6100ee565b3461094557610927366004610908565b61092f612713565b6109376100e4565b80610941816107fb565b0390f35b6100ea565b61095390610282565b9052565b919061096a905f6020850194019061094a565b565b3461099c57610998610987610982366004610365565b61271d565b61098f6100e4565b91829182610957565b0390f35b6100ea565b90565b6109ad906109a1565b9052565b91906109c4905f602085019401906109a4565b565b346109f6576109d6366004610908565b6109f26109e1612762565b6109e96100e4565b918291826109b1565b0390f35b6100ea565b34610a2b57610a0b366004610908565b610a27610a1661278f565b610a1e6100e4565b91829182610957565b0390f35b6100ea565b5f80fd5b5f90565b90565b90565b610a52610a4d610a5792610a38565b610a3b565b6100f6565b90565b634e487b7160e01b5f52601160045260245ffd5b610a7a610a80916100f6565b916100f6565b90039063ffffffff8211610a9057565b610a5a565b634e487b7160e01b5f52603260045260245ffd5b5490565b5f5260205f2090565b610abf81610aa9565b821015610ad957610ad1600591610aad565b910201905f90565b610a95565b90565b5f1c90565b64ffffffffff1690565b610afc610b0191610ae1565b610ae6565b90565b610b0e9054610af0565b90565b610b25610b20610b2a92610255565b610a3b565b610282565b90565b60209181520190565b5f7f6b65792065787069726564000000000000000000000000000000000000000000910152565b610b6a600b602092610b2d565b610b7381610b36565b0190565b610b8c9060208101905f818303910152610b5d565b90565b15610b9657565b610b9e6100e4565b62461bcd60e51b815280610bb460048201610b77565b0390fd5b60281c90565b60ff1690565b610bd0610bd591610bb8565b610bbe565b90565b610be29054610bc4565b90565b634e487b7160e01b5f52602260045260245ffd5b9060016002830492168015610c19575b6020831014610c1457565b610be5565b91607f1691610c09565b5f5260205f2090565b905f9291805490610c46610c3f83610bf9565b80946103e9565b916001811690815f14610c9d5750600114610c61575b505050565b610c6e9192939450610c23565b915f925b818410610c8557505001905f8080610c5c565b60018160209295939554848601520191019290610c72565b92949550505060ff19168252151560200201905f8080610c5c565b90610cc291610c2c565b90565b90610ce5610cde92610cd56100e4565b93848092610cb8565b038361061c565b565b610cf090610cc5565b90565b5f7f6b6579207265766f6b6564000000000000000000000000000000000000000000910152565b610d27600b602092610b2d565b610d3081610cf3565b0190565b610d499060208101905f818303910152610d1a565b90565b15610d5357565b610d5b6100e4565b62461bcd60e51b815280610d7160048201610d34565b0390fd5b90565b610d84610d8991610ae1565b610d75565b90565b610d969054610d78565b90565b610da4913691610688565b90565b5f7f696e76616c696420736967000000000000000000000000000000000000000000910152565b610ddb600b602092610b2d565b610de481610da7565b0190565b610dfd9060208101905f818303910152610dce565b90565b15610e0757565b610e0f6100e4565b62461bcd60e51b815280610e2560048201610de8565b0390fd5b610e3290610282565b5f198114610e405760010190565b610a5a565b5f1b90565b90610e565f1991610e45565b9181191691161790565b610e74610e6f610e7992610282565b610a3b565b610282565b90565b90565b90610e94610e8f610e9b92610e60565b610e7c565b8254610e4a565b9055565b91600493610fb295610f73610f9593610f9a95610eba610a34565b50610f4e610eef610ee96002610ece61282b565b01610ee38c610edd6001610a3e565b90610a6e565b90610ab6565b50610ade565b98610f16610efe5f8c01610b04565b610f10610f0a42610282565b91610b11565b11610b8f565b610f48610f42610f3d8c610f376001610f305f8401610bd8565b9201610ce7565b90611b9f565b6100f6565b916100f6565b14610d4c565b610f6d610f59612762565b610f648b8b01610d8c565b92939093610d99565b90612902565b91610f7f5f8701610bd8565b610f8f6001880194929394610ce7565b90612a18565b610e00565b01610fac610fa782610d8c565b610e29565b90610e7f565b600190565b5f90565b60018060a01b031690565b610fda610fd5610fdf92610fbb565b610a3b565b610fbb565b90565b610feb90610fc6565b90565b610ff790610fe2565b90565b61100390610fbb565b90565b5f7f6f6e6c792073656c660000000000000000000000000000000000000000000000910152565b61103a6009602092610b2d565b61104381611006565b0190565b61105c9060208101905f81830391015261102d565b90565b1561106657565b61106e6100e4565b62461bcd60e51b81528061108460048201611047565b0390fd5b906110ba95949392916110b5336110af6110a96110a430610fee565b610ffa565b91610ffa565b1461105f565b611665565b90565b6110c760e0610645565b90565b906110d490610255565b9052565b906110e2906103b3565b9052565b906110f0906101d8565b9052565b52565b9061110190610282565b9052565b90565b61111c61111761112192611105565b610a3b565b610282565b90565b61113861113361113d92610282565b610a3b565b6100f6565b90565b90565b5f5260205f2090565b5490565b6111598161114c565b8210156111735761116b600591611143565b910201905f90565b610a95565b634e487b7160e01b5f525f60045260245ffd5b6111959051610255565b90565b906111a864ffffffffff91610e45565b9181191691161790565b6111c66111c16111cb92610255565b610a3b565b610255565b90565b90565b906111e66111e16111ed926111b2565b6111ce565b8254611198565b9055565b6111fb90516103b3565b90565b60281b90565b9061121565ff0000000000916111fe565b9181191691161790565b611228906103b3565b90565b90565b9061124361123e61124a9261121f565b61122b565b8254611204565b9055565b61125890516101d8565b90565b60301b90565b9061127366ff0000000000009161125b565b9181191691161790565b611286906101d8565b90565b90565b906112a161129c6112a89261127d565b611289565b8254611261565b9055565b5190565b601f602091010490565b1b90565b919060086112d99102916112d35f19846112ba565b926112ba565b9181191691161790565b91906112f96112f461130193610e60565b610e7c565b9083546112be565b9055565b5f90565b61131b91611315611305565b916112e3565b565b5b818110611329575050565b806113365f600193611309565b0161131e565b9190601f811161134c575b505050565b61135861137d93610c23565b906020611364846112b0565b83019310611385575b611376906112b0565b019061131d565b5f8080611347565b91506113768192905061136d565b1c90565b906113a7905f1990600802611393565b191690565b816113b691611397565b906002021790565b906113c8816103e5565b9067ffffffffffffffff8211611488576113ec826113e68554610bf9565b8561133c565b602090601f83116001146114205791809161140f935f92611414575b50506113ac565b90555b565b90915001515f80611408565b601f1983169161142f85610c23565b925f5b81811061147057509160029391856001969410611456575b50505002019055611412565b611466910151601f841690611397565b90555f808061144a565b91936020600181928787015181550195019201611432565b610608565b90611497916113be565b565b6114a39051610282565b90565b9061154c60c06004611552946114c95f82016114c35f880161118b565b906111d1565b6114e15f82016114db602088016111f1565b9061122e565b6114f95f82016114f36040880161124e565b9061128c565b6115126001820161150c606088016112ac565b9061148d565b61152b6002820161152560808801611499565b90610e7f565b6115446003820161153e60a08801611499565b90610e7f565b019201611499565b90610e7f565b565b919061156557611563916114a6565b565b611178565b908154916801000000000000000083101561159a578261159291600161159895018155611150565b90611554565b565b610608565b6115ab6115b1916100f6565b916100f6565b019063ffffffff82116115c057565b610a5a565b6115ce906109a1565b90565b906115db906115c5565b5f5260205260405f2090565b906115f663ffffffff91610e45565b9181191691161790565b61161461160f611619926100f6565b610a3b565b6100f6565b90565b90565b9061163461162f61163b92611600565b61161c565b82546115e7565b9055565b916116629261165560408201935f8301906109a4565b6020818403910152610445565b90565b9490949392935061167461282b565b92859083869193905f925f9460019061168b6110bd565b975f890190611699916110ca565b60208801906116a7916110d8565b60408701906116b5916110e6565b6116be91610d99565b60608501906116cc916110f4565b60808401906116da916110f7565b6116e390611108565b60a08301906116f1916110f7565b6116fa90611108565b60c0820190611708916110f7565b928260020161171690610aa9565b61171f90611124565b948360020161172d90611140565b856117379161156a565b919061174291610d99565b61174b91612b9c565b9083600161175890610a3e565b6117619161159f565b906003018261176f916115d1565b906117799161161f565b7f4ea58b0cfbd7dbef4ca1db95d39abfddd4b9a1614dbd63cfb36d3b132e4589d7916117a36100e4565b9182916117b0918361163f565b0390a160016117be90610a3e565b6117c79161159f565b90565b906117df949392916117da610fb7565b611088565b90565b6117ec60e0610645565b90565b5f90565b5f90565b5f90565b606090565b5f90565b61180c6117e2565b9060208080808080808861181e6117ef565b8152016118296117f3565b8152016118346117f7565b81520161183f6117fb565b81520161184a611800565b815201611855611800565b815201611860611800565b81525050565b61186e611804565b90565b60301c90565b60ff1690565b61188961188e91611871565b611877565b90565b61189b905461187d565b90565b9061194b61194260046118af6117e2565b946118c66118be5f8301610b04565b5f88016110ca565b6118dd6118d45f8301610bd8565b602088016110d8565b6118f46118eb5f8301611891565b604088016110e6565b61190c61190360018301610cc5565b606088016110f4565b61192461191b60028301610d8c565b608088016110f7565b61193c61193360038301610d8c565b60a088016110f7565b01610d8c565b60c084016110f7565b565b6119569061189e565b90565b61198e61199491611968611866565b50611988600261197661282b565b01916119826001610a3e565b90610a6e565b90610ab6565b5061194d565b90565b5f90565b606090565b6119b46119af6119b992611105565b610a3b565b61054f565b90565b90565b6119cb6119d091610ae1565b6119bc565b90565b6119dd90b06119bf565b90565b9190916119eb611997565b506119f461199b565b506119fd612d82565b5b80611a11611a0b5f6119a0565b9161054f565b03611a245750611a1f612d82565b6119fe565b92611a4c91611a46611a3e5f611a3861282b565b016119d3565b928692610d99565b9161301c565b90565b63ffffffff1690565b611a64611a6991610ae1565b611a4f565b90565b611a769054611a58565b90565b611a8d611a88611a9292611105565b610a3b565b6100f6565b90565b5f7f6b6579206e6f7420666f756e6400000000000000000000000000000000000000910152565b611ac9600d602092610b2d565b611ad281611a95565b0190565b611aeb9060208101905f818303910152611abc565b90565b15611af557565b611afd6100e4565b62461bcd60e51b815280611b1360048201611ad6565b0390fd5b60200190565b5f7f696e76616c6964206b6579206d617070696e6700000000000000000000000000910152565b611b516013602092610b2d565b611b5a81611b1d565b0190565b611b739060208101905f818303910152611b44565b90565b15611b7d57565b611b856100e4565b62461bcd60e51b815280611b9b60048201611b5e565b0390fd5b90611c4090611bac610fb7565b50611bb561282b565b90611bd5611bd0611bc7868490612b9c565b600385016115d1565b611a6c565b93611bf385611bec611be65f611a79565b916100f6565b1415611aee565b611c31611c2b611c255f611c1e60028801611c188b611c126001610a3e565b90610a6e565b90610ab6565b5001610bd8565b926103b3565b916103b3565b149182611c43575b5050611b76565b90565b611caa919250611c786001611c716002611ca49401611c6b89611c6585610a3e565b90610a6e565b90610ab6565b5001610ce7565b611c8a611c84826103e5565b91611b17565b2092611c9e611c98826103e5565b91611b17565b206109a1565b916109a1565b145f80611c39565b5f7f696e76616c6964207369676e6174757265000000000000000000000000000000910152565b611ce66011602092610b2d565b611cef81611cb2565b0190565b611d089060208101905f818303910152611cd9565b90565b15611d1257565b611d1a6100e4565b62461bcd60e51b815280611d3060048201611cf3565b0390fd5b611d43611d4991939293610282565b92610282565b8201809211611d5457565b610a5a565b5f7f7370656e64206c696d6974206578636565646564000000000000000000000000910152565b611d8d6014602092610b2d565b611d9681611d59565b0190565b611daf9060208101905f818303910152611d80565b90565b15611db957565b611dc16100e4565b62461bcd60e51b815280611dd760048201611d9a565b0390fd5b91949092611de761282b565b94611df061199b565b5033611e0c611e06611e0130610fee565b610ffa565b91610ffa565b145f14611e68575050509081611e479492611e2f611e295f6119a0565b9161054f565b145f14611e4a5750611e419250610d99565b5b6124ef565b5b565b9190611e5a5f611e6395016119d3565b9290919261324a565b611e42565b859295600201866001611e7a90610a3e565b611e8391610a6e565b611e8c91610ab6565b50611e9690610ade565b95865f01611ea390610b04565b42611ead90610282565b90611eb790610b11565b11611ec190610b8f565b83600301875f01611ed190610bd8565b88600101611ede90610ce7565b611ee791612b9c565b611ef0916115d1565b611ef990611a6c565b611f02906100f6565b90611f0c906100f6565b14611f1690610d4c565b85600401611f2390610d8c565b8588907f000000000000000000000000000000000000000000000000000000000000000091611f5191610d99565b611f5a92612902565b90865f01611f6790610bd8565b928760010192909192611f7990610ce7565b611f8294612a18565b611f8b90611d0b565b815f611f96906119a0565b90611fa09061054f565b145f14946120069360049361200b9761207a5750611fbe9250610d99565b925b611fc95f611108565b50611fd660028201610d8c565b611fe8611fe25f611108565b91610282565b03612010575b01612000611ffb82610d8c565b610e29565b90610e7f565b6124ef565b611e48565b61207561201c85613504565b61205961203561202e60038601610d8c565b8390611d34565b61205261204c61204760028801610d8c565b610282565b91610282565b1115611db2565b61206f600384019161206a83610d8c565b611d34565b90610e7f565b611fee565b919061208a5f61209395016119d3565b9290919261324a565b92611fc0565b906120c892916120c3336120bd6120b76120b230610fee565b610ffa565b91610ffa565b1461105f565b61236e565b565b634e487b7160e01b5f52603160045260245ffd5b906120f1905f1990602003600802611393565b8154169055565b905f9161210f61210782610c23565b9283546113ac565b905555565b919290602082105f1461216d57601f841160011461213d576121379293506113ac565b90555b5b565b509061216361216893600161215a61215485610c23565b926112b0565b8201910161131d565b6120f8565b61213a565b506121a4829361217e600194610c23565b61219d61218a856112b0565b820192601f8616806121af575b506112b0565b019061131d565b60020217905561213b565b6121bb908886036120de565b5f612197565b929091680100000000000000008211612221576020115f1461221257602081105f146121f6576121f0916113ac565b90555b5b565b60019160ff191661220684610c23565b556002020190556121f3565b600191506002020190556121f4565b610608565b90815461223281610bf9565b9081831161225b575b818310612249575b50505050565b61225293612114565b5f808080612243565b612267838383876121c1565b61223b565b5f61227691612226565b565b905f0361228a576122889061226c565b565b611178565b5f60046122c89282808201556122a88360018301612278565b6122b58360028301611309565b6122c28360038301611309565b01611309565b565b905f036122dc576122da9061228f565b565b611178565b6122ea8161114c565b801561230b5760019003906123086123028383611150565b906122ca565b55565b6120ca565b9190600861232e91029161232863ffffffff846112ba565b926112ba565b9181191691161790565b919061234e61234961235693611600565b61161c565b908354612310565b9055565b61236c91612366610fb7565b91612338565b565b9161241460036123956124199461238f5f9561238861282b565b9892610d99565b90612b9c565b946123ab6123a683830188906115d1565b611a6c565b6123c8816123c16123bb88611a79565b916100f6565b1415611aee565b6123dc6123d760028401610aa9565b611124565b90806123f06123ea846100f6565b916100f6565b03612454575b505061240c61240760028301611140565b6122e1565b0184906115d1565b61235a565b61244f7fd76dbee353f8817df12bf008d3fec1c2f26c9afc1e832f74757756b060b25f82916124466100e4565b918291826109b1565b0390a1565b6124d661248561247f6124db9461247960028801916124736001610a3e565b90610a6e565b90610ab6565b5061194d565b916124b1836124ab600288016124a58561249f6001610a3e565b90610a6e565b90610ab6565b90611554565b916124d08686019160606124c7602083016111f1565b91015190612b9c565b906115d1565b61161f565b5f806123f6565b906124ed9291612099565b565b80519060205b82811061250157505050565b8082015160f81c6001820183015160601c308115021760158301840151916035840185015192836055860187015f9392835f146125615750505090915060011461255d575b5f1461255557605501016124f5565b3d5f803e3d5ffd5b5f80fd5b5f958695508594505af19050612546565b6125963361259061258a61258530610fee565b610ffa565b91610ffa565b1461105f565b61259e612643565b565b6125ac6125b191610ae1565b611877565b90565b6125be90546125a0565b90565b5f7f414553206b657920616c726561647920696e697469616c697a65640000000000910152565b6125f5601b602092610b2d565b6125fe816125c1565b0190565b6126179060208101905f8183039101526125e8565b90565b1561262157565b6126296100e4565b62461bcd60e51b81528061263f60048201612602565b0390fd5b61266761266261265c600161265661282b565b016125b4565b156101d8565b61261a565b61266f6126e9565b565b90565b61268861268361268d92612671565b610a3b565b612671565b90565b90565b906126a86126a36126af92612674565b612690565b82b0610e4a565b90b1565b906126bf60ff91610e45565b9181191691161790565b906126de6126d96126e59261127d565b611289565b82546126b3565b9055565b6127116126f461282b565b6127076126ff613784565b5f8301612693565b60018091016126c9565b565b61271b612572565b565b600461275461275b9261272e611305565b5061274e600261273c61282b565b01916127486001610a3e565b90610a6e565b90610ab6565b5001610d8c565b90565b5f90565b61276a61275e565b507f000000000000000000000000000000000000000000000000000000000000000090565b612797611305565b506127ab60026127a561282b565b01610aa9565b90565b68ffffffffffffffffff60b81b1690565b6127c8906127ae565b90565b60b81c90565b68ffffffffffffffffff1690565b6127f36127ee6127f8926127d1565b610a3b565b6127d1565b90565b61280761280c916127cb565b6127df565b90565b61282361281e612828926127d1565b610a3b565b610282565b90565b61286461285f61285a7f2a2cc7db52019c9ff565d289628faa407289ea9f1a3741cac1acd5fa3e843b636127bf565b6127fb565b61280f565b90565b604090612890612897949695939661288660608401985f8501906109a4565b602083019061094a565b01906109a4565b565b905090565b5f61190160f01b910152565b6128b660028092612899565b6128bf8161289e565b0190565b90565b6128d26128d7916109a1565b6128c3565b9052565b60208093926128f66128ef6128fe946128aa565b80926128c6565b0180926128c6565b0190565b9061296f6129a99261291261275e565b506129607f9bb939585d47b76d88b01231eb395b17e90aab08b4c65e93bb1425c9708dbab7919361294b612945826103e5565b91611b17565b206129546100e4565b94859360208501612867565b6020820181038252038261061c565b61298161297b826103e5565b91611b17565b209161299a61298e6100e4565b938492602084016128db565b6020820181038252038261061c565b6129bb6129b5826103e5565b91611b17565b2090565b6129c890610fbb565b90565b6129d4816129bf565b036129db57565b5f80fd5b905051906129ec826129cb565b565b90602082820312612a0757612a04915f016129df565b90565b6100ee565b612a1590610fe2565b90565b949391929094612a26610a34565b9080612a3a612a345f6103b3565b916103b3565b145f14612a7157505093612a56612a5f9392612a6d9596613c1b565b9390939161395d565b919091929390919293613c40565b905b565b80969296612a88612a8260016103b3565b916103b3565b145f14612aef575050612ae89394612ae0612adb612ac59594612aad612ad49561395d565b95909596612ab96100e4565b988991602083016109b1565b6020820181038252038861061c565b5f93610d99565b6139fc565b919293613abc565b905b612a6f565b95919095612b06612b0060026103b3565b916103b3565b14612b15575b50505050612aea565b612b46949550612b38612b41916020612b2d826103e5565b8183010191016129ee565b93919293612a0c565b61386d565b905f808080612b0c565b60ff1690565b60f81b90565b612b6590612b56565b90565b612b74612b7991612b50565b612b5c565b9052565b600181612b90612b989360209695612b68565b0180926128c6565b0190565b612bb1612bec91612bab61275e565b506103bf565b91612bc4612bbe826103e5565b91611b17565b2091612bdd612bd16100e4565b93849260208401612b7d565b6020820181038252038261061c565b612bfe612bf8826103e5565b91611b17565b2090565b90565b612c19612c14612c1e92612c02565b610a3b565b610fbb565b90565b612c2a90612c05565b90565b612c376064612c21565b90565b90565b612c51612c4c612c5692612c3a565b610a3b565b6100f6565b90565b60e01b90565b612c6890612c59565b90565b612c77612c7c916100f6565b612c5f565b9052565b612c8c81600493612c6b565b0190565b90612ca2612c9d8361065a565b610645565b918252565b3d5f14612cc257612cb73d612c90565b903d5f602084013e5b565b612cca61199b565b90612cc0565b5f7f524e4720507265636f6d70696c652063616c6c206661696c6564000000000000910152565b612d04601a602092610b2d565b612d0d81612cd0565b0190565b612d269060208101905f818303910152612cf7565b90565b15612d3057565b612d386100e4565b62461bcd60e51b815280612d4e60048201612d11565b0390fd5b612d5e612d6391610ae1565b610e60565b90565b612d7a612d75612d7f92610282565b610a3b565b61054f565b90565b612d8a611997565b50612dfb612df660205f80612d9d612c2d565b612dbf612dcd612dac86612c3d565b612db46100e4565b928391888301612c80565b87820181038252038261061c565b8481019051915afa612de6612de0612ca7565b91612d29565b612dee61275e565b500151612d52565b612d66565b90565b90565b612e0d612e1291612671565b612dfe565b9052565b60a01b90565b612e2590612e16565b90565b612e34612e399161054f565b612e1c565b9052565b905090565b612e67612e5e92602092612e55816103e5565b94858093612e3d565b938491016103f2565b0190565b91612e8a602084612e82612e919796600c96612e01565b018092612e28565b0190612e42565b90565b90565b612eab612ea6612eb092612e94565b610a3b565b610fbb565b90565b612ebc90612e97565b90565b612ec96066612eb3565b90565b60207f6564000000000000000000000000000000000000000000000000000000000000917f41455320656e637279707420707265636f6d70696c652063616c6c206661696c5f8201520152565b612f266022604092610b2d565b612f2f81612ecc565b0190565b612f489060208101905f818303910152612f19565b90565b15612f5257565b612f5a6100e4565b62461bcd60e51b815280612f7060048201612f33565b0390fd5b60207f7574000000000000000000000000000000000000000000000000000000000000917f456e6372797074696f6e2063616c6c2072657475726e6564206e6f206f7574705f8201520152565b612fce6022604092610b2d565b612fd781612f74565b0190565b612ff09060208101905f818303910152612fc1565b90565b15612ffa57565b6130026100e4565b62461bcd60e51b81528061301860048201612fdb565b0390fd5b916130565f9392613047859461303061199b565b50919361303b6100e4565b94859360208501612e6b565b6020820181038252038261061c565b61305e612ebf565b90602081019051915afa613079613073612ca7565b91612f4b565b61309d613085826103e5565b6130976130915f611108565b91610282565b11612ff3565b90565b5090565b5f7f436970686572746578742063616e6e6f7420626520656d707479000000000000910152565b6130d8601a602092610b2d565b6130e1816130a4565b0190565b6130fa9060208101905f8183039101526130cb565b90565b1561310457565b61310c6100e4565b62461bcd60e51b815280613122600482016130e5565b0390fd5b9091826131368161313d93612e3d565b809361067d565b0190565b916131606020846131586131679896600c96612e01565b018092612e28565b0191613126565b90565b90565b61318161317c6131869261316a565b610a3b565b610fbb565b90565b6131929061316d565b90565b61319f6067613189565b90565b60207f6564000000000000000000000000000000000000000000000000000000000000917f414553206465637279707420707265636f6d70696c652063616c6c206661696c5f8201520152565b6131fc6022604092610b2d565b613205816131a2565b0190565b61321e9060208101905f8183039101526131ef565b90565b1561322857565b6132306100e4565b62461bcd60e51b81528061324660048201613209565b0390fd5b5f939161329c8594936132ab9361325f61199b565b5061328661326e8784906130a0565b61328061327a8a611108565b91610282565b116130fd565b92946132906100e4565b95869460208601613141565b6020820181038252038261061c565b6132b3613195565b90602081019051915afa6132ce6132c8612ca7565b91613221565b90565b90565b6132e86132e36132ed926132d1565b610a3b565b610282565b90565b906132fa826103e5565b81101561330c57600160209102010190565b610a95565b60ff60f81b1690565b6133249051613311565b90565b60f81c90565b61334161333c61334692612b50565b610a3b565b612b50565b90565b61335561335a91613327565b61332d565b90565b61337161336c61337692611105565b610a3b565b612b50565b90565b90565b61339061338b61339592613379565b610a3b565b610282565b90565b6133ac6133a76133b192612c3a565b610a3b565b610282565b90565b60207f6c656e6774680000000000000000000000000000000000000000000000000000917f496e76616c6964204d756c746953656e6420646174613a2065786365656473205f8201520152565b61340e6026604092610b2d565b613417816133b4565b0190565b6134309060208101905f818303910152613401565b90565b1561343a57565b6134426100e4565b62461bcd60e51b8152806134586004820161341b565b0390fd5b60207f656420747261696c696e67206279746573000000000000000000000000000000917f496e76616c6964204d756c746953656e6420646174613a20756e6578706563745f8201520152565b6134b66031604092610b2d565b6134bf8161345c565b0190565b6134d89060208101905f8183039101526134a9565b90565b156134e257565b6134ea6100e4565b62461bcd60e51b815280613500600482016134c3565b0390fd5b9061350d611305565b906135175f611108565b91613521846103e5565b925b6135378161353160556132d4565b90611d34565b61354961354386610282565b91610282565b1161361c5761356961356461355f8784906132f0565b61331a565b613349565b61357b6135755f61335d565b91612b50565b146135ef575b6135986135ea91613592603561337c565b90611d34565b6135a0611305565b506135bc81602088010151916135b66020613398565b90611d34565b906135e46135cb838390611d34565b6135dd6135d789610282565b91610282565b1115613433565b90611d34565b613523565b906135986136136135ea92613602611305565b506015850160208901015190611d34565b92915050613581565b61363e9294506136326136389194929492610282565b91610282565b146134db565b90565b5f90565b5f7f6165732d6b657900000000000000000000000000000000000000000000000000910152565b61367860078092612899565b61368181613645565b0190565b90565b61369461369991610282565b613685565b9052565b906136b36136ac60209361366c565b8092613688565b0190565b806136c86004926136cf9594612c6b565b0190612e42565b90565b5f7f496e76616c696420524e47206f7574707574206c656e67746800000000000000910152565b6137066019602092610b2d565b61370f816136d2565b0190565b6137289060208101905f8183039101526136f9565b90565b1561373257565b61373a6100e4565b62461bcd60e51b81528061375060048201613713565b0390fd5b61376861376361376d92610282565b610a3b565b612671565b90565b61377c61378191610ae1565b613754565b90565b61378c613641565b5061384260205f806137ae6137bc426137a36100e4565b92839187830161369d565b86820181038252038261061c565b6137ec6137c885612c3d565b6137de6137d36100e4565b9384928884016136b7565b86820181038252038261061c565b6137f4612c2d565b908481019051915afa61380e613808612ca7565b91612d29565b61383261381a826103e5565b61382c61382685613398565b91610282565b1461372b565b61383a61275e565b500151613770565b90565b61385961385461385e92611105565b610a3b565b610fbb565b90565b61386a90613845565b90565b939291613878610a34565b948061389461388e6138895f613861565b610ffa565b91610ffa565b1461395757604051813b156138df5760209394959650631626ba7e60e01b94858252600482015260648660248301978895604087528160448601528385013701915afa91511416905b565b93929190928060401461392f576041146138fc57505050506138dd565b60408092939496508101355f1a60205281375b5f526020600160805f825afa511860601b3d11915f6060526040526138dd565b509091929450602081013590601b8260ff1c016020523560405260011b60011c60605261390f565b50505050565b9061396661275e565b5061396f61275e565b50603f8251116040816020850151029301510290565b61398f60c0610645565b90565b606090565b5f90565b6139a3613985565b9060208080808080876139b46117fb565b8152016139bf613992565b8152016139ca611800565b8152016139d5611800565b8152016139e0613997565b8152016139eb613997565b81525050565b6139f961399b565b90565b90613a056139f1565b9180519060c0821015613a17575b5050565b60200190810190808051019081108260c083011117613aaa5780805101918160208101510190828210818311178385108286111717613aa35780825160208401011190845160208601011117613a9d5760a09285526020850152604081015160408501526060810151606085015260808101516080850152015160a08301525f80613a13565b50613a13565b5050613a13565b613a13565b613ab990516109a1565b90565b949391929094613aca610a34565b50613ae0613ad661275e565b9160018091613cf0565b95602085015190602082519201976040870151606088015190825191600d83017f226368616c6c656e6765223a220000000000000000000000000000000000000060981c85528c878483011060228386840101515f1a1416918481601389012092012014169186826014011090821760801c10907f2274797065223a22776562617574686e2e67657422000000000000000000000060581c908d015160581c141616915286515191151560021b600117806021895101511614906020831116169788613be7575b50505085613bb6575b50505050565b613bdd94955092613bd560a0613bce60808401613aaf565b9201613aaf565b919293613c40565b905f808080613bb0565b6020919293506001908288510183858201809782825198019460025afa831b5afa5191523d15613c19575f8080613ba7565bfe5b9190603f90613c2861275e565b50613c3161275e565b50116020818435029301350290565b9290939193613c4d610a34565b506040519384526020840152836040840152606083015260808201525f805260205f60a0836101005afa503d15613cac575b507f7fffffff800000007fffffffffffffffde737d56d38bcf4279dce5617e3192a85f5160011491111090565b6d1ab2e8006fd8b71907bf06a5bdee3b15613cc7575b613c7f565b5f60a06020926dd01ea45f9efd5c54f037fa57ea1a5afa15613ce9575f613cc2565bfe5b606090565b929192613cfb613ceb565b93815180613d0a575b50505050565b90919294506003600282010460021b91610670604051967f4142434445464748494a4b4c4d4e4f505152535455565758595a616263646566601f5215027f6768696a6b6c6d6e6f707172737475767778797a303132333435363738392d5f18603f5260208601938385019280826020010195600460038851945f8a525b0191603f8351818160121c16515f538181600c1c1651600153818160061c165160025316516003535f518152019085821015613dd05790603f6003600493909150929192613d87565b50955f9460039360209252016040520660020490613d3d60f01b82860352151502809303520382525f808080613d0456fea264697066735822122003025b9d185e84afdbe943189eb9229c0384b99f2a333fba3c99e7c0e6a9851a64736f6c637829302e382e33312d646576656c6f702e323032352e31312e31322b636f6d6d69742e3637366264656363005a",
    "linkReferences": {}
  },
  "methodIdentifiers": {
    "authorizeKey(uint8,bytes,uint40,uint256)": "2cc06b1e",
    "encrypt(bytes)": "31b00e46",
    "execute(uint96,bytes,bytes,uint32)": "68eddae7",
    "getDomainSeparator()": "ed24911d",
    "getKey(uint32)": "2f1d7903",
    "getKeyIndex(uint8,bytes)": "5e677dd0",
    "getKeyNonce(uint32)": "c9e6db8e",
    "keyCount()": "fac750e0",
    "multiSend(bytes)": "8d80ff0a",
    "revokeKey(uint8,bytes)": "8730d33b",
    "setAESKey()": "a85f5c37",
    "verifyAndConsumeNonce(uint32,bytes,bytes)": "0e292a29"
  },
  "id": 32
}