{
  "abi": [
    {
      "type": "function",
      "name": "attributes",
      "inputs": [
        {
          "name": "",
          "type": "bytes32",
          "internalType": "bytes32"
        }
      ],
      "outputs": [
        {
          "name": "",
          "type": "bool",
          "internalType": "bool"
        }
      ],
      "stateMutability": "view"
    },
    {
      "type": "function",
      "name": "computeIdV1",
      "inputs": [
        {
          "name": "attrs",
          "type": "tuple",
          "internalType": "struct UpgradeOperator.DefiningAttributesV1",
          "components": [
            {
              "name": "mrtd",
              "type": "bytes",
              "internalType": "bytes"
            },
            {
              "name": "mrseam",
              "type": "bytes",
              "internalType": "bytes"
            },
            {
              "name": "pcr4",
              "type": "bytes",
              "internalType": "bytes"
            }
          ]
        }
      ],
      "outputs": [
        {
          "name": "",
          "type": "bytes32",
          "internalType": "bytes32"
        }
      ],
      "stateMutability": "pure"
    },
    {
      "type": "function",
      "name": "computeIdV2",
      "inputs": [
        {
          "name": "attrs",
          "type": "tuple",
          "internalType": "struct UpgradeOperator.DefiningAttributesV2",
          "components": [
            {
              "name": "mrtd",
              "type": "bytes",
              "internalType": "bytes"
            },
            {
              "name": "mrseam",
              "type": "bytes",
              "internalType": "bytes"
            },
            {
              "name": "pcr4",
              "type": "bytes",
              "internalType": "bytes"
            },
            {
              "name": "pcr7",
              "type": "bytes",
              "internalType": "bytes"
            }
          ]
        }
      ],
      "outputs": [
        {
          "name": "",
          "type": "bytes32",
          "internalType": "bytes32"
        }
      ],
      "stateMutability": "pure"
    },
    {
      "type": "function",
      "name": "get_id_status_v1",
      "inputs": [
        {
          "name": "mrtd",
          "type": "bytes",
          "internalType": "bytes"
        },
        {
          "name": "mrseam",
          "type": "bytes",
          "internalType": "bytes"
        },
        {
          "name": "pcr4",
          "type": "bytes",
          "internalType": "bytes"
        }
      ],
      "outputs": [
        {
          "name": "",
          "type": "bool",
          "internalType": "bool"
        }
      ],
      "stateMutability": "view"
    },
    {
      "type": "function",
      "name": "owner",
      "inputs": [],
      "outputs": [
        {
          "name": "",
          "type": "address",
          "internalType": "address"
        }
      ],
      "stateMutability": "view"
    },
    {
      "type": "function",
      "name": "set_id_status_v1",
      "inputs": [
        {
          "name": "mrtd",
          "type": "bytes",
          "internalType": "bytes"
        },
        {
          "name": "mrseam",
          "type": "bytes",
          "internalType": "bytes"
        },
        {
          "name": "pcr4",
          "type": "bytes",
          "internalType": "bytes"
        },
        {
          "name": "status",
          "type": "bool",
          "internalType": "bool"
        }
      ],
      "outputs": [],
      "stateMutability": "nonpayable"
    },
    {
      "type": "event",
      "name": "SetDefiningAttributesV1",
      "inputs": [
        {
          "name": "mrtd",
          "type": "bytes",
          "indexed": false,
          "internalType": "bytes"
        },
        {
          "name": "mrseam",
          "type": "bytes",
          "indexed": false,
          "internalType": "bytes"
        },
        {
          "name": "pcr4",
          "type": "bytes",
          "indexed": false,
          "internalType": "bytes"
        },
        {
          "name": "status",
          "type": "bool",
          "indexed": false,
          "internalType": "bool"
        }
      ],
      "anonymous": false
    },
    {
      "type": "event",
      "name": "SetDefiningAttributesV2",
      "inputs": [
        {
          "name": "mrtd",
          "type": "bytes",
          "indexed": false,
          "internalType": "bytes"
        },
        {
          "name": "mrseam",
          "type": "bytes",
          "indexed": false,
          "internalType": "bytes"
        },
        {
          "name": "pcr4",
          "type": "bytes",
          "indexed": false,
          "internalType": "bytes"
        },
        {
          "name": "pcr7",
          "type": "bytes",
          "indexed": false,
          "internalType": "bytes"
        },
        {
          "name": "status",
          "type": "bool",
          "indexed": false,
          "internalType": "bool"
        }
      ],
      "anonymous": false
    }
  ],
  "bytecode": {
    "object": "0x6080604052348015600e575f5ffd5b50610f238061001c5f395ff3fe608060405234801561000f575f5ffd5b5060043610610060575f3560e01c806344c0b2bf146100645780637a737c37146100805780638da5cb5b146100b057806391fef116146100ce578063a409c6f0146100fe578063b115ce0d1461012e575b5f5ffd5b61007e60048036038101906100799190610675565b61015e565b005b61009a6004803603810190610095919061081a565b610342565b6040516100a79190610879565b60405180910390f35b6100b8610371565b6040516100c591906108d1565b60405180910390f35b6100e860048036038101906100e3919061099f565b610389565b6040516100f59190610879565b60405180910390f35b610118600480360381019061011391906109e6565b6103b8565b6040516101259190610a99565b60405180910390f35b61014860048036038101906101439190610adc565b6104d7565b6040516101559190610a99565b60405180910390f35b73100000000000000000000000000000000000000273ffffffffffffffffffffffffffffffffffffffff163373ffffffffffffffffffffffffffffffffffffffff16146101e0576040517f08c379a00000000000000000000000000000000000000000000000000000000081526004016101d790610b61565b60405180910390fd5b6030845114610224576040517f08c379a000000000000000000000000000000000000000000000000000000000815260040161021b90610bc9565b60405180910390fd5b6030835114610268576040517f08c379a000000000000000000000000000000000000000000000000000000000815260040161025f90610c31565b60405180910390fd5b60208251146102ac576040517f08c379a00000000000000000000000000000000000000000000000000000000081526004016102a390610c99565b60405180910390fd5b5f60405180606001604052808681526020018581526020018481525090505f6102d482610389565b9050825f5f8381526020019081526020015f205f6101000a81548160ff0219169083151502179055507ffbd013ecb3bb070127bc1b1186c451c2a5778c62b56de1db228acce4c28038ea868686866040516103329493929190610d17565b60405180910390a1505050505050565b5f816040516020016103549190610e2c565b604051602081830303815290604052805190602001209050919050565b73100000000000000000000000000000000000000281565b5f8160405160200161039b9190610ea7565b604051602081830303815290604052805190602001209050919050565b5f60308451146103fd576040517f08c379a00000000000000000000000000000000000000000000000000000000081526004016103f490610bc9565b60405180910390fd5b6030835114610441576040517f08c379a000000000000000000000000000000000000000000000000000000000815260040161043890610c31565b60405180910390fd5b6020825114610485576040517f08c379a000000000000000000000000000000000000000000000000000000000815260040161047c90610c99565b60405180910390fd5b5f60405180606001604052808681526020018581526020018481525090505f6104ad82610389565b90505f5f8281526020019081526020015f205f9054906101000a900460ff16925050509392505050565b5f602052805f5260405f205f915054906101000a900460ff1681565b5f604051905090565b5f5ffd5b5f5ffd5b5f5ffd5b5f5ffd5b5f601f19601f8301169050919050565b7f4e487b71000000000000000000000000000000000000000000000000000000005f52604160045260245ffd5b6105528261050c565b810181811067ffffffffffffffff821117156105715761057061051c565b5b80604052505050565b5f6105836104f3565b905061058f8282610549565b919050565b5f67ffffffffffffffff8211156105ae576105ad61051c565b5b6105b78261050c565b9050602081019050919050565b828183375f83830152505050565b5f6105e46105df84610594565b61057a565b905082815260208101848484011115610600576105ff610508565b5b61060b8482856105c4565b509392505050565b5f82601f83011261062757610626610504565b5b81356106378482602086016105d2565b91505092915050565b5f8115159050919050565b61065481610640565b811461065e575f5ffd5b50565b5f8135905061066f8161064b565b92915050565b5f5f5f5f6080858703121561068d5761068c6104fc565b5b5f85013567ffffffffffffffff8111156106aa576106a9610500565b5b6106b687828801610613565b945050602085013567ffffffffffffffff8111156106d7576106d6610500565b5b6106e387828801610613565b935050604085013567ffffffffffffffff81111561070457610703610500565b5b61071087828801610613565b925050606061072187828801610661565b91505092959194509250565b5f5ffd5b5f5ffd5b5f6080828403121561074a5761074961072d565b5b610754608061057a565b90505f82013567ffffffffffffffff81111561077357610772610731565b5b61077f84828501610613565b5f83015250602082013567ffffffffffffffff8111156107a2576107a1610731565b5b6107ae84828501610613565b602083015250604082013567ffffffffffffffff8111156107d2576107d1610731565b5b6107de84828501610613565b604083015250606082013567ffffffffffffffff81111561080257610801610731565b5b61080e84828501610613565b60608301525092915050565b5f6020828403121561082f5761082e6104fc565b5b5f82013567ffffffffffffffff81111561084c5761084b610500565b5b61085884828501610735565b91505092915050565b5f819050919050565b61087381610861565b82525050565b5f60208201905061088c5f83018461086a565b92915050565b5f73ffffffffffffffffffffffffffffffffffffffff82169050919050565b5f6108bb82610892565b9050919050565b6108cb816108b1565b82525050565b5f6020820190506108e45f8301846108c2565b92915050565b5f606082840312156108ff576108fe61072d565b5b610909606061057a565b90505f82013567ffffffffffffffff81111561092857610927610731565b5b61093484828501610613565b5f83015250602082013567ffffffffffffffff81111561095757610956610731565b5b61096384828501610613565b602083015250604082013567ffffffffffffffff81111561098757610986610731565b5b61099384828501610613565b60408301525092915050565b5f602082840312156109b4576109b36104fc565b5b5f82013567ffffffffffffffff8111156109d1576109d0610500565b5b6109dd848285016108ea565b91505092915050565b5f5f5f606084860312156109fd576109fc6104fc565b5b5f84013567ffffffffffffffff811115610a1a57610a19610500565b5b610a2686828701610613565b935050602084013567ffffffffffffffff811115610a4757610a46610500565b5b610a5386828701610613565b925050604084013567ffffffffffffffff811115610a7457610a73610500565b5b610a8086828701610613565b9150509250925092565b610a9381610640565b82525050565b5f602082019050610aac5f830184610a8a565b92915050565b610abb81610861565b8114610ac5575f5ffd5b50565b5f81359050610ad681610ab2565b92915050565b5f60208284031215610af157610af06104fc565b5b5f610afe84828501610ac8565b91505092915050565b5f82825260208201905092915050565b7f4f6e6c79206f776e65722063616e2073657420737461747573000000000000005f82015250565b5f610b4b601983610b07565b9150610b5682610b17565b602082019050919050565b5f6020820190508181035f830152610b7881610b3f565b9050919050565b7f496e76616c6964206d727464206c656e677468000000000000000000000000005f82015250565b5f610bb3601383610b07565b9150610bbe82610b7f565b602082019050919050565b5f6020820190508181035f830152610be081610ba7565b9050919050565b7f496e76616c6964206d727365616d206c656e67746800000000000000000000005f82015250565b5f610c1b601583610b07565b9150610c2682610be7565b602082019050919050565b5f6020820190508181035f830152610c4881610c0f565b9050919050565b7f496e76616c69642070637234206c656e677468000000000000000000000000005f82015250565b5f610c83601383610b07565b9150610c8e82610c4f565b602082019050919050565b5f6020820190508181035f830152610cb081610c77565b9050919050565b5f81519050919050565b5f82825260208201905092915050565b8281835e5f83830152505050565b5f610ce982610cb7565b610cf38185610cc1565b9350610d03818560208601610cd1565b610d0c8161050c565b840191505092915050565b5f6080820190508181035f830152610d2f8187610cdf565b90508181036020830152610d438186610cdf565b90508181036040830152610d578185610cdf565b9050610d666060830184610a8a565b95945050505050565b5f82825260208201905092915050565b5f610d8982610cb7565b610d938185610d6f565b9350610da3818560208601610cd1565b610dac8161050c565b840191505092915050565b5f608083015f8301518482035f860152610dd18282610d7f565b91505060208301518482036020860152610deb8282610d7f565b91505060408301518482036040860152610e058282610d7f565b91505060608301518482036060860152610e1f8282610d7f565b9150508091505092915050565b5f6020820190508181035f830152610e448184610db7565b905092915050565b5f606083015f8301518482035f860152610e668282610d7f565b91505060208301518482036020860152610e808282610d7f565b91505060408301518482036040860152610e9a8282610d7f565b9150508091505092915050565b5f6020820190508181035f830152610ebf8184610e4c565b90509291505056fea2646970667358221220879888b080132ba8d6f8b2ac7ab13734a12d468c2a92250d3bc7d247e0f823b764736f6c637828302e382e33312d646576656c6f702e323032352e31302e392b636f6d6d69742e34643133626331330059",
    "linkReferences": {}
  },
  "methodIdentifiers": {
    "attributes(bytes32)": "b115ce0d",
    "computeIdV1((bytes,bytes,bytes))": "91fef116",
    "computeIdV2((bytes,bytes,bytes,bytes))": "7a737c37",
    "get_id_status_v1(bytes,bytes,bytes)": "a409c6f0",
    "owner()": "8da5cb5b",
    "set_id_status_v1(bytes,bytes,bytes,bool)": "44c0b2bf"
  },
  "id": 25
}